{
  "contractName": "Bayram",
  "abi": [
    {
      "inputs": [
        {
          "internalType": "address",
          "name": "_movy",
          "type": "address"
        }
      ],
      "stateMutability": "nonpayable",
      "type": "constructor"
    },
    {
      "anonymous": false,
      "inputs": [
        {
          "indexed": true,
          "internalType": "address",
          "name": "owner",
          "type": "address"
        },
        {
          "indexed": true,
          "internalType": "address",
          "name": "spender",
          "type": "address"
        },
        {
          "indexed": false,
          "internalType": "uint256",
          "name": "value",
          "type": "uint256"
        }
      ],
      "name": "Approval",
      "type": "event"
    },
    {
      "anonymous": false,
      "inputs": [
        {
          "indexed": false,
          "internalType": "address",
          "name": "addr",
          "type": "address"
        },
        {
          "indexed": false,
          "internalType": "uint256",
          "name": "amount",
          "type": "uint256"
        }
      ],
      "name": "Burned",
      "type": "event"
    },
    {
      "anonymous": false,
      "inputs": [
        {
          "indexed": false,
          "internalType": "address",
          "name": "addr",
          "type": "address"
        },
        {
          "indexed": false,
          "internalType": "uint256",
          "name": "amount",
          "type": "uint256"
        },
        {
          "indexed": false,
          "internalType": "uint8",
          "name": "option",
          "type": "uint8"
        }
      ],
      "name": "Minted",
      "type": "event"
    },
    {
      "anonymous": false,
      "inputs": [
        {
          "indexed": true,
          "internalType": "address",
          "name": "previousOwner",
          "type": "address"
        },
        {
          "indexed": true,
          "internalType": "address",
          "name": "newOwner",
          "type": "address"
        }
      ],
      "name": "OwnershipTransferred",
      "type": "event"
    },
    {
      "anonymous": false,
      "inputs": [
        {
          "indexed": false,
          "internalType": "address",
          "name": "account",
          "type": "address"
        }
      ],
      "name": "Paused",
      "type": "event"
    },
    {
      "anonymous": false,
      "inputs": [
        {
          "indexed": true,
          "internalType": "address",
          "name": "from",
          "type": "address"
        },
        {
          "indexed": true,
          "internalType": "address",
          "name": "to",
          "type": "address"
        },
        {
          "indexed": false,
          "internalType": "uint256",
          "name": "value",
          "type": "uint256"
        }
      ],
      "name": "Transfer",
      "type": "event"
    },
    {
      "anonymous": false,
      "inputs": [
        {
          "indexed": false,
          "internalType": "address",
          "name": "account",
          "type": "address"
        }
      ],
      "name": "Unpaused",
      "type": "event"
    },
    {
      "inputs": [],
      "name": "ICO_OPTION_COUNT",
      "outputs": [
        {
          "internalType": "uint8",
          "name": "",
          "type": "uint8"
        }
      ],
      "stateMutability": "view",
      "type": "function",
      "constant": true
    },
    {
      "inputs": [
        {
          "internalType": "address",
          "name": "owner",
          "type": "address"
        },
        {
          "internalType": "address",
          "name": "spender",
          "type": "address"
        }
      ],
      "name": "allowance",
      "outputs": [
        {
          "internalType": "uint256",
          "name": "",
          "type": "uint256"
        }
      ],
      "stateMutability": "view",
      "type": "function",
      "constant": true
    },
    {
      "inputs": [
        {
          "internalType": "address",
          "name": "spender",
          "type": "address"
        },
        {
          "internalType": "uint256",
          "name": "amount",
          "type": "uint256"
        }
      ],
      "name": "approve",
      "outputs": [
        {
          "internalType": "bool",
          "name": "",
          "type": "bool"
        }
      ],
      "stateMutability": "nonpayable",
      "type": "function"
    },
    {
      "inputs": [
        {
          "internalType": "address",
          "name": "account",
          "type": "address"
        }
      ],
      "name": "balanceOf",
      "outputs": [
        {
          "internalType": "uint256",
          "name": "",
          "type": "uint256"
        }
      ],
      "stateMutability": "view",
      "type": "function",
      "constant": true
    },
    {
      "inputs": [
        {
          "internalType": "address",
          "name": "account",
          "type": "address"
        },
        {
          "internalType": "uint8",
          "name": "option",
          "type": "uint8"
        }
      ],
      "name": "balanceOfMintedOption",
      "outputs": [
        {
          "internalType": "uint256",
          "name": "",
          "type": "uint256"
        }
      ],
      "stateMutability": "view",
      "type": "function",
      "constant": true
    },
    {
      "inputs": [
        {
          "internalType": "address",
          "name": "from",
          "type": "address"
        },
        {
          "internalType": "uint256",
          "name": "amount",
          "type": "uint256"
        }
      ],
      "name": "burn",
      "outputs": [],
      "stateMutability": "nonpayable",
      "type": "function"
    },
    {
      "inputs": [
        {
          "internalType": "uint256",
          "name": "amount",
          "type": "uint256"
        },
        {
          "internalType": "uint8",
          "name": "option",
          "type": "uint8"
        }
      ],
      "name": "buy",
      "outputs": [],
      "stateMutability": "nonpayable",
      "type": "function"
    },
    {
      "inputs": [],
      "name": "decimals",
      "outputs": [
        {
          "internalType": "uint8",
          "name": "",
          "type": "uint8"
        }
      ],
      "stateMutability": "pure",
      "type": "function",
      "constant": true
    },
    {
      "inputs": [
        {
          "internalType": "address",
          "name": "spender",
          "type": "address"
        },
        {
          "internalType": "uint256",
          "name": "subtractedValue",
          "type": "uint256"
        }
      ],
      "name": "decreaseAllowance",
      "outputs": [
        {
          "internalType": "bool",
          "name": "",
          "type": "bool"
        }
      ],
      "stateMutability": "nonpayable",
      "type": "function"
    },
    {
      "inputs": [
        {
          "internalType": "address",
          "name": "spender",
          "type": "address"
        },
        {
          "internalType": "uint256",
          "name": "addedValue",
          "type": "uint256"
        }
      ],
      "name": "increaseAllowance",
      "outputs": [
        {
          "internalType": "bool",
          "name": "",
          "type": "bool"
        }
      ],
      "stateMutability": "nonpayable",
      "type": "function"
    },
    {
      "inputs": [
        {
          "internalType": "uint256",
          "name": "amount",
          "type": "uint256"
        }
      ],
      "name": "mintForTreasure",
      "outputs": [],
      "stateMutability": "nonpayable",
      "type": "function"
    },
    {
      "inputs": [],
      "name": "name",
      "outputs": [
        {
          "internalType": "string",
          "name": "",
          "type": "string"
        }
      ],
      "stateMutability": "view",
      "type": "function",
      "constant": true
    },
    {
      "inputs": [],
      "name": "owner",
      "outputs": [
        {
          "internalType": "address",
          "name": "",
          "type": "address"
        }
      ],
      "stateMutability": "view",
      "type": "function",
      "constant": true
    },
    {
      "inputs": [],
      "name": "pause",
      "outputs": [],
      "stateMutability": "nonpayable",
      "type": "function"
    },
    {
      "inputs": [],
      "name": "paused",
      "outputs": [
        {
          "internalType": "bool",
          "name": "",
          "type": "bool"
        }
      ],
      "stateMutability": "view",
      "type": "function",
      "constant": true
    },
    {
      "inputs": [],
      "name": "paymentToken",
      "outputs": [
        {
          "internalType": "address",
          "name": "",
          "type": "address"
        }
      ],
      "stateMutability": "view",
      "type": "function",
      "constant": true
    },
    {
      "inputs": [],
      "name": "renounceOwnership",
      "outputs": [],
      "stateMutability": "nonpayable",
      "type": "function"
    },
    {
      "inputs": [
        {
          "internalType": "bool",
          "name": "_sale",
          "type": "bool"
        }
      ],
      "name": "setICO",
      "outputs": [],
      "stateMutability": "nonpayable",
      "type": "function"
    },
    {
      "inputs": [],
      "name": "symbol",
      "outputs": [
        {
          "internalType": "string",
          "name": "",
          "type": "string"
        }
      ],
      "stateMutability": "view",
      "type": "function",
      "constant": true
    },
    {
      "inputs": [
        {
          "internalType": "uint8",
          "name": "option",
          "type": "uint8"
        }
      ],
      "name": "totalICOHolder",
      "outputs": [
        {
          "internalType": "uint256",
          "name": "",
          "type": "uint256"
        }
      ],
      "stateMutability": "view",
      "type": "function",
      "constant": true
    },
    {
      "inputs": [
        {
          "internalType": "uint8",
          "name": "option",
          "type": "uint8"
        }
      ],
      "name": "totalMintedICO",
      "outputs": [
        {
          "internalType": "uint256",
          "name": "",
          "type": "uint256"
        }
      ],
      "stateMutability": "view",
      "type": "function",
      "constant": true
    },
    {
      "inputs": [],
      "name": "totalSupply",
      "outputs": [
        {
          "internalType": "uint256",
          "name": "",
          "type": "uint256"
        }
      ],
      "stateMutability": "view",
      "type": "function",
      "constant": true
    },
    {
      "inputs": [
        {
          "internalType": "address",
          "name": "to",
          "type": "address"
        },
        {
          "internalType": "uint256",
          "name": "amount",
          "type": "uint256"
        }
      ],
      "name": "transfer",
      "outputs": [
        {
          "internalType": "bool",
          "name": "",
          "type": "bool"
        }
      ],
      "stateMutability": "nonpayable",
      "type": "function"
    },
    {
      "inputs": [
        {
          "internalType": "address",
          "name": "from",
          "type": "address"
        },
        {
          "internalType": "address",
          "name": "to",
          "type": "address"
        },
        {
          "internalType": "uint256",
          "name": "amount",
          "type": "uint256"
        }
      ],
      "name": "transferFrom",
      "outputs": [
        {
          "internalType": "bool",
          "name": "",
          "type": "bool"
        }
      ],
      "stateMutability": "nonpayable",
      "type": "function"
    },
    {
      "inputs": [
        {
          "internalType": "address",
          "name": "newOwner",
          "type": "address"
        }
      ],
      "name": "transferOwnership",
      "outputs": [],
      "stateMutability": "nonpayable",
      "type": "function"
    },
    {
      "inputs": [
        {
          "internalType": "uint8",
          "name": "option",
          "type": "uint8"
        }
      ],
      "name": "unlockICOBalances",
      "outputs": [],
      "stateMutability": "nonpayable",
      "type": "function"
    },
    {
      "inputs": [],
      "name": "unpause",
      "outputs": [],
      "stateMutability": "nonpayable",
      "type": "function"
    }
  ],
  "bytecode": "0x60806040526001600b60006101000a81548160ff0219169083151502179055503480156200002c57600080fd5b50604051620044d5380380620044d58339818101604052810190620000529190620007e2565b6040518060400160405280600c81526020017f42617972616d20546f6b656e00000000000000000000000000000000000000008152506040518060400160405280600381526020017f4241590000000000000000000000000000000000000000000000000000000000815250600282828160039080519060200190620000da929190620006c8565b508060049080519060200190620000f3929190620006c8565b505050620001166200010a6200034d60201b60201c565b6200035560201b60201c565b6000600560146101000a81548160ff02191690831515021790555080600b60016101000a81548160ff021916908360ff16021790555050505080600660006101000a81548173ffffffffffffffffffffffffffffffffffffffff021916908373ffffffffffffffffffffffffffffffffffffffff160217905550620001a4629896806200041b60201b60201c565b6040518060e00160405280620186a08152602001620927c08152602001620f424081526020016113888152602001600015158152602001600115158152602001600081525060076000600160ff1681526020019081526020016000206000820151816000015560208201518160010155604082015181600201556060820151816003015560808201518160040160006101000a81548160ff02191690831515021790555060a08201518160040160016101000a81548160ff02191690831515021790555060c082015181600501559050506040518060e00160405280620186a0815260200162030d4081526020016207a12081526020016109c48152602001600115158152602001600015158152602001600081525060076000600260ff1681526020019081526020016000206000820151816000015560208201518160010155604082015181600201556060820151816003015560808201518160040160006101000a81548160ff02191690831515021790555060a08201518160040160016101000a81548160ff02191690831515021790555060c082015181600501559050505062000ada565b600033905090565b6000600560009054906101000a900473ffffffffffffffffffffffffffffffffffffffff16905081600560006101000a81548173ffffffffffffffffffffffffffffffffffffffff021916908373ffffffffffffffffffffffffffffffffffffffff1602179055508173ffffffffffffffffffffffffffffffffffffffff168173ffffffffffffffffffffffffffffffffffffffff167f8be0079c531659141344cd1fd0a4f28419497f9722a3daafe3b4186f6b6457e060405160405180910390a35050565b6200042b6200034d60201b60201c565b73ffffffffffffffffffffffffffffffffffffffff16620004516200051b60201b60201c565b73ffffffffffffffffffffffffffffffffffffffff1614620004aa576040517f08c379a0000000000000000000000000000000000000000000000000000000008152600401620004a19062000875565b60405180910390fd5b620004cb620004be6200051b60201b60201c565b826200054560201b60201c565b7fdcb23284f3935b5557998e99dcc286e29744c5000723d99eecd5d6f5694f6e11620004fc6200051b60201b60201c565b82600060405162000510939291906200091d565b60405180910390a150565b6000600560009054906101000a900473ffffffffffffffffffffffffffffffffffffffff16905090565b600073ffffffffffffffffffffffffffffffffffffffff168273ffffffffffffffffffffffffffffffffffffffff161415620005b8576040517f08c379a0000000000000000000000000000000000000000000000000000000008152600401620005af90620009aa565b60405180910390fd5b620005cc60008383620006be60201b60201c565b8060026000828254620005e09190620009fb565b92505081905550806000808473ffffffffffffffffffffffffffffffffffffffff1673ffffffffffffffffffffffffffffffffffffffff1681526020019081526020016000206000828254620006379190620009fb565b925050819055508173ffffffffffffffffffffffffffffffffffffffff16600073ffffffffffffffffffffffffffffffffffffffff167fddf252ad1be2c89b69c2b068fc378daa952ba7f163c4a11628f55a4df523b3ef836040516200069e919062000a58565b60405180910390a3620006ba60008383620006c360201b60201c565b5050565b505050565b505050565b828054620006d69062000aa4565b90600052602060002090601f016020900481019282620006fa576000855562000746565b82601f106200071557805160ff191683800117855562000746565b8280016001018555821562000746579182015b828111156200074557825182559160200191906001019062000728565b5b50905062000755919062000759565b5090565b5b80821115620007745760008160009055506001016200075a565b5090565b600080fd5b600073ffffffffffffffffffffffffffffffffffffffff82169050919050565b6000620007aa826200077d565b9050919050565b620007bc816200079d565b8114620007c857600080fd5b50565b600081519050620007dc81620007b1565b92915050565b600060208284031215620007fb57620007fa62000778565b5b60006200080b84828501620007cb565b91505092915050565b600082825260208201905092915050565b7f4f776e61626c653a2063616c6c6572206973206e6f7420746865206f776e6572600082015250565b60006200085d60208362000814565b91506200086a8262000825565b602082019050919050565b6000602082019050818103600083015262000890816200084e565b9050919050565b620008a2816200079d565b82525050565b6000819050919050565b620008bd81620008a8565b82525050565b6000819050919050565b600060ff82169050919050565b6000819050919050565b600062000905620008ff620008f984620008c3565b620008da565b620008cd565b9050919050565b6200091781620008e4565b82525050565b600060608201905062000934600083018662000897565b620009436020830185620008b2565b6200095260408301846200090c565b949350505050565b7f45524332303a206d696e7420746f20746865207a65726f206164647265737300600082015250565b600062000992601f8362000814565b91506200099f826200095a565b602082019050919050565b60006020820190508181036000830152620009c58162000983565b9050919050565b7f4e487b7100000000000000000000000000000000000000000000000000000000600052601160045260246000fd5b600062000a0882620008a8565b915062000a1583620008a8565b9250827fffffffffffffffffffffffffffffffffffffffffffffffffffffffffffffffff0382111562000a4d5762000a4c620009cc565b5b828201905092915050565b600060208201905062000a6f6000830184620008b2565b92915050565b7f4e487b7100000000000000000000000000000000000000000000000000000000600052602260045260246000fd5b6000600282049050600182168062000abd57607f821691505b6020821081141562000ad45762000ad362000a75565b5b50919050565b6139eb8062000aea6000396000f3fe608060405234801561001057600080fd5b50600436106101a95760003560e01c80638456cb59116100f9578063b8d404eb11610097578063e200abb211610071578063e200abb2146104d2578063e90bc7b1146104f0578063ed9beb051461050c578063f2fde38b14610528576101a9565b8063b8d404eb14610456578063db649a0d14610472578063dd62ed3e146104a2576101a9565b80639dc29fac116100d35780639dc29fac146103aa578063a457c2d7146103c6578063a9059cbb146103f6578063a9ab328814610426576101a9565b80638456cb59146103645780638da5cb5b1461036e57806395d89b411461038c576101a9565b8063313ce567116101665780634f5c3d4d116101405780634f5c3d4d146102dc5780635c975abb1461030c57806370a082311461032a578063715018a61461035a576101a9565b8063313ce5671461028457806339509351146102a25780633f4ba83a146102d2576101a9565b806306fdde03146101ae578063095ea7b3146101cc578063147cd098146101fc57806318160ddd1461021857806323b872dd146102365780633013ce2914610266575b600080fd5b6101b6610544565b6040516101c39190612754565b60405180910390f35b6101e660048036038101906101e1919061280f565b6105d6565b6040516101f3919061286a565b60405180910390f35b610216600480360381019061021191906128be565b610632565b005b61022061094f565b60405161022d91906128fa565b60405180910390f35b610250600480360381019061024b9190612915565b610959565b60405161025d919061286a565b60405180910390f35b61026e6109b7565b60405161027b9190612977565b60405180910390f35b61028c6109dd565b60405161029991906129a1565b60405180910390f35b6102bc60048036038101906102b7919061280f565b6109e6565b6040516102c9919061286a565b60405180910390f35b6102da610a90565b005b6102f660048036038101906102f191906129bc565b610b5d565b60405161030391906128fa565b60405180910390f35b610314610c26565b604051610321919061286a565b60405180910390f35b610344600480360381019061033f91906129fc565b610c3d565b60405161035191906128fa565b60405180910390f35b610362610d52565b005b61036c610dda565b005b610376610ea8565b6040516103839190612977565b60405180910390f35b610394610ed2565b6040516103a19190612754565b60405180910390f35b6103c460048036038101906103bf919061280f565b610f64565b005b6103e060048036038101906103db919061280f565b611027565b6040516103ed919061286a565b60405180910390f35b610410600480360381019061040b919061280f565b611111565b60405161041d919061286a565b60405180910390f35b610440600480360381019061043b91906128be565b61116d565b60405161044d91906128fa565b60405180910390f35b610470600480360381019061046b9190612a29565b6111fd565b005b61048c600480360381019061048791906128be565b6112d0565b60405161049991906128fa565b60405180910390f35b6104bc60048036038101906104b79190612a56565b61135d565b6040516104c991906128fa565b60405180910390f35b6104da6113e4565b6040516104e791906129a1565b60405180910390f35b61050a60048036038101906105059190612a96565b6113f7565b005b61052660048036038101906105219190612b02565b611a41565b005b610542600480360381019061053d91906129fc565b611ada565b005b60606003805461055390612b5e565b80601f016020809104026020016040519081016040528092919081815260200182805461057f90612b5e565b80156105cc5780601f106105a1576101008083540402835291602001916105cc565b820191906000526020600020905b8154815290600101906020018083116105af57829003601f168201915b5050505050905090565b60006105e0610c26565b15610620576040517f08c379a000000000000000000000000000000000000000000000000000000000815260040161061790612bdc565b60405180910390fd5b61062a8383611bd2565b905092915050565b61063a611bf5565b73ffffffffffffffffffffffffffffffffffffffff16610658610ea8565b73ffffffffffffffffffffffffffffffffffffffff16146106ae576040517f08c379a00000000000000000000000000000000000000000000000000000000081526004016106a590612c48565b60405180910390fd5b808060ff166001111580156106d85750600b60019054906101000a900460ff1660ff168160ff1611155b610717576040517f08c379a000000000000000000000000000000000000000000000000000000000815260040161070e90612cb4565b60405180910390fd5b600760008360ff1660ff16815260200190815260200160002060040160009054906101000a900460ff16610780576040517f08c379a000000000000000000000000000000000000000000000000000000000815260040161077790612cb4565b60405180910390fd5b600760008360ff1660ff16815260200190815260200160002060040160019054906101000a900460ff16156107ea576040517f08c379a00000000000000000000000000000000000000000000000000000000081526004016107e190612d46565b60405180910390fd5b60005b600860008460ff1660ff1681526020019081526020016000205481101561091557610902600a60008560ff1660ff168152602001908152602001600020600083815260200190815260200160002060009054906101000a900473ffffffffffffffffffffffffffffffffffffffff16600960008660ff1660ff1681526020019081526020016000206000600a60008860ff1660ff168152602001908152602001600020600086815260200190815260200160002060009054906101000a900473ffffffffffffffffffffffffffffffffffffffff1673ffffffffffffffffffffffffffffffffffffffff1673ffffffffffffffffffffffffffffffffffffffff16815260200190815260200160002054611bfd565b808061090d90612d95565b9150506107ed565b506001600760008460ff1660ff16815260200190815260200160002060040160016101000a81548160ff0219169083151502179055505050565b6000600254905090565b6000610963610c26565b156109a3576040517f08c379a000000000000000000000000000000000000000000000000000000000815260040161099a90612bdc565b60405180910390fd5b6109ae848484611d5d565b90509392505050565b600660009054906101000a900473ffffffffffffffffffffffffffffffffffffffff1681565b60006004905090565b6000806109f1611bf5565b9050610a85818585600160008673ffffffffffffffffffffffffffffffffffffffff1673ffffffffffffffffffffffffffffffffffffffff16815260200190815260200160002060008973ffffffffffffffffffffffffffffffffffffffff1673ffffffffffffffffffffffffffffffffffffffff16815260200190815260200160002054610a809190612dde565b611d8c565b600191505092915050565b610a98610c26565b610ad7576040517f08c379a0000000000000000000000000000000000000000000000000000000008152600401610ace90612e80565b60405180910390fd5b610adf611bf5565b73ffffffffffffffffffffffffffffffffffffffff16610afd610ea8565b73ffffffffffffffffffffffffffffffffffffffff1614610b53576040517f08c379a0000000000000000000000000000000000000000000000000000000008152600401610b4a90612c48565b60405180910390fd5b610b5b611f57565b565b60008160ff16600111158015610b885750600b60019054906101000a900460ff1660ff168260ff1611155b610bc7576040517f08c379a0000000000000000000000000000000000000000000000000000000008152600401610bbe90612cb4565b60405180910390fd5b600960008360ff1660ff16815260200190815260200160002060008473ffffffffffffffffffffffffffffffffffffffff1673ffffffffffffffffffffffffffffffffffffffff16815260200190815260200160002054905092915050565b6000600560149054906101000a900460ff16905090565b600080610c4983611ff9565b90506000600190505b600b60019054906101000a900460ff1660ff168160ff1611610d4857600760008260ff1660ff16815260200190815260200160002060040160009054906101000a900460ff168015610ccb5750600760008260ff1660ff16815260200190815260200160002060040160019054906101000a900460ff16155b15610d3557600960008260ff1660ff16815260200190815260200160002060008573ffffffffffffffffffffffffffffffffffffffff1673ffffffffffffffffffffffffffffffffffffffff1681526020019081526020016000205482610d329190612dde565b91505b8080610d4090612ea0565b915050610c52565b5080915050919050565b610d5a611bf5565b73ffffffffffffffffffffffffffffffffffffffff16610d78610ea8565b73ffffffffffffffffffffffffffffffffffffffff1614610dce576040517f08c379a0000000000000000000000000000000000000000000000000000000008152600401610dc590612c48565b60405180910390fd5b610dd86000612041565b565b610de2610c26565b15610e22576040517f08c379a0000000000000000000000000000000000000000000000000000000008152600401610e1990612bdc565b60405180910390fd5b610e2a611bf5565b73ffffffffffffffffffffffffffffffffffffffff16610e48610ea8565b73ffffffffffffffffffffffffffffffffffffffff1614610e9e576040517f08c379a0000000000000000000000000000000000000000000000000000000008152600401610e9590612c48565b60405180910390fd5b610ea6612107565b565b6000600560009054906101000a900473ffffffffffffffffffffffffffffffffffffffff16905090565b606060048054610ee190612b5e565b80601f0160208091040260200160405190810160405280929190818152602001828054610f0d90612b5e565b8015610f5a5780601f10610f2f57610100808354040283529160200191610f5a565b820191906000526020600020905b815481529060010190602001808311610f3d57829003601f168201915b5050505050905090565b610f6c611bf5565b73ffffffffffffffffffffffffffffffffffffffff16610f8a610ea8565b73ffffffffffffffffffffffffffffffffffffffff1614610fe0576040517f08c379a0000000000000000000000000000000000000000000000000000000008152600401610fd790612c48565b60405180910390fd5b610fea82826121aa565b7f696de425f79f4a40bc6d2122ca50507f0efbeabbff86a84871b7196ab8ea8df7828260405161101b929190612eca565b60405180910390a15050565b600080611032611bf5565b90506000600160008373ffffffffffffffffffffffffffffffffffffffff1673ffffffffffffffffffffffffffffffffffffffff16815260200190815260200160002060008673ffffffffffffffffffffffffffffffffffffffff1673ffffffffffffffffffffffffffffffffffffffff168152602001908152602001600020549050838110156110f8576040517f08c379a00000000000000000000000000000000000000000000000000000000081526004016110ef90612f65565b60405180910390fd5b6111058286868403611d8c565b60019250505092915050565b600061111b610c26565b1561115b576040517f08c379a000000000000000000000000000000000000000000000000000000000815260040161115290612bdc565b60405180910390fd5b6111658383612381565b905092915050565b6000818060ff166001111580156111995750600b60019054906101000a900460ff1660ff168160ff1611155b6111d8576040517f08c379a00000000000000000000000000000000000000000000000000000000081526004016111cf90612cb4565b60405180910390fd5b600760008460ff1660ff16815260200190815260200160002060050154915050919050565b611205611bf5565b73ffffffffffffffffffffffffffffffffffffffff16611223610ea8565b73ffffffffffffffffffffffffffffffffffffffff1614611279576040517f08c379a000000000000000000000000000000000000000000000000000000000815260040161127090612c48565b60405180910390fd5b61128a611284610ea8565b82611bfd565b7fdcb23284f3935b5557998e99dcc286e29744c5000723d99eecd5d6f5694f6e116112b3610ea8565b8260006040516112c593929190612fca565b60405180910390a150565b6000818060ff166001111580156112fc5750600b60019054906101000a900460ff1660ff168160ff1611155b61133b576040517f08c379a000000000000000000000000000000000000000000000000000000000815260040161133290612cb4565b60405180910390fd5b600860008460ff1660ff16815260200190815260200160002054915050919050565b6000600160008473ffffffffffffffffffffffffffffffffffffffff1673ffffffffffffffffffffffffffffffffffffffff16815260200190815260200160002060008373ffffffffffffffffffffffffffffffffffffffff1673ffffffffffffffffffffffffffffffffffffffff16815260200190815260200160002054905092915050565b600b60019054906101000a900460ff1681565b808060ff166001111580156114215750600b60019054906101000a900460ff1660ff168160ff1611155b611460576040517f08c379a000000000000000000000000000000000000000000000000000000000815260040161145790612cb4565b60405180910390fd5b611468610c26565b156114a8576040517f08c379a000000000000000000000000000000000000000000000000000000000815260040161149f90612bdc565b60405180910390fd5b600b60009054906101000a900460ff166114f7576040517f08c379a00000000000000000000000000000000000000000000000000000000081526004016114ee9061304d565b60405180910390fd5b82600760008460ff1660ff168152602001908152602001600020600001541115611556576040517f08c379a000000000000000000000000000000000000000000000000000000000815260040161154d906130b9565b60405180910390fd5b82600760008460ff1660ff1681526020019081526020016000206001015410156115b5576040517f08c379a00000000000000000000000000000000000000000000000000000000081526004016115ac90613125565b60405180910390fd5b600760008360ff1660ff1681526020019081526020016000206002015483600760008560ff1660ff168152602001908152602001600020600501546115fa9190612dde565b111561163b576040517f08c379a000000000000000000000000000000000000000000000000000000000815260040161163290613191565b60405180910390fd5b600760008360ff1660ff1681526020019081526020016000206001015483600960008560ff1660ff16815260200190815260200160002060003373ffffffffffffffffffffffffffffffffffffffff1673ffffffffffffffffffffffffffffffffffffffff168152602001908152602001600020546116ba9190612dde565b11156116fb576040517f08c379a00000000000000000000000000000000000000000000000000000000081526004016116f290613223565b60405180910390fd5b600660009054906101000a900473ffffffffffffffffffffffffffffffffffffffff1673ffffffffffffffffffffffffffffffffffffffff166323b872dd33611742610ea8565b612710600760008860ff1660ff168152602001908152602001600020600301548861176d9190613243565b61177791906132cc565b6040518463ffffffff1660e01b8152600401611795939291906132fd565b6020604051808303816000875af11580156117b4573d6000803e3d6000fd5b505050506040513d601f19601f820116820180604052508101906117d89190613349565b611817576040517f08c379a000000000000000000000000000000000000000000000000000000000815260040161180e906133c2565b60405180910390fd5b600760008360ff1660ff16815260200190815260200160002060040160009054906101000a900460ff166118505761184f3384611bfd565b5b82600760008460ff1660ff168152602001908152602001600020600501600082825461187c9190612dde565b925050819055506000600960008460ff1660ff16815260200190815260200160002060003373ffffffffffffffffffffffffffffffffffffffff1673ffffffffffffffffffffffffffffffffffffffff1681526020019081526020016000205414156119945733600a60008460ff1660ff1681526020019081526020016000206000600860008660ff1660ff16815260200190815260200160002054815260200190815260200160002060006101000a81548173ffffffffffffffffffffffffffffffffffffffff021916908373ffffffffffffffffffffffffffffffffffffffff160217905550600860008360ff1660ff168152602001908152602001600020600081548092919061198e90612d95565b91905055505b82600960008460ff1660ff16815260200190815260200160002060003373ffffffffffffffffffffffffffffffffffffffff1673ffffffffffffffffffffffffffffffffffffffff16815260200190815260200160002060008282546119fa9190612dde565b925050819055507fdcb23284f3935b5557998e99dcc286e29744c5000723d99eecd5d6f5694f6e11338484604051611a34939291906133e2565b60405180910390a1505050565b611a49611bf5565b73ffffffffffffffffffffffffffffffffffffffff16611a67610ea8565b73ffffffffffffffffffffffffffffffffffffffff1614611abd576040517f08c379a0000000000000000000000000000000000000000000000000000000008152600401611ab490612c48565b60405180910390fd5b80600b60006101000a81548160ff02191690831515021790555050565b611ae2611bf5565b73ffffffffffffffffffffffffffffffffffffffff16611b00610ea8565b73ffffffffffffffffffffffffffffffffffffffff1614611b56576040517f08c379a0000000000000000000000000000000000000000000000000000000008152600401611b4d90612c48565b60405180910390fd5b600073ffffffffffffffffffffffffffffffffffffffff168173ffffffffffffffffffffffffffffffffffffffff161415611bc6576040517f08c379a0000000000000000000000000000000000000000000000000000000008152600401611bbd9061348b565b60405180910390fd5b611bcf81612041565b50565b600080611bdd611bf5565b9050611bea818585611d8c565b600191505092915050565b600033905090565b600073ffffffffffffffffffffffffffffffffffffffff168273ffffffffffffffffffffffffffffffffffffffff161415611c6d576040517f08c379a0000000000000000000000000000000000000000000000000000000008152600401611c64906134f7565b60405180910390fd5b611c79600083836123a4565b8060026000828254611c8b9190612dde565b92505081905550806000808473ffffffffffffffffffffffffffffffffffffffff1673ffffffffffffffffffffffffffffffffffffffff1681526020019081526020016000206000828254611ce09190612dde565b925050819055508173ffffffffffffffffffffffffffffffffffffffff16600073ffffffffffffffffffffffffffffffffffffffff167fddf252ad1be2c89b69c2b068fc378daa952ba7f163c4a11628f55a4df523b3ef83604051611d4591906128fa565b60405180910390a3611d59600083836123a9565b5050565b600080611d68611bf5565b9050611d758582856123ae565b611d8085858561243a565b60019150509392505050565b600073ffffffffffffffffffffffffffffffffffffffff168373ffffffffffffffffffffffffffffffffffffffff161415611dfc576040517f08c379a0000000000000000000000000000000000000000000000000000000008152600401611df390613589565b60405180910390fd5b600073ffffffffffffffffffffffffffffffffffffffff168273ffffffffffffffffffffffffffffffffffffffff161415611e6c576040517f08c379a0000000000000000000000000000000000000000000000000000000008152600401611e639061361b565b60405180910390fd5b80600160008573ffffffffffffffffffffffffffffffffffffffff1673ffffffffffffffffffffffffffffffffffffffff16815260200190815260200160002060008473ffffffffffffffffffffffffffffffffffffffff1673ffffffffffffffffffffffffffffffffffffffff168152602001908152602001600020819055508173ffffffffffffffffffffffffffffffffffffffff168373ffffffffffffffffffffffffffffffffffffffff167f8c5be1e5ebec7d5bd14f71427d1e84f3dd0314c0f7b2291e5b200ac8c7c3b92583604051611f4a91906128fa565b60405180910390a3505050565b611f5f610c26565b611f9e576040517f08c379a0000000000000000000000000000000000000000000000000000000008152600401611f9590612e80565b60405180910390fd5b6000600560146101000a81548160ff0219169083151502179055507f5db9ee0a495bf2e6ff9c91a7834c1ba4fdd244a5e8aa4e537bd38aeae4b073aa611fe2611bf5565b604051611fef9190612977565b60405180910390a1565b60008060008373ffffffffffffffffffffffffffffffffffffffff1673ffffffffffffffffffffffffffffffffffffffff168152602001908152602001600020549050919050565b6000600560009054906101000a900473ffffffffffffffffffffffffffffffffffffffff16905081600560006101000a81548173ffffffffffffffffffffffffffffffffffffffff021916908373ffffffffffffffffffffffffffffffffffffffff1602179055508173ffffffffffffffffffffffffffffffffffffffff168173ffffffffffffffffffffffffffffffffffffffff167f8be0079c531659141344cd1fd0a4f28419497f9722a3daafe3b4186f6b6457e060405160405180910390a35050565b61210f610c26565b1561214f576040517f08c379a000000000000000000000000000000000000000000000000000000000815260040161214690612bdc565b60405180910390fd5b6001600560146101000a81548160ff0219169083151502179055507f62e78cea01bee320cd4e420270b5ea74000d11b0c9f74754ebdbfc544b05a258612193611bf5565b6040516121a09190612977565b60405180910390a1565b600073ffffffffffffffffffffffffffffffffffffffff168273ffffffffffffffffffffffffffffffffffffffff16141561221a576040517f08c379a0000000000000000000000000000000000000000000000000000000008152600401612211906136ad565b60405180910390fd5b612226826000836123a4565b60008060008473ffffffffffffffffffffffffffffffffffffffff1673ffffffffffffffffffffffffffffffffffffffff168152602001908152602001600020549050818110156122ac576040517f08c379a00000000000000000000000000000000000000000000000000000000081526004016122a39061373f565b60405180910390fd5b8181036000808573ffffffffffffffffffffffffffffffffffffffff1673ffffffffffffffffffffffffffffffffffffffff168152602001908152602001600020819055508160026000828254612303919061375f565b92505081905550600073ffffffffffffffffffffffffffffffffffffffff168373ffffffffffffffffffffffffffffffffffffffff167fddf252ad1be2c89b69c2b068fc378daa952ba7f163c4a11628f55a4df523b3ef8460405161236891906128fa565b60405180910390a361237c836000846123a9565b505050565b60008061238c611bf5565b905061239981858561243a565b600191505092915050565b505050565b505050565b60006123ba848461135d565b90507fffffffffffffffffffffffffffffffffffffffffffffffffffffffffffffffff81146124345781811015612426576040517f08c379a000000000000000000000000000000000000000000000000000000000815260040161241d906137df565b60405180910390fd5b6124338484848403611d8c565b5b50505050565b600073ffffffffffffffffffffffffffffffffffffffff168373ffffffffffffffffffffffffffffffffffffffff1614156124aa576040517f08c379a00000000000000000000000000000000000000000000000000000000081526004016124a190613871565b60405180910390fd5b600073ffffffffffffffffffffffffffffffffffffffff168273ffffffffffffffffffffffffffffffffffffffff16141561251a576040517f08c379a000000000000000000000000000000000000000000000000000000000815260040161251190613903565b60405180910390fd5b6125258383836123a4565b60008060008573ffffffffffffffffffffffffffffffffffffffff1673ffffffffffffffffffffffffffffffffffffffff168152602001908152602001600020549050818110156125ab576040517f08c379a00000000000000000000000000000000000000000000000000000000081526004016125a290613995565b60405180910390fd5b8181036000808673ffffffffffffffffffffffffffffffffffffffff1673ffffffffffffffffffffffffffffffffffffffff16815260200190815260200160002081905550816000808573ffffffffffffffffffffffffffffffffffffffff1673ffffffffffffffffffffffffffffffffffffffff168152602001908152602001600020600082825461263e9190612dde565b925050819055508273ffffffffffffffffffffffffffffffffffffffff168473ffffffffffffffffffffffffffffffffffffffff167fddf252ad1be2c89b69c2b068fc378daa952ba7f163c4a11628f55a4df523b3ef846040516126a291906128fa565b60405180910390a36126b58484846123a9565b50505050565b600081519050919050565b600082825260208201905092915050565b60005b838110156126f55780820151818401526020810190506126da565b83811115612704576000848401525b50505050565b6000601f19601f8301169050919050565b6000612726826126bb565b61273081856126c6565b93506127408185602086016126d7565b6127498161270a565b840191505092915050565b6000602082019050818103600083015261276e818461271b565b905092915050565b600080fd5b600073ffffffffffffffffffffffffffffffffffffffff82169050919050565b60006127a68261277b565b9050919050565b6127b68161279b565b81146127c157600080fd5b50565b6000813590506127d3816127ad565b92915050565b6000819050919050565b6127ec816127d9565b81146127f757600080fd5b50565b600081359050612809816127e3565b92915050565b6000806040838503121561282657612825612776565b5b6000612834858286016127c4565b9250506020612845858286016127fa565b9150509250929050565b60008115159050919050565b6128648161284f565b82525050565b600060208201905061287f600083018461285b565b92915050565b600060ff82169050919050565b61289b81612885565b81146128a657600080fd5b50565b6000813590506128b881612892565b92915050565b6000602082840312156128d4576128d3612776565b5b60006128e2848285016128a9565b91505092915050565b6128f4816127d9565b82525050565b600060208201905061290f60008301846128eb565b92915050565b60008060006060848603121561292e5761292d612776565b5b600061293c868287016127c4565b935050602061294d868287016127c4565b925050604061295e868287016127fa565b9150509250925092565b6129718161279b565b82525050565b600060208201905061298c6000830184612968565b92915050565b61299b81612885565b82525050565b60006020820190506129b66000830184612992565b92915050565b600080604083850312156129d3576129d2612776565b5b60006129e1858286016127c4565b92505060206129f2858286016128a9565b9150509250929050565b600060208284031215612a1257612a11612776565b5b6000612a20848285016127c4565b91505092915050565b600060208284031215612a3f57612a3e612776565b5b6000612a4d848285016127fa565b91505092915050565b60008060408385031215612a6d57612a6c612776565b5b6000612a7b858286016127c4565b9250506020612a8c858286016127c4565b9150509250929050565b60008060408385031215612aad57612aac612776565b5b6000612abb858286016127fa565b9250506020612acc858286016128a9565b9150509250929050565b612adf8161284f565b8114612aea57600080fd5b50565b600081359050612afc81612ad6565b92915050565b600060208284031215612b1857612b17612776565b5b6000612b2684828501612aed565b91505092915050565b7f4e487b7100000000000000000000000000000000000000000000000000000000600052602260045260246000fd5b60006002820490506001821680612b7657607f821691505b60208210811415612b8a57612b89612b2f565b5b50919050565b7f5061757361626c653a2070617573656400000000000000000000000000000000600082015250565b6000612bc66010836126c6565b9150612bd182612b90565b602082019050919050565b60006020820190508181036000830152612bf581612bb9565b9050919050565b7f4f776e61626c653a2063616c6c6572206973206e6f7420746865206f776e6572600082015250565b6000612c326020836126c6565b9150612c3d82612bfc565b602082019050919050565b60006020820190508181036000830152612c6181612c25565b9050919050565b7f49434f206f7074696f6e206973206e6f742076616c69642e0000000000000000600082015250565b6000612c9e6018836126c6565b9150612ca982612c68565b602082019050919050565b60006020820190508181036000830152612ccd81612c91565b9050919050565b7f49434f20616d6f756e74732068617665206265656e20616c726561647920756e60008201527f6c6f636b65642100000000000000000000000000000000000000000000000000602082015250565b6000612d306027836126c6565b9150612d3b82612cd4565b604082019050919050565b60006020820190508181036000830152612d5f81612d23565b9050919050565b7f4e487b7100000000000000000000000000000000000000000000000000000000600052601160045260246000fd5b6000612da0826127d9565b91507fffffffffffffffffffffffffffffffffffffffffffffffffffffffffffffffff821415612dd357612dd2612d66565b5b600182019050919050565b6000612de9826127d9565b9150612df4836127d9565b9250827fffffffffffffffffffffffffffffffffffffffffffffffffffffffffffffffff03821115612e2957612e28612d66565b5b828201905092915050565b7f5061757361626c653a206e6f7420706175736564000000000000000000000000600082015250565b6000612e6a6014836126c6565b9150612e7582612e34565b602082019050919050565b60006020820190508181036000830152612e9981612e5d565b9050919050565b6000612eab82612885565b915060ff821415612ebf57612ebe612d66565b5b600182019050919050565b6000604082019050612edf6000830185612968565b612eec60208301846128eb565b9392505050565b7f45524332303a2064656372656173656420616c6c6f77616e63652062656c6f7760008201527f207a65726f000000000000000000000000000000000000000000000000000000602082015250565b6000612f4f6025836126c6565b9150612f5a82612ef3565b604082019050919050565b60006020820190508181036000830152612f7e81612f42565b9050919050565b6000819050919050565b6000819050919050565b6000612fb4612faf612faa84612f85565b612f8f565b612885565b9050919050565b612fc481612f99565b82525050565b6000606082019050612fdf6000830186612968565b612fec60208301856128eb565b612ff96040830184612fbb565b949350505050565b7f49434f206973206f766572000000000000000000000000000000000000000000600082015250565b6000613037600b836126c6565b915061304282613001565b602082019050919050565b600060208201905081810360008301526130668161302a565b9050919050565b7f4d696e696d756d20616d6f756e74206e6f742065786365656465640000000000600082015250565b60006130a3601b836126c6565b91506130ae8261306d565b602082019050919050565b600060208201905081810360008301526130d281613096565b9050919050565b7f4d6178696d756d20616d6f756e74206578636565646564000000000000000000600082015250565b600061310f6017836126c6565b915061311a826130d9565b602082019050919050565b6000602082019050818103600083015261313e81613102565b9050919050565b7f4d6178696d756d2049434f20737570706c792065786365656465640000000000600082015250565b600061317b601b836126c6565b915061318682613145565b602082019050919050565b600060208201905081810360008301526131aa8161316e565b9050919050565b7f4d6178696d756d2049434f20737570706c7920706572206163636f756e74206560008201527f7863656564656400000000000000000000000000000000000000000000000000602082015250565b600061320d6027836126c6565b9150613218826131b1565b604082019050919050565b6000602082019050818103600083015261323c81613200565b9050919050565b600061324e826127d9565b9150613259836127d9565b9250817fffffffffffffffffffffffffffffffffffffffffffffffffffffffffffffffff048311821515161561329257613291612d66565b5b828202905092915050565b7f4e487b7100000000000000000000000000000000000000000000000000000000600052601260045260246000fd5b60006132d7826127d9565b91506132e2836127d9565b9250826132f2576132f161329d565b5b828204905092915050565b60006060820190506133126000830186612968565b61331f6020830185612968565b61332c60408301846128eb565b949350505050565b60008151905061334381612ad6565b92915050565b60006020828403121561335f5761335e612776565b5b600061336d84828501613334565b91505092915050565b7f5061796d656e7420636f756c64206e6f74206265206d61646521000000000000600082015250565b60006133ac601a836126c6565b91506133b782613376565b602082019050919050565b600060208201905081810360008301526133db8161339f565b9050919050565b60006060820190506133f76000830186612968565b61340460208301856128eb565b6134116040830184612992565b949350505050565b7f4f776e61626c653a206e6577206f776e657220697320746865207a65726f206160008201527f6464726573730000000000000000000000000000000000000000000000000000602082015250565b60006134756026836126c6565b915061348082613419565b604082019050919050565b600060208201905081810360008301526134a481613468565b9050919050565b7f45524332303a206d696e7420746f20746865207a65726f206164647265737300600082015250565b60006134e1601f836126c6565b91506134ec826134ab565b602082019050919050565b60006020820190508181036000830152613510816134d4565b9050919050565b7f45524332303a20617070726f76652066726f6d20746865207a65726f2061646460008201527f7265737300000000000000000000000000000000000000000000000000000000602082015250565b60006135736024836126c6565b915061357e82613517565b604082019050919050565b600060208201905081810360008301526135a281613566565b9050919050565b7f45524332303a20617070726f766520746f20746865207a65726f20616464726560008201527f7373000000000000000000000000000000000000000000000000000000000000602082015250565b60006136056022836126c6565b9150613610826135a9565b604082019050919050565b60006020820190508181036000830152613634816135f8565b9050919050565b7f45524332303a206275726e2066726f6d20746865207a65726f2061646472657360008201527f7300000000000000000000000000000000000000000000000000000000000000602082015250565b60006136976021836126c6565b91506136a28261363b565b604082019050919050565b600060208201905081810360008301526136c68161368a565b9050919050565b7f45524332303a206275726e20616d6f756e7420657863656564732062616c616e60008201527f6365000000000000000000000000000000000000000000000000000000000000602082015250565b60006137296022836126c6565b9150613734826136cd565b604082019050919050565b600060208201905081810360008301526137588161371c565b9050919050565b600061376a826127d9565b9150613775836127d9565b92508282101561378857613787612d66565b5b828203905092915050565b7f45524332303a20696e73756666696369656e7420616c6c6f77616e6365000000600082015250565b60006137c9601d836126c6565b91506137d482613793565b602082019050919050565b600060208201905081810360008301526137f8816137bc565b9050919050565b7f45524332303a207472616e736665722066726f6d20746865207a65726f20616460008201527f6472657373000000000000000000000000000000000000000000000000000000602082015250565b600061385b6025836126c6565b9150613866826137ff565b604082019050919050565b6000602082019050818103600083015261388a8161384e565b9050919050565b7f45524332303a207472616e7366657220746f20746865207a65726f206164647260008201527f6573730000000000000000000000000000000000000000000000000000000000602082015250565b60006138ed6023836126c6565b91506138f882613891565b604082019050919050565b6000602082019050818103600083015261391c816138e0565b9050919050565b7f45524332303a207472616e7366657220616d6f756e742065786365656473206260008201527f616c616e63650000000000000000000000000000000000000000000000000000602082015250565b600061397f6026836126c6565b915061398a82613923565b604082019050919050565b600060208201905081810360008301526139ae81613972565b905091905056fea26469706673582212208b13336afb502aea9428c61a27105a7cbe7765b5d85760bf268b1b3979b3b0c164736f6c634300080c0033",
  "immutableReferences": {},
  "source": "// SPDX-License-Identifier: MIT\npragma solidity >=0.8.12;\n\nimport \"./MovyBase.sol\";\n\n// DUMMY TOKEN\n\ncontract Bayram is MovyBase {\n    constructor(address _movy) MovyBase(\"Bayram Token\", \"BAY\", 2) {\n        paymentToken = _movy;\n        mintForTreasure(10000000); // 1000\n        ICO_OPTIONS[1] = ICOOption({\n            minMint: 100000, // 30\n            maxMint: 600000, // 60\n            limit: 1000000, // 100\n            price: 5000, // 0.5 MOVY\n            isLocked: false,\n            isAmountUnlocked: true,\n            totalMinted: 0\n        });\n        ICO_OPTIONS[2] = ICOOption({\n            minMint: 100000, // 10\n            maxMint: 200000, // 20\n            limit: 500000, // 50\n            price: 2500, // 0.25 MOVY\n            isLocked: true,\n            isAmountUnlocked: false,\n            totalMinted: 0\n        });\n    }\n}\n",
  "sourcePath": "/home/ismail/blockchain/mf_contracts/contracts/Bayram.sol",
  "compiler": {
    "name": "solc",
    "version": "0.8.12+commit.f00d7308.Emscripten.clang"
  },
  "schemaVersion": "3.4.4",
  "updatedAt": "2022-03-28T11:23:46.080Z",
  "networkType": "ethereum",
  "devdoc": {
    "kind": "dev",
    "methods": {
      "allowance(address,address)": {
        "details": "See {IERC20-allowance}."
      },
      "approve(address,uint256)": {
        "details": "See {IERC20-approve}. NOTE: If `amount` is the maximum `uint256`, the allowance is not updated on `transferFrom`. This is semantically equivalent to an infinite approval. Requirements: - `spender` cannot be the zero address."
      },
      "balanceOf(address)": {
        "details": "See {IERC20-balanceOf}."
      },
      "decimals()": {
        "details": "Returns the number of decimals used to get its user representation. For example, if `decimals` equals `2`, a balance of `505` tokens should be displayed to a user as `5.05` (`505 / 10 ** 2`). Tokens usually opt for a value of 18, imitating the relationship between Ether and Wei. This is the value {ERC20} uses, unless this function is overridden; NOTE: This information is only used for _display_ purposes: it in no way affects any of the arithmetic of the contract, including {IERC20-balanceOf} and {IERC20-transfer}."
      },
      "decreaseAllowance(address,uint256)": {
        "details": "Atomically decreases the allowance granted to `spender` by the caller. This is an alternative to {approve} that can be used as a mitigation for problems described in {IERC20-approve}. Emits an {Approval} event indicating the updated allowance. Requirements: - `spender` cannot be the zero address. - `spender` must have allowance for the caller of at least `subtractedValue`."
      },
      "increaseAllowance(address,uint256)": {
        "details": "Atomically increases the allowance granted to `spender` by the caller. This is an alternative to {approve} that can be used as a mitigation for problems described in {IERC20-approve}. Emits an {Approval} event indicating the updated allowance. Requirements: - `spender` cannot be the zero address."
      },
      "name()": {
        "details": "Returns the name of the token."
      },
      "owner()": {
        "details": "Returns the address of the current owner."
      },
      "paused()": {
        "details": "Returns true if the contract is paused, and false otherwise."
      },
      "renounceOwnership()": {
        "details": "Leaves the contract without owner. It will not be possible to call `onlyOwner` functions anymore. Can only be called by the current owner. NOTE: Renouncing ownership will leave the contract without an owner, thereby removing any functionality that is only available to the owner."
      },
      "symbol()": {
        "details": "Returns the symbol of the token, usually a shorter version of the name."
      },
      "totalSupply()": {
        "details": "See {IERC20-totalSupply}."
      },
      "transfer(address,uint256)": {
        "details": "See {IERC20-transfer}. Requirements: - `to` cannot be the zero address. - the caller must have a balance of at least `amount`."
      },
      "transferFrom(address,address,uint256)": {
        "details": "See {IERC20-transferFrom}. Emits an {Approval} event indicating the updated allowance. This is not required by the EIP. See the note at the beginning of {ERC20}. NOTE: Does not update the allowance if the current allowance is the maximum `uint256`. Requirements: - `from` and `to` cannot be the zero address. - `from` must have a balance of at least `amount`. - the caller must have allowance for ``from``'s tokens of at least `amount`."
      },
      "transferOwnership(address)": {
        "details": "Transfers ownership of the contract to a new account (`newOwner`). Can only be called by the current owner."
      }
    },
    "version": 1
  },
  "userdoc": {
    "kind": "user",
    "methods": {},
    "version": 1
  }
}