{
  "contractName": "Bayram",
  "abi": [
    {
      "inputs": [
        {
          "internalType": "address",
          "name": "_movy",
          "type": "address"
        }
      ],
      "stateMutability": "nonpayable",
      "type": "constructor"
    },
    {
      "anonymous": false,
      "inputs": [
        {
          "indexed": true,
          "internalType": "address",
          "name": "owner",
          "type": "address"
        },
        {
          "indexed": true,
          "internalType": "address",
          "name": "spender",
          "type": "address"
        },
        {
          "indexed": false,
          "internalType": "uint256",
          "name": "value",
          "type": "uint256"
        }
      ],
      "name": "Approval",
      "type": "event"
    },
    {
      "anonymous": false,
      "inputs": [
        {
          "indexed": false,
          "internalType": "address",
          "name": "addr",
          "type": "address"
        },
        {
          "indexed": false,
          "internalType": "uint256",
          "name": "amount",
          "type": "uint256"
        }
      ],
      "name": "Burned",
      "type": "event"
    },
    {
      "anonymous": false,
      "inputs": [
        {
          "indexed": false,
          "internalType": "address",
          "name": "addr",
          "type": "address"
        },
        {
          "indexed": false,
          "internalType": "uint256",
          "name": "amount",
          "type": "uint256"
        }
      ],
      "name": "Minted",
      "type": "event"
    },
    {
      "anonymous": false,
      "inputs": [
        {
          "indexed": true,
          "internalType": "address",
          "name": "previousOwner",
          "type": "address"
        },
        {
          "indexed": true,
          "internalType": "address",
          "name": "newOwner",
          "type": "address"
        }
      ],
      "name": "OwnershipTransferred",
      "type": "event"
    },
    {
      "anonymous": false,
      "inputs": [
        {
          "indexed": true,
          "internalType": "address",
          "name": "from",
          "type": "address"
        },
        {
          "indexed": true,
          "internalType": "address",
          "name": "to",
          "type": "address"
        },
        {
          "indexed": false,
          "internalType": "uint256",
          "name": "value",
          "type": "uint256"
        }
      ],
      "name": "Transfer",
      "type": "event"
    },
    {
      "inputs": [
        {
          "internalType": "address",
          "name": "owner",
          "type": "address"
        },
        {
          "internalType": "address",
          "name": "spender",
          "type": "address"
        }
      ],
      "name": "allowance",
      "outputs": [
        {
          "internalType": "uint256",
          "name": "",
          "type": "uint256"
        }
      ],
      "stateMutability": "view",
      "type": "function",
      "constant": true
    },
    {
      "inputs": [
        {
          "internalType": "address",
          "name": "spender",
          "type": "address"
        },
        {
          "internalType": "uint256",
          "name": "amount",
          "type": "uint256"
        }
      ],
      "name": "approve",
      "outputs": [
        {
          "internalType": "bool",
          "name": "",
          "type": "bool"
        }
      ],
      "stateMutability": "nonpayable",
      "type": "function"
    },
    {
      "inputs": [
        {
          "internalType": "address",
          "name": "account",
          "type": "address"
        }
      ],
      "name": "balanceOf",
      "outputs": [
        {
          "internalType": "uint256",
          "name": "",
          "type": "uint256"
        }
      ],
      "stateMutability": "view",
      "type": "function",
      "constant": true
    },
    {
      "inputs": [
        {
          "internalType": "address",
          "name": "spender",
          "type": "address"
        },
        {
          "internalType": "uint256",
          "name": "subtractedValue",
          "type": "uint256"
        }
      ],
      "name": "decreaseAllowance",
      "outputs": [
        {
          "internalType": "bool",
          "name": "",
          "type": "bool"
        }
      ],
      "stateMutability": "nonpayable",
      "type": "function"
    },
    {
      "inputs": [
        {
          "internalType": "address",
          "name": "spender",
          "type": "address"
        },
        {
          "internalType": "uint256",
          "name": "addedValue",
          "type": "uint256"
        }
      ],
      "name": "increaseAllowance",
      "outputs": [
        {
          "internalType": "bool",
          "name": "",
          "type": "bool"
        }
      ],
      "stateMutability": "nonpayable",
      "type": "function"
    },
    {
      "inputs": [],
      "name": "movy",
      "outputs": [
        {
          "internalType": "address",
          "name": "",
          "type": "address"
        }
      ],
      "stateMutability": "view",
      "type": "function",
      "constant": true
    },
    {
      "inputs": [],
      "name": "name",
      "outputs": [
        {
          "internalType": "string",
          "name": "",
          "type": "string"
        }
      ],
      "stateMutability": "view",
      "type": "function",
      "constant": true
    },
    {
      "inputs": [],
      "name": "owner",
      "outputs": [
        {
          "internalType": "address",
          "name": "",
          "type": "address"
        }
      ],
      "stateMutability": "view",
      "type": "function",
      "constant": true
    },
    {
      "inputs": [],
      "name": "renounceOwnership",
      "outputs": [],
      "stateMutability": "nonpayable",
      "type": "function"
    },
    {
      "inputs": [],
      "name": "symbol",
      "outputs": [
        {
          "internalType": "string",
          "name": "",
          "type": "string"
        }
      ],
      "stateMutability": "view",
      "type": "function",
      "constant": true
    },
    {
      "inputs": [],
      "name": "totalSupply",
      "outputs": [
        {
          "internalType": "uint256",
          "name": "",
          "type": "uint256"
        }
      ],
      "stateMutability": "view",
      "type": "function",
      "constant": true
    },
    {
      "inputs": [
        {
          "internalType": "address",
          "name": "to",
          "type": "address"
        },
        {
          "internalType": "uint256",
          "name": "amount",
          "type": "uint256"
        }
      ],
      "name": "transfer",
      "outputs": [
        {
          "internalType": "bool",
          "name": "",
          "type": "bool"
        }
      ],
      "stateMutability": "nonpayable",
      "type": "function"
    },
    {
      "inputs": [
        {
          "internalType": "address",
          "name": "from",
          "type": "address"
        },
        {
          "internalType": "address",
          "name": "to",
          "type": "address"
        },
        {
          "internalType": "uint256",
          "name": "amount",
          "type": "uint256"
        }
      ],
      "name": "transferFrom",
      "outputs": [
        {
          "internalType": "bool",
          "name": "",
          "type": "bool"
        }
      ],
      "stateMutability": "nonpayable",
      "type": "function"
    },
    {
      "inputs": [
        {
          "internalType": "address",
          "name": "newOwner",
          "type": "address"
        }
      ],
      "name": "transferOwnership",
      "outputs": [],
      "stateMutability": "nonpayable",
      "type": "function"
    },
    {
      "inputs": [],
      "name": "decimals",
      "outputs": [
        {
          "internalType": "uint8",
          "name": "",
          "type": "uint8"
        }
      ],
      "stateMutability": "view",
      "type": "function",
      "constant": true
    },
    {
      "inputs": [
        {
          "internalType": "uint256",
          "name": "amount",
          "type": "uint256"
        }
      ],
      "name": "burn",
      "outputs": [],
      "stateMutability": "nonpayable",
      "type": "function"
    },
    {
      "inputs": [
        {
          "internalType": "uint256",
          "name": "amount",
          "type": "uint256"
        }
      ],
      "name": "mintForTreasure",
      "outputs": [],
      "stateMutability": "nonpayable",
      "type": "function"
    },
    {
      "inputs": [
        {
          "internalType": "address",
          "name": "sender",
          "type": "address"
        },
        {
          "internalType": "uint256",
          "name": "amount",
          "type": "uint256"
        }
      ],
      "name": "receiveApproval",
      "outputs": [],
      "stateMutability": "nonpayable",
      "type": "function"
    },
    {
      "inputs": [
        {
          "internalType": "uint256",
          "name": "amount",
          "type": "uint256"
        }
      ],
      "name": "withdrawMovy",
      "outputs": [],
      "stateMutability": "nonpayable",
      "type": "function"
    }
  ],
  "bytecode": "0x60806040526040518060400160405280600c81526020017f42617972616d20546f6b656e00000000000000000000000000000000000000008152506006908051906020019062000051929190620006d6565b506040518060400160405280600381526020017f4241590000000000000000000000000000000000000000000000000000000000815250600790805190602001906200009f929190620006d6565b506004600860006101000a81548160ff021916908360ff16021790555062989680600860016101000a81548163ffffffff021916908363ffffffff1602179055506001600860056101000a81548160ff021916908360ff160217905550601e600860066101000a81548163ffffffff021916908363ffffffff16021790555060786008600a6101000a81548163ffffffff021916908363ffffffff1602179055503480156200014d57600080fd5b5060405162002e4438038062002e448339818101604052810190620001739190620007f0565b60068054620001829062000851565b80601f0160208091040260200160405190810160405280929190818152602001828054620001b09062000851565b8015620002015780601f10620001d55761010080835404028352916020019162000201565b820191906000526020600020905b815481529060010190602001808311620001e357829003601f168201915b505050505060078054620002159062000851565b80601f0160208091040260200160405190810160405280929190818152602001828054620002439062000851565b8015620002945780601f10620002685761010080835404028352916020019162000294565b820191906000526020600020905b8154815290600101906020018083116200027657829003601f168201915b50505050508160039080519060200190620002b1929190620006d6565b508060049080519060200190620002ca929190620006d6565b505050620002ed620002e16200035e60201b60201c565b6200036660201b60201c565b80600960006101000a81548173ffffffffffffffffffffffffffffffffffffffff021916908373ffffffffffffffffffffffffffffffffffffffff16021790555062000357600860019054906101000a900463ffffffff1663ffffffff166200042c60201b60201c565b5062000a7e565b600033905090565b6000600560009054906101000a900473ffffffffffffffffffffffffffffffffffffffff16905081600560006101000a81548173ffffffffffffffffffffffffffffffffffffffff021916908373ffffffffffffffffffffffffffffffffffffffff1602179055508173ffffffffffffffffffffffffffffffffffffffff168173ffffffffffffffffffffffffffffffffffffffff167f8be0079c531659141344cd1fd0a4f28419497f9722a3daafe3b4186f6b6457e060405160405180910390a35050565b6200043c6200035e60201b60201c565b73ffffffffffffffffffffffffffffffffffffffff16620004626200052960201b60201c565b73ffffffffffffffffffffffffffffffffffffffff1614620004bb576040517f08c379a0000000000000000000000000000000000000000000000000000000008152600401620004b290620008e8565b60405180910390fd5b620004dc620004cf6200052960201b60201c565b826200055360201b60201c565b7f30385c845b448a36257a6a1716e6ad2e1bc2cbe333cde1e69fe849ad6511adfe6200050d6200052960201b60201c565b826040516200051e92919062000936565b60405180910390a150565b6000600560009054906101000a900473ffffffffffffffffffffffffffffffffffffffff16905090565b600073ffffffffffffffffffffffffffffffffffffffff168273ffffffffffffffffffffffffffffffffffffffff161415620005c6576040517f08c379a0000000000000000000000000000000000000000000000000000000008152600401620005bd90620009b3565b60405180910390fd5b620005da60008383620006cc60201b60201c565b8060026000828254620005ee919062000a04565b92505081905550806000808473ffffffffffffffffffffffffffffffffffffffff1673ffffffffffffffffffffffffffffffffffffffff168152602001908152602001600020600082825462000645919062000a04565b925050819055508173ffffffffffffffffffffffffffffffffffffffff16600073ffffffffffffffffffffffffffffffffffffffff167fddf252ad1be2c89b69c2b068fc378daa952ba7f163c4a11628f55a4df523b3ef83604051620006ac919062000a61565b60405180910390a3620006c860008383620006d160201b60201c565b5050565b505050565b505050565b828054620006e49062000851565b90600052602060002090601f01602090048101928262000708576000855562000754565b82601f106200072357805160ff191683800117855562000754565b8280016001018555821562000754579182015b828111156200075357825182559160200191906001019062000736565b5b50905062000763919062000767565b5090565b5b808211156200078257600081600090555060010162000768565b5090565b600080fd5b600073ffffffffffffffffffffffffffffffffffffffff82169050919050565b6000620007b8826200078b565b9050919050565b620007ca81620007ab565b8114620007d657600080fd5b50565b600081519050620007ea81620007bf565b92915050565b60006020828403121562000809576200080862000786565b5b60006200081984828501620007d9565b91505092915050565b7f4e487b7100000000000000000000000000000000000000000000000000000000600052602260045260246000fd5b600060028204905060018216806200086a57607f821691505b6020821081141562000881576200088062000822565b5b50919050565b600082825260208201905092915050565b7f4f776e61626c653a2063616c6c6572206973206e6f7420746865206f776e6572600082015250565b6000620008d060208362000887565b9150620008dd8262000898565b602082019050919050565b600060208201905081810360008301526200090381620008c1565b9050919050565b6200091581620007ab565b82525050565b6000819050919050565b62000930816200091b565b82525050565b60006040820190506200094d60008301856200090a565b6200095c602083018462000925565b9392505050565b7f45524332303a206d696e7420746f20746865207a65726f206164647265737300600082015250565b60006200099b601f8362000887565b9150620009a88262000963565b602082019050919050565b60006020820190508181036000830152620009ce816200098c565b9050919050565b7f4e487b7100000000000000000000000000000000000000000000000000000000600052601160045260246000fd5b600062000a11826200091b565b915062000a1e836200091b565b9250827fffffffffffffffffffffffffffffffffffffffffffffffffffffffffffffffff0382111562000a565762000a55620009d5565b5b828201905092915050565b600060208201905062000a78600083018462000925565b92915050565b6123b68062000a8e6000396000f3fe608060405234801561001057600080fd5b50600436106101215760003560e01c8063715018a6116100ad578063a9059cbb11610071578063a9059cbb1461030c578063b8d404eb1461033c578063cb92cc8214610358578063dd62ed3e14610374578063f2fde38b146103a457610121565b8063715018a61461027857806382c92a56146102825780638da5cb5b146102a057806395d89b41146102be578063a457c2d7146102dc57610121565b8063313ce567116100f4578063313ce567146101c257806339509351146101e057806342966c68146102105780634bdf1b0e1461022c57806370a082311461024857610121565b806306fdde0314610126578063095ea7b31461014457806318160ddd1461017457806323b872dd14610192575b600080fd5b61012e6103c0565b60405161013b91906117ac565b60405180910390f35b61015e60048036038101906101599190611867565b610452565b60405161016b91906118c2565b60405180910390f35b61017c610475565b60405161018991906118ec565b60405180910390f35b6101ac60048036038101906101a79190611907565b61047f565b6040516101b991906118c2565b60405180910390f35b6101ca6104ae565b6040516101d79190611976565b60405180910390f35b6101fa60048036038101906101f59190611867565b6104c5565b60405161020791906118c2565b60405180910390f35b61022a60048036038101906102259190611991565b61056f565b005b61024660048036038101906102419190611867565b61063f565b005b610262600480360381019061025d91906119be565b6107f1565b60405161026f91906118ec565b60405180910390f35b610280610839565b005b61028a6108c1565b60405161029791906119fa565b60405180910390f35b6102a86108e7565b6040516102b591906119fa565b60405180910390f35b6102c6610911565b6040516102d391906117ac565b60405180910390f35b6102f660048036038101906102f19190611867565b6109a3565b60405161030391906118c2565b60405180910390f35b61032660048036038101906103219190611867565b610a8d565b60405161033391906118c2565b60405180910390f35b61035660048036038101906103519190611991565b610ab0565b005b610372600480360381019061036d9190611991565b610b80565b005b61038e60048036038101906103899190611a15565b610cad565b60405161039b91906118ec565b60405180910390f35b6103be60048036038101906103b991906119be565b610d34565b005b6060600380546103cf90611a84565b80601f01602080910402602001604051908101604052809291908181526020018280546103fb90611a84565b80156104485780601f1061041d57610100808354040283529160200191610448565b820191906000526020600020905b81548152906001019060200180831161042b57829003601f168201915b5050505050905090565b60008061045d610e2c565b905061046a818585610e34565b600191505092915050565b6000600254905090565b60008061048a610e2c565b9050610497858285610fff565b6104a285858561108b565b60019150509392505050565b6000600860009054906101000a900460ff16905090565b6000806104d0610e2c565b9050610564818585600160008673ffffffffffffffffffffffffffffffffffffffff1673ffffffffffffffffffffffffffffffffffffffff16815260200190815260200160002060008973ffffffffffffffffffffffffffffffffffffffff1673ffffffffffffffffffffffffffffffffffffffff1681526020019081526020016000205461055f9190611ae5565b610e34565b600191505092915050565b610577610e2c565b73ffffffffffffffffffffffffffffffffffffffff166105956108e7565b73ffffffffffffffffffffffffffffffffffffffff16146105eb576040517f08c379a00000000000000000000000000000000000000000000000000000000081526004016105e290611b87565b60405180910390fd5b6105fc6105f6610e2c565b8261130c565b7f696de425f79f4a40bc6d2122ca50507f0efbeabbff86a84871b7196ab8ea8df7610625610e2c565b82604051610634929190611ba7565b60405180910390a150565b610647610e2c565b73ffffffffffffffffffffffffffffffffffffffff16600960009054906101000a900473ffffffffffffffffffffffffffffffffffffffff1673ffffffffffffffffffffffffffffffffffffffff16146106d6576040517f08c379a00000000000000000000000000000000000000000000000000000000081526004016106cd90611c42565b60405180910390fd5b6000600960009054906101000a900473ffffffffffffffffffffffffffffffffffffffff1690508073ffffffffffffffffffffffffffffffffffffffff166323b872dd8430856040518463ffffffff1660e01b815260040161073a93929190611c62565b6020604051808303816000875af1158015610759573d6000803e3d6000fd5b505050506040513d601f19601f8201168201806040525081019061077d9190611cc5565b61078657600080fd5b6000600860059054906101000a900460ff1660ff16836107a69190611d21565b90506107b284826114e3565b7f30385c845b448a36257a6a1716e6ad2e1bc2cbe333cde1e69fe849ad6511adfe84826040516107e3929190611ba7565b60405180910390a150505050565b60008060008373ffffffffffffffffffffffffffffffffffffffff1673ffffffffffffffffffffffffffffffffffffffff168152602001908152602001600020549050919050565b610841610e2c565b73ffffffffffffffffffffffffffffffffffffffff1661085f6108e7565b73ffffffffffffffffffffffffffffffffffffffff16146108b5576040517f08c379a00000000000000000000000000000000000000000000000000000000081526004016108ac90611b87565b60405180910390fd5b6108bf6000611643565b565b600960009054906101000a900473ffffffffffffffffffffffffffffffffffffffff1681565b6000600560009054906101000a900473ffffffffffffffffffffffffffffffffffffffff16905090565b60606004805461092090611a84565b80601f016020809104026020016040519081016040528092919081815260200182805461094c90611a84565b80156109995780601f1061096e57610100808354040283529160200191610999565b820191906000526020600020905b81548152906001019060200180831161097c57829003601f168201915b5050505050905090565b6000806109ae610e2c565b90506000600160008373ffffffffffffffffffffffffffffffffffffffff1673ffffffffffffffffffffffffffffffffffffffff16815260200190815260200160002060008673ffffffffffffffffffffffffffffffffffffffff1673ffffffffffffffffffffffffffffffffffffffff16815260200190815260200160002054905083811015610a74576040517f08c379a0000000000000000000000000000000000000000000000000000000008152600401610a6b90611dc4565b60405180910390fd5b610a818286868403610e34565b60019250505092915050565b600080610a98610e2c565b9050610aa581858561108b565b600191505092915050565b610ab8610e2c565b73ffffffffffffffffffffffffffffffffffffffff16610ad66108e7565b73ffffffffffffffffffffffffffffffffffffffff1614610b2c576040517f08c379a0000000000000000000000000000000000000000000000000000000008152600401610b2390611b87565b60405180910390fd5b610b3d610b376108e7565b826114e3565b7f30385c845b448a36257a6a1716e6ad2e1bc2cbe333cde1e69fe849ad6511adfe610b666108e7565b82604051610b75929190611ba7565b60405180910390a150565b610b88610e2c565b73ffffffffffffffffffffffffffffffffffffffff16610ba66108e7565b73ffffffffffffffffffffffffffffffffffffffff1614610bfc576040517f08c379a0000000000000000000000000000000000000000000000000000000008152600401610bf390611b87565b60405180910390fd5b6000600960009054906101000a900473ffffffffffffffffffffffffffffffffffffffff1690508073ffffffffffffffffffffffffffffffffffffffff1663a9059cbb610c476108e7565b846040518363ffffffff1660e01b8152600401610c65929190611ba7565b6020604051808303816000875af1158015610c84573d6000803e3d6000fd5b505050506040513d601f19601f82011682018060405250810190610ca89190611cc5565b505050565b6000600160008473ffffffffffffffffffffffffffffffffffffffff1673ffffffffffffffffffffffffffffffffffffffff16815260200190815260200160002060008373ffffffffffffffffffffffffffffffffffffffff1673ffffffffffffffffffffffffffffffffffffffff16815260200190815260200160002054905092915050565b610d3c610e2c565b73ffffffffffffffffffffffffffffffffffffffff16610d5a6108e7565b73ffffffffffffffffffffffffffffffffffffffff1614610db0576040517f08c379a0000000000000000000000000000000000000000000000000000000008152600401610da790611b87565b60405180910390fd5b600073ffffffffffffffffffffffffffffffffffffffff168173ffffffffffffffffffffffffffffffffffffffff161415610e20576040517f08c379a0000000000000000000000000000000000000000000000000000000008152600401610e1790611e56565b60405180910390fd5b610e2981611643565b50565b600033905090565b600073ffffffffffffffffffffffffffffffffffffffff168373ffffffffffffffffffffffffffffffffffffffff161415610ea4576040517f08c379a0000000000000000000000000000000000000000000000000000000008152600401610e9b90611ee8565b60405180910390fd5b600073ffffffffffffffffffffffffffffffffffffffff168273ffffffffffffffffffffffffffffffffffffffff161415610f14576040517f08c379a0000000000000000000000000000000000000000000000000000000008152600401610f0b90611f7a565b60405180910390fd5b80600160008573ffffffffffffffffffffffffffffffffffffffff1673ffffffffffffffffffffffffffffffffffffffff16815260200190815260200160002060008473ffffffffffffffffffffffffffffffffffffffff1673ffffffffffffffffffffffffffffffffffffffff168152602001908152602001600020819055508173ffffffffffffffffffffffffffffffffffffffff168373ffffffffffffffffffffffffffffffffffffffff167f8c5be1e5ebec7d5bd14f71427d1e84f3dd0314c0f7b2291e5b200ac8c7c3b92583604051610ff291906118ec565b60405180910390a3505050565b600061100b8484610cad565b90507fffffffffffffffffffffffffffffffffffffffffffffffffffffffffffffffff81146110855781811015611077576040517f08c379a000000000000000000000000000000000000000000000000000000000815260040161106e90611fe6565b60405180910390fd5b6110848484848403610e34565b5b50505050565b600073ffffffffffffffffffffffffffffffffffffffff168373ffffffffffffffffffffffffffffffffffffffff1614156110fb576040517f08c379a00000000000000000000000000000000000000000000000000000000081526004016110f290612078565b60405180910390fd5b600073ffffffffffffffffffffffffffffffffffffffff168273ffffffffffffffffffffffffffffffffffffffff16141561116b576040517f08c379a00000000000000000000000000000000000000000000000000000000081526004016111629061210a565b60405180910390fd5b611176838383611709565b60008060008573ffffffffffffffffffffffffffffffffffffffff1673ffffffffffffffffffffffffffffffffffffffff168152602001908152602001600020549050818110156111fc576040517f08c379a00000000000000000000000000000000000000000000000000000000081526004016111f39061219c565b60405180910390fd5b8181036000808673ffffffffffffffffffffffffffffffffffffffff1673ffffffffffffffffffffffffffffffffffffffff16815260200190815260200160002081905550816000808573ffffffffffffffffffffffffffffffffffffffff1673ffffffffffffffffffffffffffffffffffffffff168152602001908152602001600020600082825461128f9190611ae5565b925050819055508273ffffffffffffffffffffffffffffffffffffffff168473ffffffffffffffffffffffffffffffffffffffff167fddf252ad1be2c89b69c2b068fc378daa952ba7f163c4a11628f55a4df523b3ef846040516112f391906118ec565b60405180910390a361130684848461170e565b50505050565b600073ffffffffffffffffffffffffffffffffffffffff168273ffffffffffffffffffffffffffffffffffffffff16141561137c576040517f08c379a00000000000000000000000000000000000000000000000000000000081526004016113739061222e565b60405180910390fd5b61138882600083611709565b60008060008473ffffffffffffffffffffffffffffffffffffffff1673ffffffffffffffffffffffffffffffffffffffff1681526020019081526020016000205490508181101561140e576040517f08c379a0000000000000000000000000000000000000000000000000000000008152600401611405906122c0565b60405180910390fd5b8181036000808573ffffffffffffffffffffffffffffffffffffffff1673ffffffffffffffffffffffffffffffffffffffff16815260200190815260200160002081905550816002600082825461146591906122e0565b92505081905550600073ffffffffffffffffffffffffffffffffffffffff168373ffffffffffffffffffffffffffffffffffffffff167fddf252ad1be2c89b69c2b068fc378daa952ba7f163c4a11628f55a4df523b3ef846040516114ca91906118ec565b60405180910390a36114de8360008461170e565b505050565b600073ffffffffffffffffffffffffffffffffffffffff168273ffffffffffffffffffffffffffffffffffffffff161415611553576040517f08c379a000000000000000000000000000000000000000000000000000000000815260040161154a90612360565b60405180910390fd5b61155f60008383611709565b80600260008282546115719190611ae5565b92505081905550806000808473ffffffffffffffffffffffffffffffffffffffff1673ffffffffffffffffffffffffffffffffffffffff16815260200190815260200160002060008282546115c69190611ae5565b925050819055508173ffffffffffffffffffffffffffffffffffffffff16600073ffffffffffffffffffffffffffffffffffffffff167fddf252ad1be2c89b69c2b068fc378daa952ba7f163c4a11628f55a4df523b3ef8360405161162b91906118ec565b60405180910390a361163f6000838361170e565b5050565b6000600560009054906101000a900473ffffffffffffffffffffffffffffffffffffffff16905081600560006101000a81548173ffffffffffffffffffffffffffffffffffffffff021916908373ffffffffffffffffffffffffffffffffffffffff1602179055508173ffffffffffffffffffffffffffffffffffffffff168173ffffffffffffffffffffffffffffffffffffffff167f8be0079c531659141344cd1fd0a4f28419497f9722a3daafe3b4186f6b6457e060405160405180910390a35050565b505050565b505050565b600081519050919050565b600082825260208201905092915050565b60005b8381101561174d578082015181840152602081019050611732565b8381111561175c576000848401525b50505050565b6000601f19601f8301169050919050565b600061177e82611713565b611788818561171e565b935061179881856020860161172f565b6117a181611762565b840191505092915050565b600060208201905081810360008301526117c68184611773565b905092915050565b600080fd5b600073ffffffffffffffffffffffffffffffffffffffff82169050919050565b60006117fe826117d3565b9050919050565b61180e816117f3565b811461181957600080fd5b50565b60008135905061182b81611805565b92915050565b6000819050919050565b61184481611831565b811461184f57600080fd5b50565b6000813590506118618161183b565b92915050565b6000806040838503121561187e5761187d6117ce565b5b600061188c8582860161181c565b925050602061189d85828601611852565b9150509250929050565b60008115159050919050565b6118bc816118a7565b82525050565b60006020820190506118d760008301846118b3565b92915050565b6118e681611831565b82525050565b600060208201905061190160008301846118dd565b92915050565b6000806000606084860312156119205761191f6117ce565b5b600061192e8682870161181c565b935050602061193f8682870161181c565b925050604061195086828701611852565b9150509250925092565b600060ff82169050919050565b6119708161195a565b82525050565b600060208201905061198b6000830184611967565b92915050565b6000602082840312156119a7576119a66117ce565b5b60006119b584828501611852565b91505092915050565b6000602082840312156119d4576119d36117ce565b5b60006119e28482850161181c565b91505092915050565b6119f4816117f3565b82525050565b6000602082019050611a0f60008301846119eb565b92915050565b60008060408385031215611a2c57611a2b6117ce565b5b6000611a3a8582860161181c565b9250506020611a4b8582860161181c565b9150509250929050565b7f4e487b7100000000000000000000000000000000000000000000000000000000600052602260045260246000fd5b60006002820490506001821680611a9c57607f821691505b60208210811415611ab057611aaf611a55565b5b50919050565b7f4e487b7100000000000000000000000000000000000000000000000000000000600052601160045260246000fd5b6000611af082611831565b9150611afb83611831565b9250827fffffffffffffffffffffffffffffffffffffffffffffffffffffffffffffffff03821115611b3057611b2f611ab6565b5b828201905092915050565b7f4f776e61626c653a2063616c6c6572206973206e6f7420746865206f776e6572600082015250565b6000611b7160208361171e565b9150611b7c82611b3b565b602082019050919050565b60006020820190508181036000830152611ba081611b64565b9050919050565b6000604082019050611bbc60008301856119eb565b611bc960208301846118dd565b9392505050565b7f43616c6c6572206973206e6f7420746865204d6f766965466f6c657920436f6e60008201527f7472616374000000000000000000000000000000000000000000000000000000602082015250565b6000611c2c60258361171e565b9150611c3782611bd0565b604082019050919050565b60006020820190508181036000830152611c5b81611c1f565b9050919050565b6000606082019050611c7760008301866119eb565b611c8460208301856119eb565b611c9160408301846118dd565b949350505050565b611ca2816118a7565b8114611cad57600080fd5b50565b600081519050611cbf81611c99565b92915050565b600060208284031215611cdb57611cda6117ce565b5b6000611ce984828501611cb0565b91505092915050565b7f4e487b7100000000000000000000000000000000000000000000000000000000600052601260045260246000fd5b6000611d2c82611831565b9150611d3783611831565b925082611d4757611d46611cf2565b5b828204905092915050565b7f45524332303a2064656372656173656420616c6c6f77616e63652062656c6f7760008201527f207a65726f000000000000000000000000000000000000000000000000000000602082015250565b6000611dae60258361171e565b9150611db982611d52565b604082019050919050565b60006020820190508181036000830152611ddd81611da1565b9050919050565b7f4f776e61626c653a206e6577206f776e657220697320746865207a65726f206160008201527f6464726573730000000000000000000000000000000000000000000000000000602082015250565b6000611e4060268361171e565b9150611e4b82611de4565b604082019050919050565b60006020820190508181036000830152611e6f81611e33565b9050919050565b7f45524332303a20617070726f76652066726f6d20746865207a65726f2061646460008201527f7265737300000000000000000000000000000000000000000000000000000000602082015250565b6000611ed260248361171e565b9150611edd82611e76565b604082019050919050565b60006020820190508181036000830152611f0181611ec5565b9050919050565b7f45524332303a20617070726f766520746f20746865207a65726f20616464726560008201527f7373000000000000000000000000000000000000000000000000000000000000602082015250565b6000611f6460228361171e565b9150611f6f82611f08565b604082019050919050565b60006020820190508181036000830152611f9381611f57565b9050919050565b7f45524332303a20696e73756666696369656e7420616c6c6f77616e6365000000600082015250565b6000611fd0601d8361171e565b9150611fdb82611f9a565b602082019050919050565b60006020820190508181036000830152611fff81611fc3565b9050919050565b7f45524332303a207472616e736665722066726f6d20746865207a65726f20616460008201527f6472657373000000000000000000000000000000000000000000000000000000602082015250565b600061206260258361171e565b915061206d82612006565b604082019050919050565b6000602082019050818103600083015261209181612055565b9050919050565b7f45524332303a207472616e7366657220746f20746865207a65726f206164647260008201527f6573730000000000000000000000000000000000000000000000000000000000602082015250565b60006120f460238361171e565b91506120ff82612098565b604082019050919050565b60006020820190508181036000830152612123816120e7565b9050919050565b7f45524332303a207472616e7366657220616d6f756e742065786365656473206260008201527f616c616e63650000000000000000000000000000000000000000000000000000602082015250565b600061218660268361171e565b91506121918261212a565b604082019050919050565b600060208201905081810360008301526121b581612179565b9050919050565b7f45524332303a206275726e2066726f6d20746865207a65726f2061646472657360008201527f7300000000000000000000000000000000000000000000000000000000000000602082015250565b600061221860218361171e565b9150612223826121bc565b604082019050919050565b600060208201905081810360008301526122478161220b565b9050919050565b7f45524332303a206275726e20616d6f756e7420657863656564732062616c616e60008201527f6365000000000000000000000000000000000000000000000000000000000000602082015250565b60006122aa60228361171e565b91506122b58261224e565b604082019050919050565b600060208201905081810360008301526122d98161229d565b9050919050565b60006122eb82611831565b91506122f683611831565b92508282101561230957612308611ab6565b5b828203905092915050565b7f45524332303a206d696e7420746f20746865207a65726f206164647265737300600082015250565b600061234a601f8361171e565b915061235582612314565b602082019050919050565b600060208201905081810360008301526123798161233d565b905091905056fea2646970667358221220794cb782f4dbbd1163b3d0c670a1ecd48fab0e14836b9ba34bd026d6f1af163f64736f6c634300080b0033",
  "immutableReferences": {},
  "source": "// SPDX-License-Identifier: MIT\npragma solidity >=0.4.22 <0.9.0;\n\nimport \"@openzeppelin/contracts/token/ERC20/ERC20.sol\";\nimport \"@openzeppelin/contracts/access/Ownable.sol\";\nimport \"@openzeppelin/contracts/utils/Context.sol\";\nimport \"./MovieFoley.sol\";\n\n// import \"@openzeppelin/contracts/token/ERC20/utils/SafeERC20.sol\";\n\ncontract Bayram is Context, ERC20, Ownable {\n    string private _name = \"Bayram Token\";\n    string private _symbol = \"BAY\";\n    uint8 private _decimal = 4;\n    uint32 private _treasure = 10000000;\n    uint8 private _preSaleMovyPrice = 1;\n    uint32 private _minMintAmount = 30;\n    uint32 private _maxMintAmount = 120;\n    address public movy;\n\n    event Burned(address addr, uint256 amount);\n    event Minted(address addr, uint256 amount);\n\n    modifier onlyMovy() {\n        require(movy == _msgSender(), \"Caller is not the MovieFoley Contract\");\n        _;\n    }\n\n    constructor(address _movy) ERC20(_name, _symbol) {\n        movy = _movy;\n        mintForTreasure(_treasure);\n    }\n\n    function decimals() public view override returns (uint8) {\n        return _decimal;\n    }\n\n    function burn(uint256 amount) public onlyOwner {\n        _burn(_msgSender(), amount);\n        emit Burned(_msgSender(), amount);\n    }\n\n    function mintForTreasure(uint256 amount) public onlyOwner {\n        _mint(owner(), amount);\n        emit Minted(owner(), amount);\n    }\n\n    function receiveApproval(address sender, uint256 amount) external onlyMovy {\n        MovieFoley mf = MovieFoley(movy);\n        require(mf.transferFrom(sender, address(this), amount));\n        uint256 mintAmount = amount / _preSaleMovyPrice;\n        _mint(sender, mintAmount);\n        emit Minted(sender, mintAmount);\n    }\n\n    function withdrawMovy(uint256 amount) public onlyOwner {\n        MovieFoley mf = MovieFoley(movy);\n        mf.transfer(owner(), amount);\n    }\n}\n",
  "sourcePath": "/home/ismail/blockchain/mf_contracts/contracts/Bayram.sol",
  "compiler": {
    "name": "solc",
    "version": "0.8.11+commit.d7f03943.Emscripten.clang"
  },
  "schemaVersion": "3.4.4",
  "updatedAt": "2022-03-13T17:47:00.792Z",
  "networkType": "ethereum",
  "devdoc": {
    "kind": "dev",
    "methods": {
      "allowance(address,address)": {
        "details": "See {IERC20-allowance}."
      },
      "approve(address,uint256)": {
        "details": "See {IERC20-approve}. NOTE: If `amount` is the maximum `uint256`, the allowance is not updated on `transferFrom`. This is semantically equivalent to an infinite approval. Requirements: - `spender` cannot be the zero address."
      },
      "balanceOf(address)": {
        "details": "See {IERC20-balanceOf}."
      },
      "decimals()": {
        "details": "Returns the number of decimals used to get its user representation. For example, if `decimals` equals `2`, a balance of `505` tokens should be displayed to a user as `5.05` (`505 / 10 ** 2`). Tokens usually opt for a value of 18, imitating the relationship between Ether and Wei. This is the value {ERC20} uses, unless this function is overridden; NOTE: This information is only used for _display_ purposes: it in no way affects any of the arithmetic of the contract, including {IERC20-balanceOf} and {IERC20-transfer}."
      },
      "decreaseAllowance(address,uint256)": {
        "details": "Atomically decreases the allowance granted to `spender` by the caller. This is an alternative to {approve} that can be used as a mitigation for problems described in {IERC20-approve}. Emits an {Approval} event indicating the updated allowance. Requirements: - `spender` cannot be the zero address. - `spender` must have allowance for the caller of at least `subtractedValue`."
      },
      "increaseAllowance(address,uint256)": {
        "details": "Atomically increases the allowance granted to `spender` by the caller. This is an alternative to {approve} that can be used as a mitigation for problems described in {IERC20-approve}. Emits an {Approval} event indicating the updated allowance. Requirements: - `spender` cannot be the zero address."
      },
      "name()": {
        "details": "Returns the name of the token."
      },
      "owner()": {
        "details": "Returns the address of the current owner."
      },
      "renounceOwnership()": {
        "details": "Leaves the contract without owner. It will not be possible to call `onlyOwner` functions anymore. Can only be called by the current owner. NOTE: Renouncing ownership will leave the contract without an owner, thereby removing any functionality that is only available to the owner."
      },
      "symbol()": {
        "details": "Returns the symbol of the token, usually a shorter version of the name."
      },
      "totalSupply()": {
        "details": "See {IERC20-totalSupply}."
      },
      "transfer(address,uint256)": {
        "details": "See {IERC20-transfer}. Requirements: - `to` cannot be the zero address. - the caller must have a balance of at least `amount`."
      },
      "transferFrom(address,address,uint256)": {
        "details": "See {IERC20-transferFrom}. Emits an {Approval} event indicating the updated allowance. This is not required by the EIP. See the note at the beginning of {ERC20}. NOTE: Does not update the allowance if the current allowance is the maximum `uint256`. Requirements: - `from` and `to` cannot be the zero address. - `from` must have a balance of at least `amount`. - the caller must have allowance for ``from``'s tokens of at least `amount`."
      },
      "transferOwnership(address)": {
        "details": "Transfers ownership of the contract to a new account (`newOwner`). Can only be called by the current owner."
      }
    },
    "version": 1
  },
  "userdoc": {
    "kind": "user",
    "methods": {},
    "version": 1
  }
}