{
  "contractName": "Bayram",
  "abi": [
    {
      "inputs": [
        {
          "internalType": "address",
          "name": "_movy",
          "type": "address"
        }
      ],
      "stateMutability": "nonpayable",
      "type": "constructor"
    },
    {
      "anonymous": false,
      "inputs": [
        {
          "indexed": true,
          "internalType": "address",
          "name": "owner",
          "type": "address"
        },
        {
          "indexed": true,
          "internalType": "address",
          "name": "spender",
          "type": "address"
        },
        {
          "indexed": false,
          "internalType": "uint256",
          "name": "value",
          "type": "uint256"
        }
      ],
      "name": "Approval",
      "type": "event"
    },
    {
      "anonymous": false,
      "inputs": [
        {
          "indexed": false,
          "internalType": "address",
          "name": "addr",
          "type": "address"
        },
        {
          "indexed": false,
          "internalType": "uint256",
          "name": "amount",
          "type": "uint256"
        }
      ],
      "name": "Burned",
      "type": "event"
    },
    {
      "anonymous": false,
      "inputs": [
        {
          "indexed": false,
          "internalType": "address",
          "name": "addr",
          "type": "address"
        },
        {
          "indexed": false,
          "internalType": "uint256",
          "name": "amount",
          "type": "uint256"
        },
        {
          "indexed": false,
          "internalType": "uint8",
          "name": "option",
          "type": "uint8"
        }
      ],
      "name": "Minted",
      "type": "event"
    },
    {
      "anonymous": false,
      "inputs": [
        {
          "indexed": true,
          "internalType": "address",
          "name": "previousOwner",
          "type": "address"
        },
        {
          "indexed": true,
          "internalType": "address",
          "name": "newOwner",
          "type": "address"
        }
      ],
      "name": "OwnershipTransferred",
      "type": "event"
    },
    {
      "anonymous": false,
      "inputs": [
        {
          "indexed": false,
          "internalType": "address",
          "name": "account",
          "type": "address"
        }
      ],
      "name": "Paused",
      "type": "event"
    },
    {
      "anonymous": false,
      "inputs": [
        {
          "indexed": true,
          "internalType": "address",
          "name": "from",
          "type": "address"
        },
        {
          "indexed": true,
          "internalType": "address",
          "name": "to",
          "type": "address"
        },
        {
          "indexed": false,
          "internalType": "uint256",
          "name": "value",
          "type": "uint256"
        }
      ],
      "name": "Transfer",
      "type": "event"
    },
    {
      "anonymous": false,
      "inputs": [
        {
          "indexed": false,
          "internalType": "address",
          "name": "account",
          "type": "address"
        }
      ],
      "name": "Unpaused",
      "type": "event"
    },
    {
      "inputs": [],
      "name": "ICO_OPTION_COUNT",
      "outputs": [
        {
          "internalType": "uint8",
          "name": "",
          "type": "uint8"
        }
      ],
      "stateMutability": "view",
      "type": "function",
      "constant": true
    },
    {
      "inputs": [
        {
          "internalType": "address",
          "name": "owner",
          "type": "address"
        },
        {
          "internalType": "address",
          "name": "spender",
          "type": "address"
        }
      ],
      "name": "allowance",
      "outputs": [
        {
          "internalType": "uint256",
          "name": "",
          "type": "uint256"
        }
      ],
      "stateMutability": "view",
      "type": "function",
      "constant": true
    },
    {
      "inputs": [
        {
          "internalType": "address",
          "name": "spender",
          "type": "address"
        },
        {
          "internalType": "uint256",
          "name": "amount",
          "type": "uint256"
        }
      ],
      "name": "approve",
      "outputs": [
        {
          "internalType": "bool",
          "name": "",
          "type": "bool"
        }
      ],
      "stateMutability": "nonpayable",
      "type": "function"
    },
    {
      "inputs": [
        {
          "internalType": "address",
          "name": "account",
          "type": "address"
        }
      ],
      "name": "balanceOf",
      "outputs": [
        {
          "internalType": "uint256",
          "name": "",
          "type": "uint256"
        }
      ],
      "stateMutability": "view",
      "type": "function",
      "constant": true
    },
    {
      "inputs": [
        {
          "internalType": "address",
          "name": "account",
          "type": "address"
        },
        {
          "internalType": "uint8",
          "name": "option",
          "type": "uint8"
        }
      ],
      "name": "balanceOfLocked",
      "outputs": [
        {
          "internalType": "uint256",
          "name": "",
          "type": "uint256"
        }
      ],
      "stateMutability": "view",
      "type": "function",
      "constant": true
    },
    {
      "inputs": [
        {
          "internalType": "address",
          "name": "from",
          "type": "address"
        },
        {
          "internalType": "uint256",
          "name": "amount",
          "type": "uint256"
        }
      ],
      "name": "burn",
      "outputs": [],
      "stateMutability": "nonpayable",
      "type": "function"
    },
    {
      "inputs": [
        {
          "internalType": "uint256",
          "name": "amount",
          "type": "uint256"
        },
        {
          "internalType": "uint8",
          "name": "option",
          "type": "uint8"
        }
      ],
      "name": "buy",
      "outputs": [],
      "stateMutability": "nonpayable",
      "type": "function"
    },
    {
      "inputs": [],
      "name": "decimals",
      "outputs": [
        {
          "internalType": "uint8",
          "name": "",
          "type": "uint8"
        }
      ],
      "stateMutability": "pure",
      "type": "function",
      "constant": true
    },
    {
      "inputs": [
        {
          "internalType": "address",
          "name": "spender",
          "type": "address"
        },
        {
          "internalType": "uint256",
          "name": "subtractedValue",
          "type": "uint256"
        }
      ],
      "name": "decreaseAllowance",
      "outputs": [
        {
          "internalType": "bool",
          "name": "",
          "type": "bool"
        }
      ],
      "stateMutability": "nonpayable",
      "type": "function"
    },
    {
      "inputs": [
        {
          "internalType": "address",
          "name": "spender",
          "type": "address"
        },
        {
          "internalType": "uint256",
          "name": "addedValue",
          "type": "uint256"
        }
      ],
      "name": "increaseAllowance",
      "outputs": [
        {
          "internalType": "bool",
          "name": "",
          "type": "bool"
        }
      ],
      "stateMutability": "nonpayable",
      "type": "function"
    },
    {
      "inputs": [
        {
          "internalType": "uint256",
          "name": "amount",
          "type": "uint256"
        }
      ],
      "name": "mintForTreasure",
      "outputs": [],
      "stateMutability": "nonpayable",
      "type": "function"
    },
    {
      "inputs": [],
      "name": "name",
      "outputs": [
        {
          "internalType": "string",
          "name": "",
          "type": "string"
        }
      ],
      "stateMutability": "view",
      "type": "function",
      "constant": true
    },
    {
      "inputs": [],
      "name": "owner",
      "outputs": [
        {
          "internalType": "address",
          "name": "",
          "type": "address"
        }
      ],
      "stateMutability": "view",
      "type": "function",
      "constant": true
    },
    {
      "inputs": [],
      "name": "pause",
      "outputs": [],
      "stateMutability": "nonpayable",
      "type": "function"
    },
    {
      "inputs": [],
      "name": "paused",
      "outputs": [
        {
          "internalType": "bool",
          "name": "",
          "type": "bool"
        }
      ],
      "stateMutability": "view",
      "type": "function",
      "constant": true
    },
    {
      "inputs": [],
      "name": "paymentToken",
      "outputs": [
        {
          "internalType": "address",
          "name": "",
          "type": "address"
        }
      ],
      "stateMutability": "view",
      "type": "function",
      "constant": true
    },
    {
      "inputs": [],
      "name": "renounceOwnership",
      "outputs": [],
      "stateMutability": "nonpayable",
      "type": "function"
    },
    {
      "inputs": [
        {
          "internalType": "bool",
          "name": "_sale",
          "type": "bool"
        }
      ],
      "name": "setICO",
      "outputs": [],
      "stateMutability": "nonpayable",
      "type": "function"
    },
    {
      "inputs": [],
      "name": "symbol",
      "outputs": [
        {
          "internalType": "string",
          "name": "",
          "type": "string"
        }
      ],
      "stateMutability": "view",
      "type": "function",
      "constant": true
    },
    {
      "inputs": [
        {
          "internalType": "uint8",
          "name": "option",
          "type": "uint8"
        }
      ],
      "name": "totalICOHolder",
      "outputs": [
        {
          "internalType": "uint256",
          "name": "",
          "type": "uint256"
        }
      ],
      "stateMutability": "view",
      "type": "function",
      "constant": true
    },
    {
      "inputs": [
        {
          "internalType": "uint8",
          "name": "option",
          "type": "uint8"
        }
      ],
      "name": "totalMintedICO",
      "outputs": [
        {
          "internalType": "uint256",
          "name": "",
          "type": "uint256"
        }
      ],
      "stateMutability": "view",
      "type": "function",
      "constant": true
    },
    {
      "inputs": [],
      "name": "totalSupply",
      "outputs": [
        {
          "internalType": "uint256",
          "name": "",
          "type": "uint256"
        }
      ],
      "stateMutability": "view",
      "type": "function",
      "constant": true
    },
    {
      "inputs": [
        {
          "internalType": "address",
          "name": "to",
          "type": "address"
        },
        {
          "internalType": "uint256",
          "name": "amount",
          "type": "uint256"
        }
      ],
      "name": "transfer",
      "outputs": [
        {
          "internalType": "bool",
          "name": "",
          "type": "bool"
        }
      ],
      "stateMutability": "nonpayable",
      "type": "function"
    },
    {
      "inputs": [
        {
          "internalType": "address",
          "name": "from",
          "type": "address"
        },
        {
          "internalType": "address",
          "name": "to",
          "type": "address"
        },
        {
          "internalType": "uint256",
          "name": "amount",
          "type": "uint256"
        }
      ],
      "name": "transferFrom",
      "outputs": [
        {
          "internalType": "bool",
          "name": "",
          "type": "bool"
        }
      ],
      "stateMutability": "nonpayable",
      "type": "function"
    },
    {
      "inputs": [
        {
          "internalType": "address",
          "name": "newOwner",
          "type": "address"
        }
      ],
      "name": "transferOwnership",
      "outputs": [],
      "stateMutability": "nonpayable",
      "type": "function"
    },
    {
      "inputs": [
        {
          "internalType": "uint8",
          "name": "option",
          "type": "uint8"
        }
      ],
      "name": "unlockICOBalances",
      "outputs": [],
      "stateMutability": "nonpayable",
      "type": "function"
    },
    {
      "inputs": [],
      "name": "unpause",
      "outputs": [],
      "stateMutability": "nonpayable",
      "type": "function"
    }
  ],
  "bytecode": "0x60806040526001600c60006101000a81548160ff0219169083151502179055503480156200002c57600080fd5b50604051620044f3380380620044f38339818101604052810190620000529190620007ea565b6040518060400160405280600c81526020017f42617972616d20546f6b656e00000000000000000000000000000000000000008152506040518060400160405280600381526020017f4241590000000000000000000000000000000000000000000000000000000000815250600282828160039080519060200190620000da929190620006d0565b508060049080519060200190620000f3929190620006d0565b505050620001166200010a6200035560201b60201c565b6200035d60201b60201c565b6000600560146101000a81548160ff021916908315150217905550600160068190555080600c60016101000a81548160ff021916908360ff16021790555050505080600760006101000a81548173ffffffffffffffffffffffffffffffffffffffff021916908373ffffffffffffffffffffffffffffffffffffffff160217905550620001ac629896806200042360201b60201c565b6040518060e00160405280620186a08152602001620927c08152602001620f424081526020016113888152602001600015158152602001600115158152602001600081525060086000600160ff1681526020019081526020016000206000820151816000015560208201518160010155604082015181600201556060820151816003015560808201518160040160006101000a81548160ff02191690831515021790555060a08201518160040160016101000a81548160ff02191690831515021790555060c082015181600501559050506040518060e00160405280620186a0815260200162030d4081526020016207a12081526020016109c48152602001600115158152602001600015158152602001600081525060086000600260ff1681526020019081526020016000206000820151816000015560208201518160010155604082015181600201556060820151816003015560808201518160040160006101000a81548160ff02191690831515021790555060a08201518160040160016101000a81548160ff02191690831515021790555060c082015181600501559050505062000ae2565b600033905090565b6000600560009054906101000a900473ffffffffffffffffffffffffffffffffffffffff16905081600560006101000a81548173ffffffffffffffffffffffffffffffffffffffff021916908373ffffffffffffffffffffffffffffffffffffffff1602179055508173ffffffffffffffffffffffffffffffffffffffff168173ffffffffffffffffffffffffffffffffffffffff167f8be0079c531659141344cd1fd0a4f28419497f9722a3daafe3b4186f6b6457e060405160405180910390a35050565b620004336200035560201b60201c565b73ffffffffffffffffffffffffffffffffffffffff16620004596200052360201b60201c565b73ffffffffffffffffffffffffffffffffffffffff1614620004b2576040517f08c379a0000000000000000000000000000000000000000000000000000000008152600401620004a9906200087d565b60405180910390fd5b620004d3620004c66200052360201b60201c565b826200054d60201b60201c565b7fdcb23284f3935b5557998e99dcc286e29744c5000723d99eecd5d6f5694f6e11620005046200052360201b60201c565b826000604051620005189392919062000925565b60405180910390a150565b6000600560009054906101000a900473ffffffffffffffffffffffffffffffffffffffff16905090565b600073ffffffffffffffffffffffffffffffffffffffff168273ffffffffffffffffffffffffffffffffffffffff161415620005c0576040517f08c379a0000000000000000000000000000000000000000000000000000000008152600401620005b790620009b2565b60405180910390fd5b620005d460008383620006c660201b60201c565b8060026000828254620005e8919062000a03565b92505081905550806000808473ffffffffffffffffffffffffffffffffffffffff1673ffffffffffffffffffffffffffffffffffffffff16815260200190815260200160002060008282546200063f919062000a03565b925050819055508173ffffffffffffffffffffffffffffffffffffffff16600073ffffffffffffffffffffffffffffffffffffffff167fddf252ad1be2c89b69c2b068fc378daa952ba7f163c4a11628f55a4df523b3ef83604051620006a6919062000a60565b60405180910390a3620006c260008383620006cb60201b60201c565b5050565b505050565b505050565b828054620006de9062000aac565b90600052602060002090601f0160209004810192826200070257600085556200074e565b82601f106200071d57805160ff19168380011785556200074e565b828001600101855582156200074e579182015b828111156200074d57825182559160200191906001019062000730565b5b5090506200075d919062000761565b5090565b5b808211156200077c57600081600090555060010162000762565b5090565b600080fd5b600073ffffffffffffffffffffffffffffffffffffffff82169050919050565b6000620007b28262000785565b9050919050565b620007c481620007a5565b8114620007d057600080fd5b50565b600081519050620007e481620007b9565b92915050565b60006020828403121562000803576200080262000780565b5b60006200081384828501620007d3565b91505092915050565b600082825260208201905092915050565b7f4f776e61626c653a2063616c6c6572206973206e6f7420746865206f776e6572600082015250565b6000620008656020836200081c565b915062000872826200082d565b602082019050919050565b60006020820190508181036000830152620008988162000856565b9050919050565b620008aa81620007a5565b82525050565b6000819050919050565b620008c581620008b0565b82525050565b6000819050919050565b600060ff82169050919050565b6000819050919050565b60006200090d620009076200090184620008cb565b620008e2565b620008d5565b9050919050565b6200091f81620008ec565b82525050565b60006060820190506200093c60008301866200089f565b6200094b6020830185620008ba565b6200095a604083018462000914565b949350505050565b7f45524332303a206d696e7420746f20746865207a65726f206164647265737300600082015250565b60006200099a601f836200081c565b9150620009a78262000962565b602082019050919050565b60006020820190508181036000830152620009cd816200098b565b9050919050565b7f4e487b7100000000000000000000000000000000000000000000000000000000600052601160045260246000fd5b600062000a1082620008b0565b915062000a1d83620008b0565b9250827fffffffffffffffffffffffffffffffffffffffffffffffffffffffffffffffff0382111562000a555762000a54620009d4565b5b828201905092915050565b600060208201905062000a776000830184620008ba565b92915050565b7f4e487b7100000000000000000000000000000000000000000000000000000000600052602260045260246000fd5b6000600282049050600182168062000ac557607f821691505b6020821081141562000adc5762000adb62000a7d565b5b50919050565b613a018062000af26000396000f3fe608060405234801561001057600080fd5b50600436106101a95760003560e01c80638456cb59116100f9578063b8d404eb11610097578063e200abb211610071578063e200abb2146104d2578063e90bc7b1146104f0578063ed9beb051461050c578063f2fde38b14610528576101a9565b8063b8d404eb14610456578063db649a0d14610472578063dd62ed3e146104a2576101a9565b80639dc29fac116100d35780639dc29fac146103aa578063a457c2d7146103c6578063a9059cbb146103f6578063a9ab328814610426576101a9565b80638456cb59146103645780638da5cb5b1461036e57806395d89b411461038c576101a9565b8063313ce567116101665780635c975abb116101405780635c975abb146102dc57806370a08231146102fa578063715018a61461032a57806380ba454b14610334576101a9565b8063313ce5671461028457806339509351146102a25780633f4ba83a146102d2576101a9565b806306fdde03146101ae578063095ea7b3146101cc578063147cd098146101fc57806318160ddd1461021857806323b872dd146102365780633013ce2914610266575b600080fd5b6101b6610544565b6040516101c3919061276a565b60405180910390f35b6101e660048036038101906101e19190612825565b6105d6565b6040516101f39190612880565b60405180910390f35b610216600480360381019061021191906128d4565b610632565b005b61022061094f565b60405161022d9190612910565b60405180910390f35b610250600480360381019061024b919061292b565b610959565b60405161025d9190612880565b60405180910390f35b61026e6109b7565b60405161027b919061298d565b60405180910390f35b61028c6109dd565b60405161029991906129b7565b60405180910390f35b6102bc60048036038101906102b79190612825565b6109e6565b6040516102c99190612880565b60405180910390f35b6102da610a90565b005b6102e4610b5d565b6040516102f19190612880565b60405180910390f35b610314600480360381019061030f91906129d2565b610b74565b6040516103219190612910565b60405180910390f35b610332610c89565b005b61034e600480360381019061034991906129ff565b610d11565b60405161035b9190612910565b60405180910390f35b61036c610e13565b005b610376610ee1565b604051610383919061298d565b60405180910390f35b610394610f0b565b6040516103a1919061276a565b60405180910390f35b6103c460048036038101906103bf9190612825565b610f9d565b005b6103e060048036038101906103db9190612825565b611060565b6040516103ed9190612880565b60405180910390f35b610410600480360381019061040b9190612825565b61114a565b60405161041d9190612880565b60405180910390f35b610440600480360381019061043b91906128d4565b6111a6565b60405161044d9190612910565b60405180910390f35b610470600480360381019061046b9190612a3f565b611236565b005b61048c600480360381019061048791906128d4565b611309565b6040516104999190612910565b60405180910390f35b6104bc60048036038101906104b79190612a6c565b611396565b6040516104c99190612910565b60405180910390f35b6104da61141d565b6040516104e791906129b7565b60405180910390f35b61050a60048036038101906105059190612aac565b611430565b005b61052660048036038101906105219190612b18565b611a57565b005b610542600480360381019061053d91906129d2565b611af0565b005b60606003805461055390612b74565b80601f016020809104026020016040519081016040528092919081815260200182805461057f90612b74565b80156105cc5780601f106105a1576101008083540402835291602001916105cc565b820191906000526020600020905b8154815290600101906020018083116105af57829003601f168201915b5050505050905090565b60006105e0610b5d565b15610620576040517f08c379a000000000000000000000000000000000000000000000000000000000815260040161061790612bf2565b60405180910390fd5b61062a8383611be8565b905092915050565b61063a611c0b565b73ffffffffffffffffffffffffffffffffffffffff16610658610ee1565b73ffffffffffffffffffffffffffffffffffffffff16146106ae576040517f08c379a00000000000000000000000000000000000000000000000000000000081526004016106a590612c5e565b60405180910390fd5b808060ff166001111580156106d85750600c60019054906101000a900460ff1660ff168160ff1611155b610717576040517f08c379a000000000000000000000000000000000000000000000000000000000815260040161070e90612cca565b60405180910390fd5b600860008360ff1660ff16815260200190815260200160002060040160009054906101000a900460ff16610780576040517f08c379a000000000000000000000000000000000000000000000000000000000815260040161077790612cca565b60405180910390fd5b600860008360ff1660ff16815260200190815260200160002060040160019054906101000a900460ff16156107ea576040517f08c379a00000000000000000000000000000000000000000000000000000000081526004016107e190612d5c565b60405180910390fd5b60005b600960008460ff1660ff1681526020019081526020016000205481101561091557610902600b60008560ff1660ff168152602001908152602001600020600083815260200190815260200160002060009054906101000a900473ffffffffffffffffffffffffffffffffffffffff16600a60008660ff1660ff1681526020019081526020016000206000600b60008860ff1660ff168152602001908152602001600020600086815260200190815260200160002060009054906101000a900473ffffffffffffffffffffffffffffffffffffffff1673ffffffffffffffffffffffffffffffffffffffff1673ffffffffffffffffffffffffffffffffffffffff16815260200190815260200160002054611c13565b808061090d90612dab565b9150506107ed565b506001600860008460ff1660ff16815260200190815260200160002060040160016101000a81548160ff0219169083151502179055505050565b6000600254905090565b6000610963610b5d565b156109a3576040517f08c379a000000000000000000000000000000000000000000000000000000000815260040161099a90612bf2565b60405180910390fd5b6109ae848484611d73565b90509392505050565b600760009054906101000a900473ffffffffffffffffffffffffffffffffffffffff1681565b60006004905090565b6000806109f1611c0b565b9050610a85818585600160008673ffffffffffffffffffffffffffffffffffffffff1673ffffffffffffffffffffffffffffffffffffffff16815260200190815260200160002060008973ffffffffffffffffffffffffffffffffffffffff1673ffffffffffffffffffffffffffffffffffffffff16815260200190815260200160002054610a809190612df4565b611da2565b600191505092915050565b610a98610b5d565b610ad7576040517f08c379a0000000000000000000000000000000000000000000000000000000008152600401610ace90612e96565b60405180910390fd5b610adf611c0b565b73ffffffffffffffffffffffffffffffffffffffff16610afd610ee1565b73ffffffffffffffffffffffffffffffffffffffff1614610b53576040517f08c379a0000000000000000000000000000000000000000000000000000000008152600401610b4a90612c5e565b60405180910390fd5b610b5b611f6d565b565b6000600560149054906101000a900460ff16905090565b600080610b808361200f565b90506000600190505b600c60019054906101000a900460ff1660ff168160ff1611610c7f57600860008260ff1660ff16815260200190815260200160002060040160009054906101000a900460ff168015610c025750600860008260ff1660ff16815260200190815260200160002060040160019054906101000a900460ff16155b15610c6c57600a60008260ff1660ff16815260200190815260200160002060008573ffffffffffffffffffffffffffffffffffffffff1673ffffffffffffffffffffffffffffffffffffffff1681526020019081526020016000205482610c699190612df4565b91505b8080610c7790612eb6565b915050610b89565b5080915050919050565b610c91611c0b565b73ffffffffffffffffffffffffffffffffffffffff16610caf610ee1565b73ffffffffffffffffffffffffffffffffffffffff1614610d05576040517f08c379a0000000000000000000000000000000000000000000000000000000008152600401610cfc90612c5e565b60405180910390fd5b610d0f6000612057565b565b60008160ff16600111158015610d3c5750600c60019054906101000a900460ff1660ff168260ff1611155b610d7b576040517f08c379a0000000000000000000000000000000000000000000000000000000008152600401610d7290612cca565b60405180910390fd5b600860008360ff1660ff16815260200190815260200160002060040160019054906101000a900460ff1615610db35760009050610e0d565b600a60008360ff1660ff16815260200190815260200160002060008473ffffffffffffffffffffffffffffffffffffffff1673ffffffffffffffffffffffffffffffffffffffff1681526020019081526020016000205490505b92915050565b610e1b610b5d565b15610e5b576040517f08c379a0000000000000000000000000000000000000000000000000000000008152600401610e5290612bf2565b60405180910390fd5b610e63611c0b565b73ffffffffffffffffffffffffffffffffffffffff16610e81610ee1565b73ffffffffffffffffffffffffffffffffffffffff1614610ed7576040517f08c379a0000000000000000000000000000000000000000000000000000000008152600401610ece90612c5e565b60405180910390fd5b610edf61211d565b565b6000600560009054906101000a900473ffffffffffffffffffffffffffffffffffffffff16905090565b606060048054610f1a90612b74565b80601f0160208091040260200160405190810160405280929190818152602001828054610f4690612b74565b8015610f935780601f10610f6857610100808354040283529160200191610f93565b820191906000526020600020905b815481529060010190602001808311610f7657829003601f168201915b5050505050905090565b610fa5611c0b565b73ffffffffffffffffffffffffffffffffffffffff16610fc3610ee1565b73ffffffffffffffffffffffffffffffffffffffff1614611019576040517f08c379a000000000000000000000000000000000000000000000000000000000815260040161101090612c5e565b60405180910390fd5b61102382826121c0565b7f696de425f79f4a40bc6d2122ca50507f0efbeabbff86a84871b7196ab8ea8df78282604051611054929190612ee0565b60405180910390a15050565b60008061106b611c0b565b90506000600160008373ffffffffffffffffffffffffffffffffffffffff1673ffffffffffffffffffffffffffffffffffffffff16815260200190815260200160002060008673ffffffffffffffffffffffffffffffffffffffff1673ffffffffffffffffffffffffffffffffffffffff16815260200190815260200160002054905083811015611131576040517f08c379a000000000000000000000000000000000000000000000000000000000815260040161112890612f7b565b60405180910390fd5b61113e8286868403611da2565b60019250505092915050565b6000611154610b5d565b15611194576040517f08c379a000000000000000000000000000000000000000000000000000000000815260040161118b90612bf2565b60405180910390fd5b61119e8383612397565b905092915050565b6000818060ff166001111580156111d25750600c60019054906101000a900460ff1660ff168160ff1611155b611211576040517f08c379a000000000000000000000000000000000000000000000000000000000815260040161120890612cca565b60405180910390fd5b600860008460ff1660ff16815260200190815260200160002060050154915050919050565b61123e611c0b565b73ffffffffffffffffffffffffffffffffffffffff1661125c610ee1565b73ffffffffffffffffffffffffffffffffffffffff16146112b2576040517f08c379a00000000000000000000000000000000000000000000000000000000081526004016112a990612c5e565b60405180910390fd5b6112c36112bd610ee1565b82611c13565b7fdcb23284f3935b5557998e99dcc286e29744c5000723d99eecd5d6f5694f6e116112ec610ee1565b8260006040516112fe93929190612fe0565b60405180910390a150565b6000818060ff166001111580156113355750600c60019054906101000a900460ff1660ff168160ff1611155b611374576040517f08c379a000000000000000000000000000000000000000000000000000000000815260040161136b90612cca565b60405180910390fd5b600960008460ff1660ff16815260200190815260200160002054915050919050565b6000600160008473ffffffffffffffffffffffffffffffffffffffff1673ffffffffffffffffffffffffffffffffffffffff16815260200190815260200160002060008373ffffffffffffffffffffffffffffffffffffffff1673ffffffffffffffffffffffffffffffffffffffff16815260200190815260200160002054905092915050565b600c60019054906101000a900460ff1681565b60026006541415611476576040517f08c379a000000000000000000000000000000000000000000000000000000000815260040161146d90613063565b60405180910390fd5b6002600681905550808060ff166001111580156114a85750600c60019054906101000a900460ff1660ff168160ff1611155b6114e7576040517f08c379a00000000000000000000000000000000000000000000000000000000081526004016114de90612cca565b60405180910390fd5b60006114f1611c0b565b9050600c60009054906101000a900460ff16611542576040517f08c379a0000000000000000000000000000000000000000000000000000000008152600401611539906130cf565b60405180910390fd5b83600860008560ff1660ff1681526020019081526020016000206000015411156115a1576040517f08c379a00000000000000000000000000000000000000000000000000000000081526004016115989061313b565b60405180910390fd5b83600860008560ff1660ff168152602001908152602001600020600101541015611600576040517f08c379a00000000000000000000000000000000000000000000000000000000081526004016115f7906131a7565b60405180910390fd5b600860008460ff1660ff1681526020019081526020016000206002015484600860008660ff1660ff168152602001908152602001600020600501546116459190612df4565b1115611686576040517f08c379a000000000000000000000000000000000000000000000000000000000815260040161167d90613213565b60405180910390fd5b600860008460ff1660ff1681526020019081526020016000206001015484600a60008660ff1660ff16815260200190815260200160002060008473ffffffffffffffffffffffffffffffffffffffff1673ffffffffffffffffffffffffffffffffffffffff168152602001908152602001600020546117059190612df4565b1115611746576040517f08c379a000000000000000000000000000000000000000000000000000000000815260040161173d906132a5565b60405180910390fd5b600760009054906101000a900473ffffffffffffffffffffffffffffffffffffffff1673ffffffffffffffffffffffffffffffffffffffff166323b872dd8261178d610ee1565b612710600860008960ff1660ff16815260200190815260200160002060030154896117b891906132c5565b6117c2919061334e565b6040518463ffffffff1660e01b81526004016117e09392919061337f565b6020604051808303816000875af11580156117ff573d6000803e3d6000fd5b505050506040513d601f19601f8201168201806040525081019061182391906133cb565b50600860008460ff1660ff16815260200190815260200160002060040160009054906101000a900460ff1661185d5761185c8185611c13565b5b83600860008560ff1660ff16815260200190815260200160002060050160008282546118899190612df4565b925050819055506000600a60008560ff1660ff16815260200190815260200160002060008373ffffffffffffffffffffffffffffffffffffffff1673ffffffffffffffffffffffffffffffffffffffff1681526020019081526020016000205414156119a15780600b60008560ff1660ff1681526020019081526020016000206000600960008760ff1660ff16815260200190815260200160002054815260200190815260200160002060006101000a81548173ffffffffffffffffffffffffffffffffffffffff021916908373ffffffffffffffffffffffffffffffffffffffff160217905550600960008460ff1660ff168152602001908152602001600020600081548092919061199b90612dab565b91905055505b83600a60008560ff1660ff16815260200190815260200160002060008373ffffffffffffffffffffffffffffffffffffffff1673ffffffffffffffffffffffffffffffffffffffff1681526020019081526020016000206000828254611a079190612df4565b925050819055507fdcb23284f3935b5557998e99dcc286e29744c5000723d99eecd5d6f5694f6e11818585604051611a41939291906133f8565b60405180910390a1505060016006819055505050565b611a5f611c0b565b73ffffffffffffffffffffffffffffffffffffffff16611a7d610ee1565b73ffffffffffffffffffffffffffffffffffffffff1614611ad3576040517f08c379a0000000000000000000000000000000000000000000000000000000008152600401611aca90612c5e565b60405180910390fd5b80600c60006101000a81548160ff02191690831515021790555050565b611af8611c0b565b73ffffffffffffffffffffffffffffffffffffffff16611b16610ee1565b73ffffffffffffffffffffffffffffffffffffffff1614611b6c576040517f08c379a0000000000000000000000000000000000000000000000000000000008152600401611b6390612c5e565b60405180910390fd5b600073ffffffffffffffffffffffffffffffffffffffff168173ffffffffffffffffffffffffffffffffffffffff161415611bdc576040517f08c379a0000000000000000000000000000000000000000000000000000000008152600401611bd3906134a1565b60405180910390fd5b611be581612057565b50565b600080611bf3611c0b565b9050611c00818585611da2565b600191505092915050565b600033905090565b600073ffffffffffffffffffffffffffffffffffffffff168273ffffffffffffffffffffffffffffffffffffffff161415611c83576040517f08c379a0000000000000000000000000000000000000000000000000000000008152600401611c7a9061350d565b60405180910390fd5b611c8f600083836123ba565b8060026000828254611ca19190612df4565b92505081905550806000808473ffffffffffffffffffffffffffffffffffffffff1673ffffffffffffffffffffffffffffffffffffffff1681526020019081526020016000206000828254611cf69190612df4565b925050819055508173ffffffffffffffffffffffffffffffffffffffff16600073ffffffffffffffffffffffffffffffffffffffff167fddf252ad1be2c89b69c2b068fc378daa952ba7f163c4a11628f55a4df523b3ef83604051611d5b9190612910565b60405180910390a3611d6f600083836123bf565b5050565b600080611d7e611c0b565b9050611d8b8582856123c4565b611d96858585612450565b60019150509392505050565b600073ffffffffffffffffffffffffffffffffffffffff168373ffffffffffffffffffffffffffffffffffffffff161415611e12576040517f08c379a0000000000000000000000000000000000000000000000000000000008152600401611e099061359f565b60405180910390fd5b600073ffffffffffffffffffffffffffffffffffffffff168273ffffffffffffffffffffffffffffffffffffffff161415611e82576040517f08c379a0000000000000000000000000000000000000000000000000000000008152600401611e7990613631565b60405180910390fd5b80600160008573ffffffffffffffffffffffffffffffffffffffff1673ffffffffffffffffffffffffffffffffffffffff16815260200190815260200160002060008473ffffffffffffffffffffffffffffffffffffffff1673ffffffffffffffffffffffffffffffffffffffff168152602001908152602001600020819055508173ffffffffffffffffffffffffffffffffffffffff168373ffffffffffffffffffffffffffffffffffffffff167f8c5be1e5ebec7d5bd14f71427d1e84f3dd0314c0f7b2291e5b200ac8c7c3b92583604051611f609190612910565b60405180910390a3505050565b611f75610b5d565b611fb4576040517f08c379a0000000000000000000000000000000000000000000000000000000008152600401611fab90612e96565b60405180910390fd5b6000600560146101000a81548160ff0219169083151502179055507f5db9ee0a495bf2e6ff9c91a7834c1ba4fdd244a5e8aa4e537bd38aeae4b073aa611ff8611c0b565b604051612005919061298d565b60405180910390a1565b60008060008373ffffffffffffffffffffffffffffffffffffffff1673ffffffffffffffffffffffffffffffffffffffff168152602001908152602001600020549050919050565b6000600560009054906101000a900473ffffffffffffffffffffffffffffffffffffffff16905081600560006101000a81548173ffffffffffffffffffffffffffffffffffffffff021916908373ffffffffffffffffffffffffffffffffffffffff1602179055508173ffffffffffffffffffffffffffffffffffffffff168173ffffffffffffffffffffffffffffffffffffffff167f8be0079c531659141344cd1fd0a4f28419497f9722a3daafe3b4186f6b6457e060405160405180910390a35050565b612125610b5d565b15612165576040517f08c379a000000000000000000000000000000000000000000000000000000000815260040161215c90612bf2565b60405180910390fd5b6001600560146101000a81548160ff0219169083151502179055507f62e78cea01bee320cd4e420270b5ea74000d11b0c9f74754ebdbfc544b05a2586121a9611c0b565b6040516121b6919061298d565b60405180910390a1565b600073ffffffffffffffffffffffffffffffffffffffff168273ffffffffffffffffffffffffffffffffffffffff161415612230576040517f08c379a0000000000000000000000000000000000000000000000000000000008152600401612227906136c3565b60405180910390fd5b61223c826000836123ba565b60008060008473ffffffffffffffffffffffffffffffffffffffff1673ffffffffffffffffffffffffffffffffffffffff168152602001908152602001600020549050818110156122c2576040517f08c379a00000000000000000000000000000000000000000000000000000000081526004016122b990613755565b60405180910390fd5b8181036000808573ffffffffffffffffffffffffffffffffffffffff1673ffffffffffffffffffffffffffffffffffffffff1681526020019081526020016000208190555081600260008282546123199190613775565b92505081905550600073ffffffffffffffffffffffffffffffffffffffff168373ffffffffffffffffffffffffffffffffffffffff167fddf252ad1be2c89b69c2b068fc378daa952ba7f163c4a11628f55a4df523b3ef8460405161237e9190612910565b60405180910390a3612392836000846123bf565b505050565b6000806123a2611c0b565b90506123af818585612450565b600191505092915050565b505050565b505050565b60006123d08484611396565b90507fffffffffffffffffffffffffffffffffffffffffffffffffffffffffffffffff811461244a578181101561243c576040517f08c379a0000000000000000000000000000000000000000000000000000000008152600401612433906137f5565b60405180910390fd5b6124498484848403611da2565b5b50505050565b600073ffffffffffffffffffffffffffffffffffffffff168373ffffffffffffffffffffffffffffffffffffffff1614156124c0576040517f08c379a00000000000000000000000000000000000000000000000000000000081526004016124b790613887565b60405180910390fd5b600073ffffffffffffffffffffffffffffffffffffffff168273ffffffffffffffffffffffffffffffffffffffff161415612530576040517f08c379a000000000000000000000000000000000000000000000000000000000815260040161252790613919565b60405180910390fd5b61253b8383836123ba565b60008060008573ffffffffffffffffffffffffffffffffffffffff1673ffffffffffffffffffffffffffffffffffffffff168152602001908152602001600020549050818110156125c1576040517f08c379a00000000000000000000000000000000000000000000000000000000081526004016125b8906139ab565b60405180910390fd5b8181036000808673ffffffffffffffffffffffffffffffffffffffff1673ffffffffffffffffffffffffffffffffffffffff16815260200190815260200160002081905550816000808573ffffffffffffffffffffffffffffffffffffffff1673ffffffffffffffffffffffffffffffffffffffff16815260200190815260200160002060008282546126549190612df4565b925050819055508273ffffffffffffffffffffffffffffffffffffffff168473ffffffffffffffffffffffffffffffffffffffff167fddf252ad1be2c89b69c2b068fc378daa952ba7f163c4a11628f55a4df523b3ef846040516126b89190612910565b60405180910390a36126cb8484846123bf565b50505050565b600081519050919050565b600082825260208201905092915050565b60005b8381101561270b5780820151818401526020810190506126f0565b8381111561271a576000848401525b50505050565b6000601f19601f8301169050919050565b600061273c826126d1565b61274681856126dc565b93506127568185602086016126ed565b61275f81612720565b840191505092915050565b600060208201905081810360008301526127848184612731565b905092915050565b600080fd5b600073ffffffffffffffffffffffffffffffffffffffff82169050919050565b60006127bc82612791565b9050919050565b6127cc816127b1565b81146127d757600080fd5b50565b6000813590506127e9816127c3565b92915050565b6000819050919050565b612802816127ef565b811461280d57600080fd5b50565b60008135905061281f816127f9565b92915050565b6000806040838503121561283c5761283b61278c565b5b600061284a858286016127da565b925050602061285b85828601612810565b9150509250929050565b60008115159050919050565b61287a81612865565b82525050565b60006020820190506128956000830184612871565b92915050565b600060ff82169050919050565b6128b18161289b565b81146128bc57600080fd5b50565b6000813590506128ce816128a8565b92915050565b6000602082840312156128ea576128e961278c565b5b60006128f8848285016128bf565b91505092915050565b61290a816127ef565b82525050565b60006020820190506129256000830184612901565b92915050565b6000806000606084860312156129445761294361278c565b5b6000612952868287016127da565b9350506020612963868287016127da565b925050604061297486828701612810565b9150509250925092565b612987816127b1565b82525050565b60006020820190506129a2600083018461297e565b92915050565b6129b18161289b565b82525050565b60006020820190506129cc60008301846129a8565b92915050565b6000602082840312156129e8576129e761278c565b5b60006129f6848285016127da565b91505092915050565b60008060408385031215612a1657612a1561278c565b5b6000612a24858286016127da565b9250506020612a35858286016128bf565b9150509250929050565b600060208284031215612a5557612a5461278c565b5b6000612a6384828501612810565b91505092915050565b60008060408385031215612a8357612a8261278c565b5b6000612a91858286016127da565b9250506020612aa2858286016127da565b9150509250929050565b60008060408385031215612ac357612ac261278c565b5b6000612ad185828601612810565b9250506020612ae2858286016128bf565b9150509250929050565b612af581612865565b8114612b0057600080fd5b50565b600081359050612b1281612aec565b92915050565b600060208284031215612b2e57612b2d61278c565b5b6000612b3c84828501612b03565b91505092915050565b7f4e487b7100000000000000000000000000000000000000000000000000000000600052602260045260246000fd5b60006002820490506001821680612b8c57607f821691505b60208210811415612ba057612b9f612b45565b5b50919050565b7f5061757361626c653a2070617573656400000000000000000000000000000000600082015250565b6000612bdc6010836126dc565b9150612be782612ba6565b602082019050919050565b60006020820190508181036000830152612c0b81612bcf565b9050919050565b7f4f776e61626c653a2063616c6c6572206973206e6f7420746865206f776e6572600082015250565b6000612c486020836126dc565b9150612c5382612c12565b602082019050919050565b60006020820190508181036000830152612c7781612c3b565b9050919050565b7f49434f206f7074696f6e206973206e6f742076616c69642e0000000000000000600082015250565b6000612cb46018836126dc565b9150612cbf82612c7e565b602082019050919050565b60006020820190508181036000830152612ce381612ca7565b9050919050565b7f49434f20616d6f756e74732068617665206265656e20616c726561647920756e60008201527f6c6f636b65642100000000000000000000000000000000000000000000000000602082015250565b6000612d466027836126dc565b9150612d5182612cea565b604082019050919050565b60006020820190508181036000830152612d7581612d39565b9050919050565b7f4e487b7100000000000000000000000000000000000000000000000000000000600052601160045260246000fd5b6000612db6826127ef565b91507fffffffffffffffffffffffffffffffffffffffffffffffffffffffffffffffff821415612de957612de8612d7c565b5b600182019050919050565b6000612dff826127ef565b9150612e0a836127ef565b9250827fffffffffffffffffffffffffffffffffffffffffffffffffffffffffffffffff03821115612e3f57612e3e612d7c565b5b828201905092915050565b7f5061757361626c653a206e6f7420706175736564000000000000000000000000600082015250565b6000612e806014836126dc565b9150612e8b82612e4a565b602082019050919050565b60006020820190508181036000830152612eaf81612e73565b9050919050565b6000612ec18261289b565b915060ff821415612ed557612ed4612d7c565b5b600182019050919050565b6000604082019050612ef5600083018561297e565b612f026020830184612901565b9392505050565b7f45524332303a2064656372656173656420616c6c6f77616e63652062656c6f7760008201527f207a65726f000000000000000000000000000000000000000000000000000000602082015250565b6000612f656025836126dc565b9150612f7082612f09565b604082019050919050565b60006020820190508181036000830152612f9481612f58565b9050919050565b6000819050919050565b6000819050919050565b6000612fca612fc5612fc084612f9b565b612fa5565b61289b565b9050919050565b612fda81612faf565b82525050565b6000606082019050612ff5600083018661297e565b6130026020830185612901565b61300f6040830184612fd1565b949350505050565b7f5265656e7472616e637947756172643a207265656e7472616e742063616c6c00600082015250565b600061304d601f836126dc565b915061305882613017565b602082019050919050565b6000602082019050818103600083015261307c81613040565b9050919050565b7f49434f206973206f766572000000000000000000000000000000000000000000600082015250565b60006130b9600b836126dc565b91506130c482613083565b602082019050919050565b600060208201905081810360008301526130e8816130ac565b9050919050565b7f4d696e696d756d20616d6f756e74206e6f742065786365656465640000000000600082015250565b6000613125601b836126dc565b9150613130826130ef565b602082019050919050565b6000602082019050818103600083015261315481613118565b9050919050565b7f4d6178696d756d20616d6f756e74206578636565646564000000000000000000600082015250565b60006131916017836126dc565b915061319c8261315b565b602082019050919050565b600060208201905081810360008301526131c081613184565b9050919050565b7f4d6178696d756d2049434f20737570706c792065786365656465640000000000600082015250565b60006131fd601b836126dc565b9150613208826131c7565b602082019050919050565b6000602082019050818103600083015261322c816131f0565b9050919050565b7f4d6178696d756d2049434f20737570706c7920706572206163636f756e74206560008201527f7863656564656400000000000000000000000000000000000000000000000000602082015250565b600061328f6027836126dc565b915061329a82613233565b604082019050919050565b600060208201905081810360008301526132be81613282565b9050919050565b60006132d0826127ef565b91506132db836127ef565b9250817fffffffffffffffffffffffffffffffffffffffffffffffffffffffffffffffff048311821515161561331457613313612d7c565b5b828202905092915050565b7f4e487b7100000000000000000000000000000000000000000000000000000000600052601260045260246000fd5b6000613359826127ef565b9150613364836127ef565b9250826133745761337361331f565b5b828204905092915050565b6000606082019050613394600083018661297e565b6133a1602083018561297e565b6133ae6040830184612901565b949350505050565b6000815190506133c581612aec565b92915050565b6000602082840312156133e1576133e061278c565b5b60006133ef848285016133b6565b91505092915050565b600060608201905061340d600083018661297e565b61341a6020830185612901565b61342760408301846129a8565b949350505050565b7f4f776e61626c653a206e6577206f776e657220697320746865207a65726f206160008201527f6464726573730000000000000000000000000000000000000000000000000000602082015250565b600061348b6026836126dc565b91506134968261342f565b604082019050919050565b600060208201905081810360008301526134ba8161347e565b9050919050565b7f45524332303a206d696e7420746f20746865207a65726f206164647265737300600082015250565b60006134f7601f836126dc565b9150613502826134c1565b602082019050919050565b60006020820190508181036000830152613526816134ea565b9050919050565b7f45524332303a20617070726f76652066726f6d20746865207a65726f2061646460008201527f7265737300000000000000000000000000000000000000000000000000000000602082015250565b60006135896024836126dc565b91506135948261352d565b604082019050919050565b600060208201905081810360008301526135b88161357c565b9050919050565b7f45524332303a20617070726f766520746f20746865207a65726f20616464726560008201527f7373000000000000000000000000000000000000000000000000000000000000602082015250565b600061361b6022836126dc565b9150613626826135bf565b604082019050919050565b6000602082019050818103600083015261364a8161360e565b9050919050565b7f45524332303a206275726e2066726f6d20746865207a65726f2061646472657360008201527f7300000000000000000000000000000000000000000000000000000000000000602082015250565b60006136ad6021836126dc565b91506136b882613651565b604082019050919050565b600060208201905081810360008301526136dc816136a0565b9050919050565b7f45524332303a206275726e20616d6f756e7420657863656564732062616c616e60008201527f6365000000000000000000000000000000000000000000000000000000000000602082015250565b600061373f6022836126dc565b915061374a826136e3565b604082019050919050565b6000602082019050818103600083015261376e81613732565b9050919050565b6000613780826127ef565b915061378b836127ef565b92508282101561379e5761379d612d7c565b5b828203905092915050565b7f45524332303a20696e73756666696369656e7420616c6c6f77616e6365000000600082015250565b60006137df601d836126dc565b91506137ea826137a9565b602082019050919050565b6000602082019050818103600083015261380e816137d2565b9050919050565b7f45524332303a207472616e736665722066726f6d20746865207a65726f20616460008201527f6472657373000000000000000000000000000000000000000000000000000000602082015250565b60006138716025836126dc565b915061387c82613815565b604082019050919050565b600060208201905081810360008301526138a081613864565b9050919050565b7f45524332303a207472616e7366657220746f20746865207a65726f206164647260008201527f6573730000000000000000000000000000000000000000000000000000000000602082015250565b60006139036023836126dc565b915061390e826138a7565b604082019050919050565b60006020820190508181036000830152613932816138f6565b9050919050565b7f45524332303a207472616e7366657220616d6f756e742065786365656473206260008201527f616c616e63650000000000000000000000000000000000000000000000000000602082015250565b60006139956026836126dc565b91506139a082613939565b604082019050919050565b600060208201905081810360008301526139c481613988565b905091905056fea26469706673582212201a1819bae18c5660219e0eeb1f6cabcc49b4237ace7dc781e46d629c079bd31064736f6c634300080c0033",
  "immutableReferences": {},
  "source": "// SPDX-License-Identifier: MIT\npragma solidity =0.8.12;\n\nimport \"./MovyBase.sol\";\n\n// DUMMY TOKEN\n\ncontract Bayram is MovyBase {\n    constructor(address _movy) MovyBase(\"Bayram Token\", \"BAY\", 2) {\n        paymentToken = _movy;\n        mintForTreasure(10000000); // 1000\n        ICO_OPTIONS[1] = ICOOption({\n            minMint: 100000, // 30\n            maxMint: 600000, // 60\n            limit: 1000000, // 100\n            price: 5000, // 0.5 MOVY\n            isLocked: false,\n            isAmountUnlocked: true,\n            totalMinted: 0\n        });\n        ICO_OPTIONS[2] = ICOOption({\n            minMint: 100000, // 10\n            maxMint: 200000, // 20\n            limit: 500000, // 50\n            price: 2500, // 0.25 MOVY\n            isLocked: true,\n            isAmountUnlocked: false,\n            totalMinted: 0\n        });\n    }\n}\n",
  "sourcePath": "/home/ismail/blockchain/mf_contracts/contracts/Bayram.sol",
  "compiler": {
    "name": "solc",
    "version": "0.8.12+commit.f00d7308.Emscripten.clang"
  },
  "schemaVersion": "3.4.4",
  "updatedAt": "2022-03-19T18:05:26.603Z",
  "networkType": "ethereum",
  "devdoc": {
    "kind": "dev",
    "methods": {
      "allowance(address,address)": {
        "details": "See {IERC20-allowance}."
      },
      "approve(address,uint256)": {
        "details": "See {IERC20-approve}. NOTE: If `amount` is the maximum `uint256`, the allowance is not updated on `transferFrom`. This is semantically equivalent to an infinite approval. Requirements: - `spender` cannot be the zero address."
      },
      "balanceOf(address)": {
        "details": "See {IERC20-balanceOf}."
      },
      "decimals()": {
        "details": "Returns the number of decimals used to get its user representation. For example, if `decimals` equals `2`, a balance of `505` tokens should be displayed to a user as `5.05` (`505 / 10 ** 2`). Tokens usually opt for a value of 18, imitating the relationship between Ether and Wei. This is the value {ERC20} uses, unless this function is overridden; NOTE: This information is only used for _display_ purposes: it in no way affects any of the arithmetic of the contract, including {IERC20-balanceOf} and {IERC20-transfer}."
      },
      "decreaseAllowance(address,uint256)": {
        "details": "Atomically decreases the allowance granted to `spender` by the caller. This is an alternative to {approve} that can be used as a mitigation for problems described in {IERC20-approve}. Emits an {Approval} event indicating the updated allowance. Requirements: - `spender` cannot be the zero address. - `spender` must have allowance for the caller of at least `subtractedValue`."
      },
      "increaseAllowance(address,uint256)": {
        "details": "Atomically increases the allowance granted to `spender` by the caller. This is an alternative to {approve} that can be used as a mitigation for problems described in {IERC20-approve}. Emits an {Approval} event indicating the updated allowance. Requirements: - `spender` cannot be the zero address."
      },
      "name()": {
        "details": "Returns the name of the token."
      },
      "owner()": {
        "details": "Returns the address of the current owner."
      },
      "paused()": {
        "details": "Returns true if the contract is paused, and false otherwise."
      },
      "renounceOwnership()": {
        "details": "Leaves the contract without owner. It will not be possible to call `onlyOwner` functions anymore. Can only be called by the current owner. NOTE: Renouncing ownership will leave the contract without an owner, thereby removing any functionality that is only available to the owner."
      },
      "symbol()": {
        "details": "Returns the symbol of the token, usually a shorter version of the name."
      },
      "totalSupply()": {
        "details": "See {IERC20-totalSupply}."
      },
      "transfer(address,uint256)": {
        "details": "See {IERC20-transfer}. Requirements: - `to` cannot be the zero address. - the caller must have a balance of at least `amount`."
      },
      "transferFrom(address,address,uint256)": {
        "details": "See {IERC20-transferFrom}. Emits an {Approval} event indicating the updated allowance. This is not required by the EIP. See the note at the beginning of {ERC20}. NOTE: Does not update the allowance if the current allowance is the maximum `uint256`. Requirements: - `from` and `to` cannot be the zero address. - `from` must have a balance of at least `amount`. - the caller must have allowance for ``from``'s tokens of at least `amount`."
      },
      "transferOwnership(address)": {
        "details": "Transfers ownership of the contract to a new account (`newOwner`). Can only be called by the current owner."
      }
    },
    "version": 1
  },
  "userdoc": {
    "kind": "user",
    "methods": {},
    "version": 1
  }
}