{
  "contractName": "Bayram",
  "abi": [
    {
      "inputs": [
        {
          "internalType": "address",
          "name": "_movy",
          "type": "address"
        }
      ],
      "stateMutability": "nonpayable",
      "type": "constructor"
    },
    {
      "anonymous": false,
      "inputs": [
        {
          "indexed": true,
          "internalType": "address",
          "name": "owner",
          "type": "address"
        },
        {
          "indexed": true,
          "internalType": "address",
          "name": "spender",
          "type": "address"
        },
        {
          "indexed": false,
          "internalType": "uint256",
          "name": "value",
          "type": "uint256"
        }
      ],
      "name": "Approval",
      "type": "event"
    },
    {
      "anonymous": false,
      "inputs": [
        {
          "indexed": false,
          "internalType": "address",
          "name": "addr",
          "type": "address"
        },
        {
          "indexed": false,
          "internalType": "uint256",
          "name": "amount",
          "type": "uint256"
        }
      ],
      "name": "Burned",
      "type": "event"
    },
    {
      "anonymous": false,
      "inputs": [
        {
          "indexed": false,
          "internalType": "address",
          "name": "addr",
          "type": "address"
        },
        {
          "indexed": false,
          "internalType": "uint256",
          "name": "amount",
          "type": "uint256"
        },
        {
          "indexed": false,
          "internalType": "uint8",
          "name": "option",
          "type": "uint8"
        }
      ],
      "name": "Minted",
      "type": "event"
    },
    {
      "anonymous": false,
      "inputs": [
        {
          "indexed": true,
          "internalType": "address",
          "name": "previousOwner",
          "type": "address"
        },
        {
          "indexed": true,
          "internalType": "address",
          "name": "newOwner",
          "type": "address"
        }
      ],
      "name": "OwnershipTransferred",
      "type": "event"
    },
    {
      "anonymous": false,
      "inputs": [
        {
          "indexed": false,
          "internalType": "address",
          "name": "account",
          "type": "address"
        }
      ],
      "name": "Paused",
      "type": "event"
    },
    {
      "anonymous": false,
      "inputs": [
        {
          "indexed": true,
          "internalType": "address",
          "name": "from",
          "type": "address"
        },
        {
          "indexed": true,
          "internalType": "address",
          "name": "to",
          "type": "address"
        },
        {
          "indexed": false,
          "internalType": "uint256",
          "name": "value",
          "type": "uint256"
        }
      ],
      "name": "Transfer",
      "type": "event"
    },
    {
      "anonymous": false,
      "inputs": [
        {
          "indexed": false,
          "internalType": "address",
          "name": "account",
          "type": "address"
        }
      ],
      "name": "Unpaused",
      "type": "event"
    },
    {
      "inputs": [],
      "name": "ICO_OPTION_COUNT",
      "outputs": [
        {
          "internalType": "uint8",
          "name": "",
          "type": "uint8"
        }
      ],
      "stateMutability": "view",
      "type": "function",
      "constant": true
    },
    {
      "inputs": [
        {
          "internalType": "address",
          "name": "owner",
          "type": "address"
        },
        {
          "internalType": "address",
          "name": "spender",
          "type": "address"
        }
      ],
      "name": "allowance",
      "outputs": [
        {
          "internalType": "uint256",
          "name": "",
          "type": "uint256"
        }
      ],
      "stateMutability": "view",
      "type": "function",
      "constant": true
    },
    {
      "inputs": [
        {
          "internalType": "address",
          "name": "spender",
          "type": "address"
        },
        {
          "internalType": "uint256",
          "name": "amount",
          "type": "uint256"
        }
      ],
      "name": "approve",
      "outputs": [
        {
          "internalType": "bool",
          "name": "",
          "type": "bool"
        }
      ],
      "stateMutability": "nonpayable",
      "type": "function"
    },
    {
      "inputs": [
        {
          "internalType": "address",
          "name": "account",
          "type": "address"
        }
      ],
      "name": "balanceOf",
      "outputs": [
        {
          "internalType": "uint256",
          "name": "",
          "type": "uint256"
        }
      ],
      "stateMutability": "view",
      "type": "function",
      "constant": true
    },
    {
      "inputs": [
        {
          "internalType": "address",
          "name": "account",
          "type": "address"
        },
        {
          "internalType": "uint8",
          "name": "option",
          "type": "uint8"
        }
      ],
      "name": "balanceOfLocked",
      "outputs": [
        {
          "internalType": "uint256",
          "name": "",
          "type": "uint256"
        }
      ],
      "stateMutability": "view",
      "type": "function",
      "constant": true
    },
    {
      "inputs": [
        {
          "internalType": "address",
          "name": "from",
          "type": "address"
        },
        {
          "internalType": "uint256",
          "name": "amount",
          "type": "uint256"
        }
      ],
      "name": "burn",
      "outputs": [],
      "stateMutability": "nonpayable",
      "type": "function"
    },
    {
      "inputs": [
        {
          "internalType": "uint256",
          "name": "amount",
          "type": "uint256"
        },
        {
          "internalType": "uint8",
          "name": "option",
          "type": "uint8"
        }
      ],
      "name": "buy",
      "outputs": [],
      "stateMutability": "nonpayable",
      "type": "function"
    },
    {
      "inputs": [],
      "name": "decimals",
      "outputs": [
        {
          "internalType": "uint8",
          "name": "",
          "type": "uint8"
        }
      ],
      "stateMutability": "pure",
      "type": "function",
      "constant": true
    },
    {
      "inputs": [
        {
          "internalType": "address",
          "name": "spender",
          "type": "address"
        },
        {
          "internalType": "uint256",
          "name": "subtractedValue",
          "type": "uint256"
        }
      ],
      "name": "decreaseAllowance",
      "outputs": [
        {
          "internalType": "bool",
          "name": "",
          "type": "bool"
        }
      ],
      "stateMutability": "nonpayable",
      "type": "function"
    },
    {
      "inputs": [
        {
          "internalType": "address",
          "name": "spender",
          "type": "address"
        },
        {
          "internalType": "uint256",
          "name": "addedValue",
          "type": "uint256"
        }
      ],
      "name": "increaseAllowance",
      "outputs": [
        {
          "internalType": "bool",
          "name": "",
          "type": "bool"
        }
      ],
      "stateMutability": "nonpayable",
      "type": "function"
    },
    {
      "inputs": [
        {
          "internalType": "uint256",
          "name": "amount",
          "type": "uint256"
        }
      ],
      "name": "mintForTreasure",
      "outputs": [],
      "stateMutability": "nonpayable",
      "type": "function"
    },
    {
      "inputs": [],
      "name": "name",
      "outputs": [
        {
          "internalType": "string",
          "name": "",
          "type": "string"
        }
      ],
      "stateMutability": "view",
      "type": "function",
      "constant": true
    },
    {
      "inputs": [],
      "name": "owner",
      "outputs": [
        {
          "internalType": "address",
          "name": "",
          "type": "address"
        }
      ],
      "stateMutability": "view",
      "type": "function",
      "constant": true
    },
    {
      "inputs": [],
      "name": "pause",
      "outputs": [],
      "stateMutability": "nonpayable",
      "type": "function"
    },
    {
      "inputs": [],
      "name": "paused",
      "outputs": [
        {
          "internalType": "bool",
          "name": "",
          "type": "bool"
        }
      ],
      "stateMutability": "view",
      "type": "function",
      "constant": true
    },
    {
      "inputs": [],
      "name": "paymentToken",
      "outputs": [
        {
          "internalType": "address",
          "name": "",
          "type": "address"
        }
      ],
      "stateMutability": "view",
      "type": "function",
      "constant": true
    },
    {
      "inputs": [],
      "name": "renounceOwnership",
      "outputs": [],
      "stateMutability": "nonpayable",
      "type": "function"
    },
    {
      "inputs": [
        {
          "internalType": "bool",
          "name": "_sale",
          "type": "bool"
        }
      ],
      "name": "setICO",
      "outputs": [],
      "stateMutability": "nonpayable",
      "type": "function"
    },
    {
      "inputs": [],
      "name": "symbol",
      "outputs": [
        {
          "internalType": "string",
          "name": "",
          "type": "string"
        }
      ],
      "stateMutability": "view",
      "type": "function",
      "constant": true
    },
    {
      "inputs": [
        {
          "internalType": "uint8",
          "name": "option",
          "type": "uint8"
        }
      ],
      "name": "totalICOHolder",
      "outputs": [
        {
          "internalType": "uint256",
          "name": "",
          "type": "uint256"
        }
      ],
      "stateMutability": "view",
      "type": "function",
      "constant": true
    },
    {
      "inputs": [
        {
          "internalType": "uint8",
          "name": "option",
          "type": "uint8"
        }
      ],
      "name": "totalMintedICO",
      "outputs": [
        {
          "internalType": "uint256",
          "name": "",
          "type": "uint256"
        }
      ],
      "stateMutability": "view",
      "type": "function",
      "constant": true
    },
    {
      "inputs": [],
      "name": "totalSupply",
      "outputs": [
        {
          "internalType": "uint256",
          "name": "",
          "type": "uint256"
        }
      ],
      "stateMutability": "view",
      "type": "function",
      "constant": true
    },
    {
      "inputs": [
        {
          "internalType": "address",
          "name": "to",
          "type": "address"
        },
        {
          "internalType": "uint256",
          "name": "amount",
          "type": "uint256"
        }
      ],
      "name": "transfer",
      "outputs": [
        {
          "internalType": "bool",
          "name": "",
          "type": "bool"
        }
      ],
      "stateMutability": "nonpayable",
      "type": "function"
    },
    {
      "inputs": [
        {
          "internalType": "address",
          "name": "from",
          "type": "address"
        },
        {
          "internalType": "address",
          "name": "to",
          "type": "address"
        },
        {
          "internalType": "uint256",
          "name": "amount",
          "type": "uint256"
        }
      ],
      "name": "transferFrom",
      "outputs": [
        {
          "internalType": "bool",
          "name": "",
          "type": "bool"
        }
      ],
      "stateMutability": "nonpayable",
      "type": "function"
    },
    {
      "inputs": [
        {
          "internalType": "address",
          "name": "newOwner",
          "type": "address"
        }
      ],
      "name": "transferOwnership",
      "outputs": [],
      "stateMutability": "nonpayable",
      "type": "function"
    },
    {
      "inputs": [
        {
          "internalType": "uint8",
          "name": "option",
          "type": "uint8"
        }
      ],
      "name": "unlockICOBalances",
      "outputs": [],
      "stateMutability": "nonpayable",
      "type": "function"
    },
    {
      "inputs": [],
      "name": "unpause",
      "outputs": [],
      "stateMutability": "nonpayable",
      "type": "function"
    }
  ],
  "bytecode": "0x60806040526001600b60006101000a81548160ff0219169083151502179055503480156200002c57600080fd5b5060405162004429380380620044298339818101604052810190620000529190620007e2565b6040518060400160405280600c81526020017f42617972616d20546f6b656e00000000000000000000000000000000000000008152506040518060400160405280600381526020017f4241590000000000000000000000000000000000000000000000000000000000815250600282828160039080519060200190620000da929190620006c8565b508060049080519060200190620000f3929190620006c8565b505050620001166200010a6200034d60201b60201c565b6200035560201b60201c565b6000600560146101000a81548160ff02191690831515021790555080600b60016101000a81548160ff021916908360ff16021790555050505080600660006101000a81548173ffffffffffffffffffffffffffffffffffffffff021916908373ffffffffffffffffffffffffffffffffffffffff160217905550620001a4629896806200041b60201b60201c565b6040518060e00160405280620186a08152602001620927c08152602001620f424081526020016113888152602001600015158152602001600115158152602001600081525060076000600160ff1681526020019081526020016000206000820151816000015560208201518160010155604082015181600201556060820151816003015560808201518160040160006101000a81548160ff02191690831515021790555060a08201518160040160016101000a81548160ff02191690831515021790555060c082015181600501559050506040518060e00160405280620186a0815260200162030d4081526020016207a12081526020016109c48152602001600115158152602001600015158152602001600081525060076000600260ff1681526020019081526020016000206000820151816000015560208201518160010155604082015181600201556060820151816003015560808201518160040160006101000a81548160ff02191690831515021790555060a08201518160040160016101000a81548160ff02191690831515021790555060c082015181600501559050505062000ada565b600033905090565b6000600560009054906101000a900473ffffffffffffffffffffffffffffffffffffffff16905081600560006101000a81548173ffffffffffffffffffffffffffffffffffffffff021916908373ffffffffffffffffffffffffffffffffffffffff1602179055508173ffffffffffffffffffffffffffffffffffffffff168173ffffffffffffffffffffffffffffffffffffffff167f8be0079c531659141344cd1fd0a4f28419497f9722a3daafe3b4186f6b6457e060405160405180910390a35050565b6200042b6200034d60201b60201c565b73ffffffffffffffffffffffffffffffffffffffff16620004516200051b60201b60201c565b73ffffffffffffffffffffffffffffffffffffffff1614620004aa576040517f08c379a0000000000000000000000000000000000000000000000000000000008152600401620004a19062000875565b60405180910390fd5b620004cb620004be6200051b60201b60201c565b826200054560201b60201c565b7fdcb23284f3935b5557998e99dcc286e29744c5000723d99eecd5d6f5694f6e11620004fc6200051b60201b60201c565b82600060405162000510939291906200091d565b60405180910390a150565b6000600560009054906101000a900473ffffffffffffffffffffffffffffffffffffffff16905090565b600073ffffffffffffffffffffffffffffffffffffffff168273ffffffffffffffffffffffffffffffffffffffff161415620005b8576040517f08c379a0000000000000000000000000000000000000000000000000000000008152600401620005af90620009aa565b60405180910390fd5b620005cc60008383620006be60201b60201c565b8060026000828254620005e09190620009fb565b92505081905550806000808473ffffffffffffffffffffffffffffffffffffffff1673ffffffffffffffffffffffffffffffffffffffff1681526020019081526020016000206000828254620006379190620009fb565b925050819055508173ffffffffffffffffffffffffffffffffffffffff16600073ffffffffffffffffffffffffffffffffffffffff167fddf252ad1be2c89b69c2b068fc378daa952ba7f163c4a11628f55a4df523b3ef836040516200069e919062000a58565b60405180910390a3620006ba60008383620006c360201b60201c565b5050565b505050565b505050565b828054620006d69062000aa4565b90600052602060002090601f016020900481019282620006fa576000855562000746565b82601f106200071557805160ff191683800117855562000746565b8280016001018555821562000746579182015b828111156200074557825182559160200191906001019062000728565b5b50905062000755919062000759565b5090565b5b80821115620007745760008160009055506001016200075a565b5090565b600080fd5b600073ffffffffffffffffffffffffffffffffffffffff82169050919050565b6000620007aa826200077d565b9050919050565b620007bc816200079d565b8114620007c857600080fd5b50565b600081519050620007dc81620007b1565b92915050565b600060208284031215620007fb57620007fa62000778565b5b60006200080b84828501620007cb565b91505092915050565b600082825260208201905092915050565b7f4f776e61626c653a2063616c6c6572206973206e6f7420746865206f776e6572600082015250565b60006200085d60208362000814565b91506200086a8262000825565b602082019050919050565b6000602082019050818103600083015262000890816200084e565b9050919050565b620008a2816200079d565b82525050565b6000819050919050565b620008bd81620008a8565b82525050565b6000819050919050565b600060ff82169050919050565b6000819050919050565b600062000905620008ff620008f984620008c3565b620008da565b620008cd565b9050919050565b6200091781620008e4565b82525050565b600060608201905062000934600083018662000897565b620009436020830185620008b2565b6200095260408301846200090c565b949350505050565b7f45524332303a206d696e7420746f20746865207a65726f206164647265737300600082015250565b600062000992601f8362000814565b91506200099f826200095a565b602082019050919050565b60006020820190508181036000830152620009c58162000983565b9050919050565b7f4e487b7100000000000000000000000000000000000000000000000000000000600052601160045260246000fd5b600062000a0882620008a8565b915062000a1583620008a8565b9250827fffffffffffffffffffffffffffffffffffffffffffffffffffffffffffffffff0382111562000a4d5762000a4c620009cc565b5b828201905092915050565b600060208201905062000a6f6000830184620008b2565b92915050565b7f4e487b7100000000000000000000000000000000000000000000000000000000600052602260045260246000fd5b6000600282049050600182168062000abd57607f821691505b6020821081141562000ad45762000ad362000a75565b5b50919050565b61393f8062000aea6000396000f3fe608060405234801561001057600080fd5b50600436106101a95760003560e01c80638456cb59116100f9578063b8d404eb11610097578063e200abb211610071578063e200abb2146104d2578063e90bc7b1146104f0578063ed9beb051461050c578063f2fde38b14610528576101a9565b8063b8d404eb14610456578063db649a0d14610472578063dd62ed3e146104a2576101a9565b80639dc29fac116100d35780639dc29fac146103aa578063a457c2d7146103c6578063a9059cbb146103f6578063a9ab328814610426576101a9565b80638456cb59146103645780638da5cb5b1461036e57806395d89b411461038c576101a9565b8063313ce567116101665780635c975abb116101405780635c975abb146102dc57806370a08231146102fa578063715018a61461032a57806380ba454b14610334576101a9565b8063313ce5671461028457806339509351146102a25780633f4ba83a146102d2576101a9565b806306fdde03146101ae578063095ea7b3146101cc578063147cd098146101fc57806318160ddd1461021857806323b872dd146102365780633013ce2914610266575b600080fd5b6101b6610544565b6040516101c39190612714565b60405180910390f35b6101e660048036038101906101e191906127cf565b6105d6565b6040516101f3919061282a565b60405180910390f35b6102166004803603810190610211919061287e565b610632565b005b61022061094f565b60405161022d91906128ba565b60405180910390f35b610250600480360381019061024b91906128d5565b610959565b60405161025d919061282a565b60405180910390f35b61026e6109b7565b60405161027b9190612937565b60405180910390f35b61028c6109dd565b6040516102999190612961565b60405180910390f35b6102bc60048036038101906102b791906127cf565b6109e6565b6040516102c9919061282a565b60405180910390f35b6102da610a90565b005b6102e4610b5d565b6040516102f1919061282a565b60405180910390f35b610314600480360381019061030f919061297c565b610b74565b60405161032191906128ba565b60405180910390f35b610332610c89565b005b61034e600480360381019061034991906129a9565b610d11565b60405161035b91906128ba565b60405180910390f35b61036c610e13565b005b610376610ee1565b6040516103839190612937565b60405180910390f35b610394610f0b565b6040516103a19190612714565b60405180910390f35b6103c460048036038101906103bf91906127cf565b610f9d565b005b6103e060048036038101906103db91906127cf565b611060565b6040516103ed919061282a565b60405180910390f35b610410600480360381019061040b91906127cf565b61114a565b60405161041d919061282a565b60405180910390f35b610440600480360381019061043b919061287e565b6111a6565b60405161044d91906128ba565b60405180910390f35b610470600480360381019061046b91906129e9565b611236565b005b61048c6004803603810190610487919061287e565b611309565b60405161049991906128ba565b60405180910390f35b6104bc60048036038101906104b79190612a16565b611396565b6040516104c991906128ba565b60405180910390f35b6104da61141d565b6040516104e79190612961565b60405180910390f35b61050a60048036038101906105059190612a56565b611430565b005b61052660048036038101906105219190612ac2565b611a01565b005b610542600480360381019061053d919061297c565b611a9a565b005b60606003805461055390612b1e565b80601f016020809104026020016040519081016040528092919081815260200182805461057f90612b1e565b80156105cc5780601f106105a1576101008083540402835291602001916105cc565b820191906000526020600020905b8154815290600101906020018083116105af57829003601f168201915b5050505050905090565b60006105e0610b5d565b15610620576040517f08c379a000000000000000000000000000000000000000000000000000000000815260040161061790612b9c565b60405180910390fd5b61062a8383611b92565b905092915050565b61063a611bb5565b73ffffffffffffffffffffffffffffffffffffffff16610658610ee1565b73ffffffffffffffffffffffffffffffffffffffff16146106ae576040517f08c379a00000000000000000000000000000000000000000000000000000000081526004016106a590612c08565b60405180910390fd5b808060ff166001111580156106d85750600b60019054906101000a900460ff1660ff168160ff1611155b610717576040517f08c379a000000000000000000000000000000000000000000000000000000000815260040161070e90612c74565b60405180910390fd5b600760008360ff1660ff16815260200190815260200160002060040160009054906101000a900460ff16610780576040517f08c379a000000000000000000000000000000000000000000000000000000000815260040161077790612c74565b60405180910390fd5b600760008360ff1660ff16815260200190815260200160002060040160019054906101000a900460ff16156107ea576040517f08c379a00000000000000000000000000000000000000000000000000000000081526004016107e190612d06565b60405180910390fd5b60005b600860008460ff1660ff1681526020019081526020016000205481101561091557610902600a60008560ff1660ff168152602001908152602001600020600083815260200190815260200160002060009054906101000a900473ffffffffffffffffffffffffffffffffffffffff16600960008660ff1660ff1681526020019081526020016000206000600a60008860ff1660ff168152602001908152602001600020600086815260200190815260200160002060009054906101000a900473ffffffffffffffffffffffffffffffffffffffff1673ffffffffffffffffffffffffffffffffffffffff1673ffffffffffffffffffffffffffffffffffffffff16815260200190815260200160002054611bbd565b808061090d90612d55565b9150506107ed565b506001600760008460ff1660ff16815260200190815260200160002060040160016101000a81548160ff0219169083151502179055505050565b6000600254905090565b6000610963610b5d565b156109a3576040517f08c379a000000000000000000000000000000000000000000000000000000000815260040161099a90612b9c565b60405180910390fd5b6109ae848484611d1d565b90509392505050565b600660009054906101000a900473ffffffffffffffffffffffffffffffffffffffff1681565b60006004905090565b6000806109f1611bb5565b9050610a85818585600160008673ffffffffffffffffffffffffffffffffffffffff1673ffffffffffffffffffffffffffffffffffffffff16815260200190815260200160002060008973ffffffffffffffffffffffffffffffffffffffff1673ffffffffffffffffffffffffffffffffffffffff16815260200190815260200160002054610a809190612d9e565b611d4c565b600191505092915050565b610a98610b5d565b610ad7576040517f08c379a0000000000000000000000000000000000000000000000000000000008152600401610ace90612e40565b60405180910390fd5b610adf611bb5565b73ffffffffffffffffffffffffffffffffffffffff16610afd610ee1565b73ffffffffffffffffffffffffffffffffffffffff1614610b53576040517f08c379a0000000000000000000000000000000000000000000000000000000008152600401610b4a90612c08565b60405180910390fd5b610b5b611f17565b565b6000600560149054906101000a900460ff16905090565b600080610b8083611fb9565b90506000600190505b600b60019054906101000a900460ff1660ff168160ff1611610c7f57600760008260ff1660ff16815260200190815260200160002060040160009054906101000a900460ff168015610c025750600760008260ff1660ff16815260200190815260200160002060040160019054906101000a900460ff16155b15610c6c57600960008260ff1660ff16815260200190815260200160002060008573ffffffffffffffffffffffffffffffffffffffff1673ffffffffffffffffffffffffffffffffffffffff1681526020019081526020016000205482610c699190612d9e565b91505b8080610c7790612e60565b915050610b89565b5080915050919050565b610c91611bb5565b73ffffffffffffffffffffffffffffffffffffffff16610caf610ee1565b73ffffffffffffffffffffffffffffffffffffffff1614610d05576040517f08c379a0000000000000000000000000000000000000000000000000000000008152600401610cfc90612c08565b60405180910390fd5b610d0f6000612001565b565b60008160ff16600111158015610d3c5750600b60019054906101000a900460ff1660ff168260ff1611155b610d7b576040517f08c379a0000000000000000000000000000000000000000000000000000000008152600401610d7290612c74565b60405180910390fd5b600760008360ff1660ff16815260200190815260200160002060040160019054906101000a900460ff1615610db35760009050610e0d565b600960008360ff1660ff16815260200190815260200160002060008473ffffffffffffffffffffffffffffffffffffffff1673ffffffffffffffffffffffffffffffffffffffff1681526020019081526020016000205490505b92915050565b610e1b610b5d565b15610e5b576040517f08c379a0000000000000000000000000000000000000000000000000000000008152600401610e5290612b9c565b60405180910390fd5b610e63611bb5565b73ffffffffffffffffffffffffffffffffffffffff16610e81610ee1565b73ffffffffffffffffffffffffffffffffffffffff1614610ed7576040517f08c379a0000000000000000000000000000000000000000000000000000000008152600401610ece90612c08565b60405180910390fd5b610edf6120c7565b565b6000600560009054906101000a900473ffffffffffffffffffffffffffffffffffffffff16905090565b606060048054610f1a90612b1e565b80601f0160208091040260200160405190810160405280929190818152602001828054610f4690612b1e565b8015610f935780601f10610f6857610100808354040283529160200191610f93565b820191906000526020600020905b815481529060010190602001808311610f7657829003601f168201915b5050505050905090565b610fa5611bb5565b73ffffffffffffffffffffffffffffffffffffffff16610fc3610ee1565b73ffffffffffffffffffffffffffffffffffffffff1614611019576040517f08c379a000000000000000000000000000000000000000000000000000000000815260040161101090612c08565b60405180910390fd5b611023828261216a565b7f696de425f79f4a40bc6d2122ca50507f0efbeabbff86a84871b7196ab8ea8df78282604051611054929190612e8a565b60405180910390a15050565b60008061106b611bb5565b90506000600160008373ffffffffffffffffffffffffffffffffffffffff1673ffffffffffffffffffffffffffffffffffffffff16815260200190815260200160002060008673ffffffffffffffffffffffffffffffffffffffff1673ffffffffffffffffffffffffffffffffffffffff16815260200190815260200160002054905083811015611131576040517f08c379a000000000000000000000000000000000000000000000000000000000815260040161112890612f25565b60405180910390fd5b61113e8286868403611d4c565b60019250505092915050565b6000611154610b5d565b15611194576040517f08c379a000000000000000000000000000000000000000000000000000000000815260040161118b90612b9c565b60405180910390fd5b61119e8383612341565b905092915050565b6000818060ff166001111580156111d25750600b60019054906101000a900460ff1660ff168160ff1611155b611211576040517f08c379a000000000000000000000000000000000000000000000000000000000815260040161120890612c74565b60405180910390fd5b600760008460ff1660ff16815260200190815260200160002060050154915050919050565b61123e611bb5565b73ffffffffffffffffffffffffffffffffffffffff1661125c610ee1565b73ffffffffffffffffffffffffffffffffffffffff16146112b2576040517f08c379a00000000000000000000000000000000000000000000000000000000081526004016112a990612c08565b60405180910390fd5b6112c36112bd610ee1565b82611bbd565b7fdcb23284f3935b5557998e99dcc286e29744c5000723d99eecd5d6f5694f6e116112ec610ee1565b8260006040516112fe93929190612f8a565b60405180910390a150565b6000818060ff166001111580156113355750600b60019054906101000a900460ff1660ff168160ff1611155b611374576040517f08c379a000000000000000000000000000000000000000000000000000000000815260040161136b90612c74565b60405180910390fd5b600860008460ff1660ff16815260200190815260200160002054915050919050565b6000600160008473ffffffffffffffffffffffffffffffffffffffff1673ffffffffffffffffffffffffffffffffffffffff16815260200190815260200160002060008373ffffffffffffffffffffffffffffffffffffffff1673ffffffffffffffffffffffffffffffffffffffff16815260200190815260200160002054905092915050565b600b60019054906101000a900460ff1681565b808060ff1660011115801561145a5750600b60019054906101000a900460ff1660ff168160ff1611155b611499576040517f08c379a000000000000000000000000000000000000000000000000000000000815260040161149090612c74565b60405180910390fd5b60006114a3611bb5565b9050600b60009054906101000a900460ff166114f4576040517f08c379a00000000000000000000000000000000000000000000000000000000081526004016114eb9061300d565b60405180910390fd5b83600760008560ff1660ff168152602001908152602001600020600001541115611553576040517f08c379a000000000000000000000000000000000000000000000000000000000815260040161154a90613079565b60405180910390fd5b83600760008560ff1660ff1681526020019081526020016000206001015410156115b2576040517f08c379a00000000000000000000000000000000000000000000000000000000081526004016115a9906130e5565b60405180910390fd5b600760008460ff1660ff1681526020019081526020016000206002015484600760008660ff1660ff168152602001908152602001600020600501546115f79190612d9e565b1115611638576040517f08c379a000000000000000000000000000000000000000000000000000000000815260040161162f90613151565b60405180910390fd5b600760008460ff1660ff1681526020019081526020016000206001015484600960008660ff1660ff16815260200190815260200160002060008473ffffffffffffffffffffffffffffffffffffffff1673ffffffffffffffffffffffffffffffffffffffff168152602001908152602001600020546116b79190612d9e565b11156116f8576040517f08c379a00000000000000000000000000000000000000000000000000000000081526004016116ef906131e3565b60405180910390fd5b600660009054906101000a900473ffffffffffffffffffffffffffffffffffffffff1673ffffffffffffffffffffffffffffffffffffffff166323b872dd8261173f610ee1565b612710600760008960ff1660ff168152602001908152602001600020600301548961176a9190613203565b611774919061328c565b6040518463ffffffff1660e01b8152600401611792939291906132bd565b6020604051808303816000875af11580156117b1573d6000803e3d6000fd5b505050506040513d601f19601f820116820180604052508101906117d59190613309565b50600760008460ff1660ff16815260200190815260200160002060040160009054906101000a900460ff1661180f5761180e8185611bbd565b5b83600760008560ff1660ff168152602001908152602001600020600501600082825461183b9190612d9e565b925050819055506000600960008560ff1660ff16815260200190815260200160002060008373ffffffffffffffffffffffffffffffffffffffff1673ffffffffffffffffffffffffffffffffffffffff1681526020019081526020016000205414156119535780600a60008560ff1660ff1681526020019081526020016000206000600860008760ff1660ff16815260200190815260200160002054815260200190815260200160002060006101000a81548173ffffffffffffffffffffffffffffffffffffffff021916908373ffffffffffffffffffffffffffffffffffffffff160217905550600860008460ff1660ff168152602001908152602001600020600081548092919061194d90612d55565b91905055505b83600960008560ff1660ff16815260200190815260200160002060008373ffffffffffffffffffffffffffffffffffffffff1673ffffffffffffffffffffffffffffffffffffffff16815260200190815260200160002060008282546119b99190612d9e565b925050819055507fdcb23284f3935b5557998e99dcc286e29744c5000723d99eecd5d6f5694f6e118185856040516119f393929190613336565b60405180910390a150505050565b611a09611bb5565b73ffffffffffffffffffffffffffffffffffffffff16611a27610ee1565b73ffffffffffffffffffffffffffffffffffffffff1614611a7d576040517f08c379a0000000000000000000000000000000000000000000000000000000008152600401611a7490612c08565b60405180910390fd5b80600b60006101000a81548160ff02191690831515021790555050565b611aa2611bb5565b73ffffffffffffffffffffffffffffffffffffffff16611ac0610ee1565b73ffffffffffffffffffffffffffffffffffffffff1614611b16576040517f08c379a0000000000000000000000000000000000000000000000000000000008152600401611b0d90612c08565b60405180910390fd5b600073ffffffffffffffffffffffffffffffffffffffff168173ffffffffffffffffffffffffffffffffffffffff161415611b86576040517f08c379a0000000000000000000000000000000000000000000000000000000008152600401611b7d906133df565b60405180910390fd5b611b8f81612001565b50565b600080611b9d611bb5565b9050611baa818585611d4c565b600191505092915050565b600033905090565b600073ffffffffffffffffffffffffffffffffffffffff168273ffffffffffffffffffffffffffffffffffffffff161415611c2d576040517f08c379a0000000000000000000000000000000000000000000000000000000008152600401611c249061344b565b60405180910390fd5b611c3960008383612364565b8060026000828254611c4b9190612d9e565b92505081905550806000808473ffffffffffffffffffffffffffffffffffffffff1673ffffffffffffffffffffffffffffffffffffffff1681526020019081526020016000206000828254611ca09190612d9e565b925050819055508173ffffffffffffffffffffffffffffffffffffffff16600073ffffffffffffffffffffffffffffffffffffffff167fddf252ad1be2c89b69c2b068fc378daa952ba7f163c4a11628f55a4df523b3ef83604051611d0591906128ba565b60405180910390a3611d1960008383612369565b5050565b600080611d28611bb5565b9050611d3585828561236e565b611d408585856123fa565b60019150509392505050565b600073ffffffffffffffffffffffffffffffffffffffff168373ffffffffffffffffffffffffffffffffffffffff161415611dbc576040517f08c379a0000000000000000000000000000000000000000000000000000000008152600401611db3906134dd565b60405180910390fd5b600073ffffffffffffffffffffffffffffffffffffffff168273ffffffffffffffffffffffffffffffffffffffff161415611e2c576040517f08c379a0000000000000000000000000000000000000000000000000000000008152600401611e239061356f565b60405180910390fd5b80600160008573ffffffffffffffffffffffffffffffffffffffff1673ffffffffffffffffffffffffffffffffffffffff16815260200190815260200160002060008473ffffffffffffffffffffffffffffffffffffffff1673ffffffffffffffffffffffffffffffffffffffff168152602001908152602001600020819055508173ffffffffffffffffffffffffffffffffffffffff168373ffffffffffffffffffffffffffffffffffffffff167f8c5be1e5ebec7d5bd14f71427d1e84f3dd0314c0f7b2291e5b200ac8c7c3b92583604051611f0a91906128ba565b60405180910390a3505050565b611f1f610b5d565b611f5e576040517f08c379a0000000000000000000000000000000000000000000000000000000008152600401611f5590612e40565b60405180910390fd5b6000600560146101000a81548160ff0219169083151502179055507f5db9ee0a495bf2e6ff9c91a7834c1ba4fdd244a5e8aa4e537bd38aeae4b073aa611fa2611bb5565b604051611faf9190612937565b60405180910390a1565b60008060008373ffffffffffffffffffffffffffffffffffffffff1673ffffffffffffffffffffffffffffffffffffffff168152602001908152602001600020549050919050565b6000600560009054906101000a900473ffffffffffffffffffffffffffffffffffffffff16905081600560006101000a81548173ffffffffffffffffffffffffffffffffffffffff021916908373ffffffffffffffffffffffffffffffffffffffff1602179055508173ffffffffffffffffffffffffffffffffffffffff168173ffffffffffffffffffffffffffffffffffffffff167f8be0079c531659141344cd1fd0a4f28419497f9722a3daafe3b4186f6b6457e060405160405180910390a35050565b6120cf610b5d565b1561210f576040517f08c379a000000000000000000000000000000000000000000000000000000000815260040161210690612b9c565b60405180910390fd5b6001600560146101000a81548160ff0219169083151502179055507f62e78cea01bee320cd4e420270b5ea74000d11b0c9f74754ebdbfc544b05a258612153611bb5565b6040516121609190612937565b60405180910390a1565b600073ffffffffffffffffffffffffffffffffffffffff168273ffffffffffffffffffffffffffffffffffffffff1614156121da576040517f08c379a00000000000000000000000000000000000000000000000000000000081526004016121d190613601565b60405180910390fd5b6121e682600083612364565b60008060008473ffffffffffffffffffffffffffffffffffffffff1673ffffffffffffffffffffffffffffffffffffffff1681526020019081526020016000205490508181101561226c576040517f08c379a000000000000000000000000000000000000000000000000000000000815260040161226390613693565b60405180910390fd5b8181036000808573ffffffffffffffffffffffffffffffffffffffff1673ffffffffffffffffffffffffffffffffffffffff1681526020019081526020016000208190555081600260008282546122c391906136b3565b92505081905550600073ffffffffffffffffffffffffffffffffffffffff168373ffffffffffffffffffffffffffffffffffffffff167fddf252ad1be2c89b69c2b068fc378daa952ba7f163c4a11628f55a4df523b3ef8460405161232891906128ba565b60405180910390a361233c83600084612369565b505050565b60008061234c611bb5565b90506123598185856123fa565b600191505092915050565b505050565b505050565b600061237a8484611396565b90507fffffffffffffffffffffffffffffffffffffffffffffffffffffffffffffffff81146123f457818110156123e6576040517f08c379a00000000000000000000000000000000000000000000000000000000081526004016123dd90613733565b60405180910390fd5b6123f38484848403611d4c565b5b50505050565b600073ffffffffffffffffffffffffffffffffffffffff168373ffffffffffffffffffffffffffffffffffffffff16141561246a576040517f08c379a0000000000000000000000000000000000000000000000000000000008152600401612461906137c5565b60405180910390fd5b600073ffffffffffffffffffffffffffffffffffffffff168273ffffffffffffffffffffffffffffffffffffffff1614156124da576040517f08c379a00000000000000000000000000000000000000000000000000000000081526004016124d190613857565b60405180910390fd5b6124e5838383612364565b60008060008573ffffffffffffffffffffffffffffffffffffffff1673ffffffffffffffffffffffffffffffffffffffff1681526020019081526020016000205490508181101561256b576040517f08c379a0000000000000000000000000000000000000000000000000000000008152600401612562906138e9565b60405180910390fd5b8181036000808673ffffffffffffffffffffffffffffffffffffffff1673ffffffffffffffffffffffffffffffffffffffff16815260200190815260200160002081905550816000808573ffffffffffffffffffffffffffffffffffffffff1673ffffffffffffffffffffffffffffffffffffffff16815260200190815260200160002060008282546125fe9190612d9e565b925050819055508273ffffffffffffffffffffffffffffffffffffffff168473ffffffffffffffffffffffffffffffffffffffff167fddf252ad1be2c89b69c2b068fc378daa952ba7f163c4a11628f55a4df523b3ef8460405161266291906128ba565b60405180910390a3612675848484612369565b50505050565b600081519050919050565b600082825260208201905092915050565b60005b838110156126b557808201518184015260208101905061269a565b838111156126c4576000848401525b50505050565b6000601f19601f8301169050919050565b60006126e68261267b565b6126f08185612686565b9350612700818560208601612697565b612709816126ca565b840191505092915050565b6000602082019050818103600083015261272e81846126db565b905092915050565b600080fd5b600073ffffffffffffffffffffffffffffffffffffffff82169050919050565b60006127668261273b565b9050919050565b6127768161275b565b811461278157600080fd5b50565b6000813590506127938161276d565b92915050565b6000819050919050565b6127ac81612799565b81146127b757600080fd5b50565b6000813590506127c9816127a3565b92915050565b600080604083850312156127e6576127e5612736565b5b60006127f485828601612784565b9250506020612805858286016127ba565b9150509250929050565b60008115159050919050565b6128248161280f565b82525050565b600060208201905061283f600083018461281b565b92915050565b600060ff82169050919050565b61285b81612845565b811461286657600080fd5b50565b60008135905061287881612852565b92915050565b60006020828403121561289457612893612736565b5b60006128a284828501612869565b91505092915050565b6128b481612799565b82525050565b60006020820190506128cf60008301846128ab565b92915050565b6000806000606084860312156128ee576128ed612736565b5b60006128fc86828701612784565b935050602061290d86828701612784565b925050604061291e868287016127ba565b9150509250925092565b6129318161275b565b82525050565b600060208201905061294c6000830184612928565b92915050565b61295b81612845565b82525050565b60006020820190506129766000830184612952565b92915050565b60006020828403121561299257612991612736565b5b60006129a084828501612784565b91505092915050565b600080604083850312156129c0576129bf612736565b5b60006129ce85828601612784565b92505060206129df85828601612869565b9150509250929050565b6000602082840312156129ff576129fe612736565b5b6000612a0d848285016127ba565b91505092915050565b60008060408385031215612a2d57612a2c612736565b5b6000612a3b85828601612784565b9250506020612a4c85828601612784565b9150509250929050565b60008060408385031215612a6d57612a6c612736565b5b6000612a7b858286016127ba565b9250506020612a8c85828601612869565b9150509250929050565b612a9f8161280f565b8114612aaa57600080fd5b50565b600081359050612abc81612a96565b92915050565b600060208284031215612ad857612ad7612736565b5b6000612ae684828501612aad565b91505092915050565b7f4e487b7100000000000000000000000000000000000000000000000000000000600052602260045260246000fd5b60006002820490506001821680612b3657607f821691505b60208210811415612b4a57612b49612aef565b5b50919050565b7f5061757361626c653a2070617573656400000000000000000000000000000000600082015250565b6000612b86601083612686565b9150612b9182612b50565b602082019050919050565b60006020820190508181036000830152612bb581612b79565b9050919050565b7f4f776e61626c653a2063616c6c6572206973206e6f7420746865206f776e6572600082015250565b6000612bf2602083612686565b9150612bfd82612bbc565b602082019050919050565b60006020820190508181036000830152612c2181612be5565b9050919050565b7f49434f206f7074696f6e206973206e6f742076616c69642e0000000000000000600082015250565b6000612c5e601883612686565b9150612c6982612c28565b602082019050919050565b60006020820190508181036000830152612c8d81612c51565b9050919050565b7f49434f20616d6f756e74732068617665206265656e20616c726561647920756e60008201527f6c6f636b65642100000000000000000000000000000000000000000000000000602082015250565b6000612cf0602783612686565b9150612cfb82612c94565b604082019050919050565b60006020820190508181036000830152612d1f81612ce3565b9050919050565b7f4e487b7100000000000000000000000000000000000000000000000000000000600052601160045260246000fd5b6000612d6082612799565b91507fffffffffffffffffffffffffffffffffffffffffffffffffffffffffffffffff821415612d9357612d92612d26565b5b600182019050919050565b6000612da982612799565b9150612db483612799565b9250827fffffffffffffffffffffffffffffffffffffffffffffffffffffffffffffffff03821115612de957612de8612d26565b5b828201905092915050565b7f5061757361626c653a206e6f7420706175736564000000000000000000000000600082015250565b6000612e2a601483612686565b9150612e3582612df4565b602082019050919050565b60006020820190508181036000830152612e5981612e1d565b9050919050565b6000612e6b82612845565b915060ff821415612e7f57612e7e612d26565b5b600182019050919050565b6000604082019050612e9f6000830185612928565b612eac60208301846128ab565b9392505050565b7f45524332303a2064656372656173656420616c6c6f77616e63652062656c6f7760008201527f207a65726f000000000000000000000000000000000000000000000000000000602082015250565b6000612f0f602583612686565b9150612f1a82612eb3565b604082019050919050565b60006020820190508181036000830152612f3e81612f02565b9050919050565b6000819050919050565b6000819050919050565b6000612f74612f6f612f6a84612f45565b612f4f565b612845565b9050919050565b612f8481612f59565b82525050565b6000606082019050612f9f6000830186612928565b612fac60208301856128ab565b612fb96040830184612f7b565b949350505050565b7f49434f206973206f766572000000000000000000000000000000000000000000600082015250565b6000612ff7600b83612686565b915061300282612fc1565b602082019050919050565b6000602082019050818103600083015261302681612fea565b9050919050565b7f4d696e696d756d20616d6f756e74206e6f742065786365656465640000000000600082015250565b6000613063601b83612686565b915061306e8261302d565b602082019050919050565b6000602082019050818103600083015261309281613056565b9050919050565b7f4d6178696d756d20616d6f756e74206578636565646564000000000000000000600082015250565b60006130cf601783612686565b91506130da82613099565b602082019050919050565b600060208201905081810360008301526130fe816130c2565b9050919050565b7f4d6178696d756d2049434f20737570706c792065786365656465640000000000600082015250565b600061313b601b83612686565b915061314682613105565b602082019050919050565b6000602082019050818103600083015261316a8161312e565b9050919050565b7f4d6178696d756d2049434f20737570706c7920706572206163636f756e74206560008201527f7863656564656400000000000000000000000000000000000000000000000000602082015250565b60006131cd602783612686565b91506131d882613171565b604082019050919050565b600060208201905081810360008301526131fc816131c0565b9050919050565b600061320e82612799565b915061321983612799565b9250817fffffffffffffffffffffffffffffffffffffffffffffffffffffffffffffffff048311821515161561325257613251612d26565b5b828202905092915050565b7f4e487b7100000000000000000000000000000000000000000000000000000000600052601260045260246000fd5b600061329782612799565b91506132a283612799565b9250826132b2576132b161325d565b5b828204905092915050565b60006060820190506132d26000830186612928565b6132df6020830185612928565b6132ec60408301846128ab565b949350505050565b60008151905061330381612a96565b92915050565b60006020828403121561331f5761331e612736565b5b600061332d848285016132f4565b91505092915050565b600060608201905061334b6000830186612928565b61335860208301856128ab565b6133656040830184612952565b949350505050565b7f4f776e61626c653a206e6577206f776e657220697320746865207a65726f206160008201527f6464726573730000000000000000000000000000000000000000000000000000602082015250565b60006133c9602683612686565b91506133d48261336d565b604082019050919050565b600060208201905081810360008301526133f8816133bc565b9050919050565b7f45524332303a206d696e7420746f20746865207a65726f206164647265737300600082015250565b6000613435601f83612686565b9150613440826133ff565b602082019050919050565b6000602082019050818103600083015261346481613428565b9050919050565b7f45524332303a20617070726f76652066726f6d20746865207a65726f2061646460008201527f7265737300000000000000000000000000000000000000000000000000000000602082015250565b60006134c7602483612686565b91506134d28261346b565b604082019050919050565b600060208201905081810360008301526134f6816134ba565b9050919050565b7f45524332303a20617070726f766520746f20746865207a65726f20616464726560008201527f7373000000000000000000000000000000000000000000000000000000000000602082015250565b6000613559602283612686565b9150613564826134fd565b604082019050919050565b600060208201905081810360008301526135888161354c565b9050919050565b7f45524332303a206275726e2066726f6d20746865207a65726f2061646472657360008201527f7300000000000000000000000000000000000000000000000000000000000000602082015250565b60006135eb602183612686565b91506135f68261358f565b604082019050919050565b6000602082019050818103600083015261361a816135de565b9050919050565b7f45524332303a206275726e20616d6f756e7420657863656564732062616c616e60008201527f6365000000000000000000000000000000000000000000000000000000000000602082015250565b600061367d602283612686565b915061368882613621565b604082019050919050565b600060208201905081810360008301526136ac81613670565b9050919050565b60006136be82612799565b91506136c983612799565b9250828210156136dc576136db612d26565b5b828203905092915050565b7f45524332303a20696e73756666696369656e7420616c6c6f77616e6365000000600082015250565b600061371d601d83612686565b9150613728826136e7565b602082019050919050565b6000602082019050818103600083015261374c81613710565b9050919050565b7f45524332303a207472616e736665722066726f6d20746865207a65726f20616460008201527f6472657373000000000000000000000000000000000000000000000000000000602082015250565b60006137af602583612686565b91506137ba82613753565b604082019050919050565b600060208201905081810360008301526137de816137a2565b9050919050565b7f45524332303a207472616e7366657220746f20746865207a65726f206164647260008201527f6573730000000000000000000000000000000000000000000000000000000000602082015250565b6000613841602383612686565b915061384c826137e5565b604082019050919050565b6000602082019050818103600083015261387081613834565b9050919050565b7f45524332303a207472616e7366657220616d6f756e742065786365656473206260008201527f616c616e63650000000000000000000000000000000000000000000000000000602082015250565b60006138d3602683612686565b91506138de82613877565b604082019050919050565b60006020820190508181036000830152613902816138c6565b905091905056fea2646970667358221220eb8b9cbddf5f139ba4bc7eedff5d89ddd33d9a2d22ab360be98036ac8f8f4aa564736f6c634300080c0033",
  "immutableReferences": {},
  "source": "// SPDX-License-Identifier: MIT\npragma solidity =0.8.12;\n\nimport \"./MovyBase.sol\";\n\n// DUMMY TOKEN\n\ncontract Bayram is MovyBase {\n    constructor(address _movy) MovyBase(\"Bayram Token\", \"BAY\", 2) {\n        paymentToken = _movy;\n        mintForTreasure(10000000); // 1000\n        ICO_OPTIONS[1] = ICOOption({\n            minMint: 100000, // 30\n            maxMint: 600000, // 60\n            limit: 1000000, // 100\n            price: 5000, // 0.5 MOVY\n            isLocked: false,\n            isAmountUnlocked: true,\n            totalMinted: 0\n        });\n        ICO_OPTIONS[2] = ICOOption({\n            minMint: 100000, // 10\n            maxMint: 200000, // 20\n            limit: 500000, // 50\n            price: 2500, // 0.25 MOVY\n            isLocked: true,\n            isAmountUnlocked: false,\n            totalMinted: 0\n        });\n    }\n}\n",
  "sourcePath": "/home/ismail/blockchain/mf_contracts/contracts/Bayram.sol",
  "compiler": {
    "name": "solc",
    "version": "0.8.12+commit.f00d7308.Emscripten.clang"
  },
  "schemaVersion": "3.4.4",
  "updatedAt": "2022-03-22T21:44:51.262Z",
  "networkType": "ethereum",
  "devdoc": {
    "kind": "dev",
    "methods": {
      "allowance(address,address)": {
        "details": "See {IERC20-allowance}."
      },
      "approve(address,uint256)": {
        "details": "See {IERC20-approve}. NOTE: If `amount` is the maximum `uint256`, the allowance is not updated on `transferFrom`. This is semantically equivalent to an infinite approval. Requirements: - `spender` cannot be the zero address."
      },
      "balanceOf(address)": {
        "details": "See {IERC20-balanceOf}."
      },
      "decimals()": {
        "details": "Returns the number of decimals used to get its user representation. For example, if `decimals` equals `2`, a balance of `505` tokens should be displayed to a user as `5.05` (`505 / 10 ** 2`). Tokens usually opt for a value of 18, imitating the relationship between Ether and Wei. This is the value {ERC20} uses, unless this function is overridden; NOTE: This information is only used for _display_ purposes: it in no way affects any of the arithmetic of the contract, including {IERC20-balanceOf} and {IERC20-transfer}."
      },
      "decreaseAllowance(address,uint256)": {
        "details": "Atomically decreases the allowance granted to `spender` by the caller. This is an alternative to {approve} that can be used as a mitigation for problems described in {IERC20-approve}. Emits an {Approval} event indicating the updated allowance. Requirements: - `spender` cannot be the zero address. - `spender` must have allowance for the caller of at least `subtractedValue`."
      },
      "increaseAllowance(address,uint256)": {
        "details": "Atomically increases the allowance granted to `spender` by the caller. This is an alternative to {approve} that can be used as a mitigation for problems described in {IERC20-approve}. Emits an {Approval} event indicating the updated allowance. Requirements: - `spender` cannot be the zero address."
      },
      "name()": {
        "details": "Returns the name of the token."
      },
      "owner()": {
        "details": "Returns the address of the current owner."
      },
      "paused()": {
        "details": "Returns true if the contract is paused, and false otherwise."
      },
      "renounceOwnership()": {
        "details": "Leaves the contract without owner. It will not be possible to call `onlyOwner` functions anymore. Can only be called by the current owner. NOTE: Renouncing ownership will leave the contract without an owner, thereby removing any functionality that is only available to the owner."
      },
      "symbol()": {
        "details": "Returns the symbol of the token, usually a shorter version of the name."
      },
      "totalSupply()": {
        "details": "See {IERC20-totalSupply}."
      },
      "transfer(address,uint256)": {
        "details": "See {IERC20-transfer}. Requirements: - `to` cannot be the zero address. - the caller must have a balance of at least `amount`."
      },
      "transferFrom(address,address,uint256)": {
        "details": "See {IERC20-transferFrom}. Emits an {Approval} event indicating the updated allowance. This is not required by the EIP. See the note at the beginning of {ERC20}. NOTE: Does not update the allowance if the current allowance is the maximum `uint256`. Requirements: - `from` and `to` cannot be the zero address. - `from` must have a balance of at least `amount`. - the caller must have allowance for ``from``'s tokens of at least `amount`."
      },
      "transferOwnership(address)": {
        "details": "Transfers ownership of the contract to a new account (`newOwner`). Can only be called by the current owner."
      }
    },
    "version": 1
  },
  "userdoc": {
    "kind": "user",
    "methods": {},
    "version": 1
  }
}