{
  "contractName": "MovieFoley",
  "abi": [
    {
      "inputs": [],
      "stateMutability": "nonpayable",
      "type": "constructor"
    },
    {
      "inputs": [
        {
          "internalType": "address",
          "name": "_address",
          "type": "address"
        }
      ],
      "name": "getBalance",
      "outputs": [
        {
          "internalType": "uint256",
          "name": "",
          "type": "uint256"
        }
      ],
      "stateMutability": "view",
      "type": "function"
    },
    {
      "inputs": [
        {
          "internalType": "address",
          "name": "_address",
          "type": "address"
        },
        {
          "internalType": "uint256",
          "name": "amount",
          "type": "uint256"
        }
      ],
      "name": "updateBalance",
      "outputs": [],
      "stateMutability": "nonpayable",
      "type": "function"
    }
  ],
  "bytecode": "0x608060405234801561001057600080fd5b50600033905060646000808373ffffffffffffffffffffffffffffffffffffffff1673ffffffffffffffffffffffffffffffffffffffff168152602001908152602001600020819055505061027c8061006a6000396000f3fe608060405234801561001057600080fd5b50600436106100365760003560e01c8063e0b1cccb1461003b578063f8b2cb4f14610057575b600080fd5b610055600480360381019061005091906101af565b610087565b005b610071600480360381019061006c91906101ef565b6100ce565b60405161007e919061022b565b60405180910390f35b806000808473ffffffffffffffffffffffffffffffffffffffff1673ffffffffffffffffffffffffffffffffffffffff168152602001908152602001600020819055505050565b60008060008373ffffffffffffffffffffffffffffffffffffffff1673ffffffffffffffffffffffffffffffffffffffff168152602001908152602001600020549050919050565b600080fd5b600073ffffffffffffffffffffffffffffffffffffffff82169050919050565b60006101468261011b565b9050919050565b6101568161013b565b811461016157600080fd5b50565b6000813590506101738161014d565b92915050565b6000819050919050565b61018c81610179565b811461019757600080fd5b50565b6000813590506101a981610183565b92915050565b600080604083850312156101c6576101c5610116565b5b60006101d485828601610164565b92505060206101e58582860161019a565b9150509250929050565b60006020828403121561020557610204610116565b5b600061021384828501610164565b91505092915050565b61022581610179565b82525050565b6000602082019050610240600083018461021c565b9291505056fea2646970667358221220065529856a4bb6f463eb6055e44998b6bcd3bb768ebc53cdbabcd822e4999a7564736f6c634300080b0033",
  "immutableReferences": {},
  "source": "// SPDX-License-Identifier: MIT\npragma solidity >=0.4.22 <0.9.0;\n\ncontract MovieFoley {\n    mapping(address => uint256) private balances;\n\n    constructor() {\n        address owner = msg.sender;\n        balances[owner] = 100;\n    }\n\n    function getBalance(address _address) public view returns (uint256) {\n        return balances[_address];\n    }\n\n    function updateBalance(address _address, uint256 amount) public {\n        balances[_address] = amount;\n    }\n}\n",
  "sourcePath": "/home/ismail/blockchain/mf_contracts/contracts/MovieFoley.sol",
  "compiler": {
    "name": "solc",
    "version": "0.8.11+commit.d7f03943.Emscripten.clang"
  },
  "schemaVersion": "3.4.4",
  "updatedAt": "2022-03-07T19:10:44.147Z",
  "devdoc": {
    "kind": "dev",
    "methods": {},
    "version": 1
  },
  "userdoc": {
    "kind": "user",
    "methods": {},
    "version": 1
  }
}