{
  "contractName": "MovieFoley",
  "abi": [
    {
      "inputs": [],
      "stateMutability": "nonpayable",
      "type": "constructor"
    },
    {
      "anonymous": false,
      "inputs": [
        {
          "indexed": true,
          "internalType": "address",
          "name": "owner",
          "type": "address"
        },
        {
          "indexed": true,
          "internalType": "address",
          "name": "spender",
          "type": "address"
        },
        {
          "indexed": false,
          "internalType": "uint256",
          "name": "value",
          "type": "uint256"
        }
      ],
      "name": "Approval",
      "type": "event"
    },
    {
      "anonymous": false,
      "inputs": [
        {
          "indexed": false,
          "internalType": "address",
          "name": "addr",
          "type": "address"
        },
        {
          "indexed": false,
          "internalType": "uint256",
          "name": "amount",
          "type": "uint256"
        }
      ],
      "name": "Burned",
      "type": "event"
    },
    {
      "anonymous": false,
      "inputs": [
        {
          "indexed": false,
          "internalType": "address",
          "name": "addr",
          "type": "address"
        },
        {
          "indexed": false,
          "internalType": "uint256",
          "name": "amount",
          "type": "uint256"
        }
      ],
      "name": "Minted",
      "type": "event"
    },
    {
      "anonymous": false,
      "inputs": [
        {
          "indexed": true,
          "internalType": "address",
          "name": "previousOwner",
          "type": "address"
        },
        {
          "indexed": true,
          "internalType": "address",
          "name": "newOwner",
          "type": "address"
        }
      ],
      "name": "OwnershipTransferred",
      "type": "event"
    },
    {
      "anonymous": false,
      "inputs": [
        {
          "indexed": false,
          "internalType": "address",
          "name": "account",
          "type": "address"
        }
      ],
      "name": "Paused",
      "type": "event"
    },
    {
      "anonymous": false,
      "inputs": [
        {
          "indexed": true,
          "internalType": "address",
          "name": "from",
          "type": "address"
        },
        {
          "indexed": true,
          "internalType": "address",
          "name": "to",
          "type": "address"
        },
        {
          "indexed": false,
          "internalType": "uint256",
          "name": "value",
          "type": "uint256"
        }
      ],
      "name": "Transfer",
      "type": "event"
    },
    {
      "anonymous": false,
      "inputs": [
        {
          "indexed": false,
          "internalType": "address",
          "name": "account",
          "type": "address"
        }
      ],
      "name": "Unpaused",
      "type": "event"
    },
    {
      "inputs": [
        {
          "internalType": "address",
          "name": "owner",
          "type": "address"
        },
        {
          "internalType": "address",
          "name": "spender",
          "type": "address"
        }
      ],
      "name": "allowance",
      "outputs": [
        {
          "internalType": "uint256",
          "name": "",
          "type": "uint256"
        }
      ],
      "stateMutability": "view",
      "type": "function",
      "constant": true
    },
    {
      "inputs": [
        {
          "internalType": "address",
          "name": "account",
          "type": "address"
        }
      ],
      "name": "balanceOf",
      "outputs": [
        {
          "internalType": "uint256",
          "name": "",
          "type": "uint256"
        }
      ],
      "stateMutability": "view",
      "type": "function",
      "constant": true
    },
    {
      "inputs": [
        {
          "internalType": "address",
          "name": "spender",
          "type": "address"
        },
        {
          "internalType": "uint256",
          "name": "subtractedValue",
          "type": "uint256"
        }
      ],
      "name": "decreaseAllowance",
      "outputs": [
        {
          "internalType": "bool",
          "name": "",
          "type": "bool"
        }
      ],
      "stateMutability": "nonpayable",
      "type": "function"
    },
    {
      "inputs": [
        {
          "internalType": "address",
          "name": "spender",
          "type": "address"
        },
        {
          "internalType": "uint256",
          "name": "addedValue",
          "type": "uint256"
        }
      ],
      "name": "increaseAllowance",
      "outputs": [
        {
          "internalType": "bool",
          "name": "",
          "type": "bool"
        }
      ],
      "stateMutability": "nonpayable",
      "type": "function"
    },
    {
      "inputs": [],
      "name": "name",
      "outputs": [
        {
          "internalType": "string",
          "name": "",
          "type": "string"
        }
      ],
      "stateMutability": "view",
      "type": "function",
      "constant": true
    },
    {
      "inputs": [],
      "name": "owner",
      "outputs": [
        {
          "internalType": "address",
          "name": "",
          "type": "address"
        }
      ],
      "stateMutability": "view",
      "type": "function",
      "constant": true
    },
    {
      "inputs": [],
      "name": "paused",
      "outputs": [
        {
          "internalType": "bool",
          "name": "",
          "type": "bool"
        }
      ],
      "stateMutability": "view",
      "type": "function",
      "constant": true
    },
    {
      "inputs": [],
      "name": "renounceOwnership",
      "outputs": [],
      "stateMutability": "nonpayable",
      "type": "function"
    },
    {
      "inputs": [],
      "name": "symbol",
      "outputs": [
        {
          "internalType": "string",
          "name": "",
          "type": "string"
        }
      ],
      "stateMutability": "view",
      "type": "function",
      "constant": true
    },
    {
      "inputs": [],
      "name": "totalSupply",
      "outputs": [
        {
          "internalType": "uint256",
          "name": "",
          "type": "uint256"
        }
      ],
      "stateMutability": "view",
      "type": "function",
      "constant": true
    },
    {
      "inputs": [
        {
          "internalType": "address",
          "name": "from",
          "type": "address"
        },
        {
          "internalType": "address",
          "name": "to",
          "type": "address"
        },
        {
          "internalType": "uint256",
          "name": "amount",
          "type": "uint256"
        }
      ],
      "name": "transferFrom",
      "outputs": [
        {
          "internalType": "bool",
          "name": "",
          "type": "bool"
        }
      ],
      "stateMutability": "nonpayable",
      "type": "function"
    },
    {
      "inputs": [
        {
          "internalType": "address",
          "name": "newOwner",
          "type": "address"
        }
      ],
      "name": "transferOwnership",
      "outputs": [],
      "stateMutability": "nonpayable",
      "type": "function"
    },
    {
      "inputs": [],
      "name": "decimals",
      "outputs": [
        {
          "internalType": "uint8",
          "name": "",
          "type": "uint8"
        }
      ],
      "stateMutability": "view",
      "type": "function",
      "constant": true
    },
    {
      "inputs": [],
      "name": "pause",
      "outputs": [],
      "stateMutability": "nonpayable",
      "type": "function"
    },
    {
      "inputs": [],
      "name": "unpause",
      "outputs": [],
      "stateMutability": "nonpayable",
      "type": "function"
    },
    {
      "inputs": [
        {
          "internalType": "address",
          "name": "from",
          "type": "address"
        },
        {
          "internalType": "uint256",
          "name": "amount",
          "type": "uint256"
        }
      ],
      "name": "burn",
      "outputs": [],
      "stateMutability": "nonpayable",
      "type": "function"
    },
    {
      "inputs": [
        {
          "internalType": "uint256",
          "name": "amount",
          "type": "uint256"
        }
      ],
      "name": "mintForTreasure",
      "outputs": [],
      "stateMutability": "nonpayable",
      "type": "function"
    },
    {
      "inputs": [
        {
          "internalType": "address",
          "name": "to",
          "type": "address"
        },
        {
          "internalType": "uint256",
          "name": "amount",
          "type": "uint256"
        }
      ],
      "name": "transfer",
      "outputs": [
        {
          "internalType": "bool",
          "name": "",
          "type": "bool"
        }
      ],
      "stateMutability": "nonpayable",
      "type": "function"
    },
    {
      "inputs": [
        {
          "internalType": "address",
          "name": "spender",
          "type": "address"
        },
        {
          "internalType": "uint256",
          "name": "amount",
          "type": "uint256"
        }
      ],
      "name": "approve",
      "outputs": [
        {
          "internalType": "bool",
          "name": "",
          "type": "bool"
        }
      ],
      "stateMutability": "nonpayable",
      "type": "function"
    },
    {
      "inputs": [
        {
          "internalType": "address",
          "name": "_spender",
          "type": "address"
        },
        {
          "internalType": "uint256",
          "name": "_value",
          "type": "uint256"
        }
      ],
      "name": "approveAndCall",
      "outputs": [],
      "stateMutability": "nonpayable",
      "type": "function"
    }
  ],
  "bytecode": "0x60806040526040518060400160405280601181526020017f4d6f76696520466f6c657920546f6b656e0000000000000000000000000000008152506006908051906020019062000051929190620005f9565b506040518060400160405280600481526020017f4d4f565900000000000000000000000000000000000000000000000000000000815250600790805190602001906200009f929190620005f9565b506004600860006101000a81548160ff021916908360ff1602179055506445d964b800600955348015620000d257600080fd5b5060068054620000e290620006d8565b80601f01602080910402602001604051908101604052809291908181526020018280546200011090620006d8565b8015620001615780601f10620001355761010080835404028352916020019162000161565b820191906000526020600020905b8154815290600101906020018083116200014357829003601f168201915b5050505050600780546200017590620006d8565b80601f0160208091040260200160405190810160405280929190818152602001828054620001a390620006d8565b8015620001f45780601f10620001c857610100808354040283529160200191620001f4565b820191906000526020600020905b815481529060010190602001808311620001d657829003601f168201915b5050505050816003908051906020019062000211929190620005f9565b5080600490805190602001906200022a929190620005f9565b5050506200024d620002416200028160201b60201c565b6200028960201b60201c565b6000600560146101000a81548160ff0219169083151502179055506200027b6009546200034f60201b60201c565b62000939565b600033905090565b6000600560009054906101000a900473ffffffffffffffffffffffffffffffffffffffff16905081600560006101000a81548173ffffffffffffffffffffffffffffffffffffffff021916908373ffffffffffffffffffffffffffffffffffffffff1602179055508173ffffffffffffffffffffffffffffffffffffffff168173ffffffffffffffffffffffffffffffffffffffff167f8be0079c531659141344cd1fd0a4f28419497f9722a3daafe3b4186f6b6457e060405160405180910390a35050565b6200035f6200028160201b60201c565b73ffffffffffffffffffffffffffffffffffffffff16620003856200044c60201b60201c565b73ffffffffffffffffffffffffffffffffffffffff1614620003de576040517f08c379a0000000000000000000000000000000000000000000000000000000008152600401620003d5906200076f565b60405180910390fd5b620003ff620003f26200044c60201b60201c565b826200047660201b60201c565b7f30385c845b448a36257a6a1716e6ad2e1bc2cbe333cde1e69fe849ad6511adfe620004306200044c60201b60201c565b8260405162000441929190620007f1565b60405180910390a150565b6000600560009054906101000a900473ffffffffffffffffffffffffffffffffffffffff16905090565b600073ffffffffffffffffffffffffffffffffffffffff168273ffffffffffffffffffffffffffffffffffffffff161415620004e9576040517f08c379a0000000000000000000000000000000000000000000000000000000008152600401620004e0906200086e565b60405180910390fd5b620004fd60008383620005ef60201b60201c565b8060026000828254620005119190620008bf565b92505081905550806000808473ffffffffffffffffffffffffffffffffffffffff1673ffffffffffffffffffffffffffffffffffffffff1681526020019081526020016000206000828254620005689190620008bf565b925050819055508173ffffffffffffffffffffffffffffffffffffffff16600073ffffffffffffffffffffffffffffffffffffffff167fddf252ad1be2c89b69c2b068fc378daa952ba7f163c4a11628f55a4df523b3ef83604051620005cf91906200091c565b60405180910390a3620005eb60008383620005f460201b60201c565b5050565b505050565b505050565b8280546200060790620006d8565b90600052602060002090601f0160209004810192826200062b576000855562000677565b82601f106200064657805160ff191683800117855562000677565b8280016001018555821562000677579182015b828111156200067657825182559160200191906001019062000659565b5b5090506200068691906200068a565b5090565b5b80821115620006a55760008160009055506001016200068b565b5090565b7f4e487b7100000000000000000000000000000000000000000000000000000000600052602260045260246000fd5b60006002820490506001821680620006f157607f821691505b60208210811415620007085762000707620006a9565b5b50919050565b600082825260208201905092915050565b7f4f776e61626c653a2063616c6c6572206973206e6f7420746865206f776e6572600082015250565b6000620007576020836200070e565b915062000764826200071f565b602082019050919050565b600060208201905081810360008301526200078a8162000748565b9050919050565b600073ffffffffffffffffffffffffffffffffffffffff82169050919050565b6000620007be8262000791565b9050919050565b620007d081620007b1565b82525050565b6000819050919050565b620007eb81620007d6565b82525050565b6000604082019050620008086000830185620007c5565b620008176020830184620007e0565b9392505050565b7f45524332303a206d696e7420746f20746865207a65726f206164647265737300600082015250565b600062000856601f836200070e565b915062000863826200081e565b602082019050919050565b60006020820190508181036000830152620008898162000847565b9050919050565b7f4e487b7100000000000000000000000000000000000000000000000000000000600052601160045260246000fd5b6000620008cc82620007d6565b9150620008d983620007d6565b9250827fffffffffffffffffffffffffffffffffffffffffffffffffffffffffffffffff0382111562000911576200091062000890565b5b828201905092915050565b6000602082019050620009336000830184620007e0565b92915050565b61243d80620009496000396000f3fe608060405234801561001057600080fd5b506004361061012c5760003560e01c8063715018a6116100ad578063a457c2d711610071578063a457c2d7146102fb578063a9059cbb1461032b578063b8d404eb1461035b578063dd62ed3e14610377578063f2fde38b146103a75761012c565b8063715018a61461028f5780638456cb59146102995780638da5cb5b146102a357806395d89b41146102c15780639dc29fac146102df5761012c565b80633177029f116100f45780633177029f146101eb57806339509351146102075780633f4ba83a146102375780635c975abb1461024157806370a082311461025f5761012c565b806306fdde0314610131578063095ea7b31461014f57806318160ddd1461017f57806323b872dd1461019d578063313ce567146101cd575b600080fd5b6101396103c3565b60405161014691906118dd565b60405180910390f35b61016960048036038101906101649190611998565b610455565b60405161017691906119f3565b60405180910390f35b6101876104b1565b6040516101949190611a1d565b60405180910390f35b6101b760048036038101906101b29190611a38565b6104bb565b6040516101c491906119f3565b60405180910390f35b6101d56104ea565b6040516101e29190611aa7565b60405180910390f35b61020560048036038101906102009190611998565b610501565b005b610221600480360381019061021c9190611998565b610592565b60405161022e91906119f3565b60405180910390f35b61023f61063c565b005b610249610709565b60405161025691906119f3565b60405180910390f35b61027960048036038101906102749190611ac2565b610720565b6040516102869190611a1d565b60405180910390f35b610297610768565b005b6102a16107f0565b005b6102ab6108be565b6040516102b89190611afe565b60405180910390f35b6102c96108e8565b6040516102d691906118dd565b60405180910390f35b6102f960048036038101906102f49190611998565b61097a565b005b61031560048036038101906103109190611998565b610a3d565b60405161032291906119f3565b60405180910390f35b61034560048036038101906103409190611998565b610b27565b60405161035291906119f3565b60405180910390f35b61037560048036038101906103709190611b19565b610b83565b005b610391600480360381019061038c9190611b46565b610c53565b60405161039e9190611a1d565b60405180910390f35b6103c160048036038101906103bc9190611ac2565b610cda565b005b6060600380546103d290611bb5565b80601f01602080910402602001604051908101604052809291908181526020018280546103fe90611bb5565b801561044b5780601f106104205761010080835404028352916020019161044b565b820191906000526020600020905b81548152906001019060200180831161042e57829003601f168201915b5050505050905090565b600061045f610709565b1561049f576040517f08c379a000000000000000000000000000000000000000000000000000000000815260040161049690611c33565b60405180910390fd5b6104a98383610dd2565b905092915050565b6000600254905090565b6000806104c6610df5565b90506104d3858285610dfd565b6104de858585610e89565b60019150509392505050565b6000600860009054906101000a900460ff16905090565b61050b8282610455565b61051457600080fd5b60008290508073ffffffffffffffffffffffffffffffffffffffff16634bdf1b0e61053d610df5565b846040518363ffffffff1660e01b815260040161055b929190611c53565b600060405180830381600087803b15801561057557600080fd5b505af1158015610589573d6000803e3d6000fd5b50505050505050565b60008061059d610df5565b9050610631818585600160008673ffffffffffffffffffffffffffffffffffffffff1673ffffffffffffffffffffffffffffffffffffffff16815260200190815260200160002060008973ffffffffffffffffffffffffffffffffffffffff1673ffffffffffffffffffffffffffffffffffffffff1681526020019081526020016000205461062c9190611cab565b61110a565b600191505092915050565b610644610709565b610683576040517f08c379a000000000000000000000000000000000000000000000000000000000815260040161067a90611d4d565b60405180910390fd5b61068b610df5565b73ffffffffffffffffffffffffffffffffffffffff166106a96108be565b73ffffffffffffffffffffffffffffffffffffffff16146106ff576040517f08c379a00000000000000000000000000000000000000000000000000000000081526004016106f690611db9565b60405180910390fd5b6107076112d5565b565b6000600560149054906101000a900460ff16905090565b60008060008373ffffffffffffffffffffffffffffffffffffffff1673ffffffffffffffffffffffffffffffffffffffff168152602001908152602001600020549050919050565b610770610df5565b73ffffffffffffffffffffffffffffffffffffffff1661078e6108be565b73ffffffffffffffffffffffffffffffffffffffff16146107e4576040517f08c379a00000000000000000000000000000000000000000000000000000000081526004016107db90611db9565b60405180910390fd5b6107ee6000611377565b565b6107f8610709565b15610838576040517f08c379a000000000000000000000000000000000000000000000000000000000815260040161082f90611c33565b60405180910390fd5b610840610df5565b73ffffffffffffffffffffffffffffffffffffffff1661085e6108be565b73ffffffffffffffffffffffffffffffffffffffff16146108b4576040517f08c379a00000000000000000000000000000000000000000000000000000000081526004016108ab90611db9565b60405180910390fd5b6108bc61143d565b565b6000600560009054906101000a900473ffffffffffffffffffffffffffffffffffffffff16905090565b6060600480546108f790611bb5565b80601f016020809104026020016040519081016040528092919081815260200182805461092390611bb5565b80156109705780601f1061094557610100808354040283529160200191610970565b820191906000526020600020905b81548152906001019060200180831161095357829003601f168201915b5050505050905090565b610982610df5565b73ffffffffffffffffffffffffffffffffffffffff166109a06108be565b73ffffffffffffffffffffffffffffffffffffffff16146109f6576040517f08c379a00000000000000000000000000000000000000000000000000000000081526004016109ed90611db9565b60405180910390fd5b610a0082826114e0565b7f696de425f79f4a40bc6d2122ca50507f0efbeabbff86a84871b7196ab8ea8df78282604051610a31929190611c53565b60405180910390a15050565b600080610a48610df5565b90506000600160008373ffffffffffffffffffffffffffffffffffffffff1673ffffffffffffffffffffffffffffffffffffffff16815260200190815260200160002060008673ffffffffffffffffffffffffffffffffffffffff1673ffffffffffffffffffffffffffffffffffffffff16815260200190815260200160002054905083811015610b0e576040517f08c379a0000000000000000000000000000000000000000000000000000000008152600401610b0590611e4b565b60405180910390fd5b610b1b828686840361110a565b60019250505092915050565b6000610b31610709565b15610b71576040517f08c379a0000000000000000000000000000000000000000000000000000000008152600401610b6890611c33565b60405180910390fd5b610b7b83836116b7565b905092915050565b610b8b610df5565b73ffffffffffffffffffffffffffffffffffffffff16610ba96108be565b73ffffffffffffffffffffffffffffffffffffffff1614610bff576040517f08c379a0000000000000000000000000000000000000000000000000000000008152600401610bf690611db9565b60405180910390fd5b610c10610c0a6108be565b826116da565b7f30385c845b448a36257a6a1716e6ad2e1bc2cbe333cde1e69fe849ad6511adfe610c396108be565b82604051610c48929190611c53565b60405180910390a150565b6000600160008473ffffffffffffffffffffffffffffffffffffffff1673ffffffffffffffffffffffffffffffffffffffff16815260200190815260200160002060008373ffffffffffffffffffffffffffffffffffffffff1673ffffffffffffffffffffffffffffffffffffffff16815260200190815260200160002054905092915050565b610ce2610df5565b73ffffffffffffffffffffffffffffffffffffffff16610d006108be565b73ffffffffffffffffffffffffffffffffffffffff1614610d56576040517f08c379a0000000000000000000000000000000000000000000000000000000008152600401610d4d90611db9565b60405180910390fd5b600073ffffffffffffffffffffffffffffffffffffffff168173ffffffffffffffffffffffffffffffffffffffff161415610dc6576040517f08c379a0000000000000000000000000000000000000000000000000000000008152600401610dbd90611edd565b60405180910390fd5b610dcf81611377565b50565b600080610ddd610df5565b9050610dea81858561110a565b600191505092915050565b600033905090565b6000610e098484610c53565b90507fffffffffffffffffffffffffffffffffffffffffffffffffffffffffffffffff8114610e835781811015610e75576040517f08c379a0000000000000000000000000000000000000000000000000000000008152600401610e6c90611f49565b60405180910390fd5b610e82848484840361110a565b5b50505050565b600073ffffffffffffffffffffffffffffffffffffffff168373ffffffffffffffffffffffffffffffffffffffff161415610ef9576040517f08c379a0000000000000000000000000000000000000000000000000000000008152600401610ef090611fdb565b60405180910390fd5b600073ffffffffffffffffffffffffffffffffffffffff168273ffffffffffffffffffffffffffffffffffffffff161415610f69576040517f08c379a0000000000000000000000000000000000000000000000000000000008152600401610f609061206d565b60405180910390fd5b610f7483838361183a565b60008060008573ffffffffffffffffffffffffffffffffffffffff1673ffffffffffffffffffffffffffffffffffffffff16815260200190815260200160002054905081811015610ffa576040517f08c379a0000000000000000000000000000000000000000000000000000000008152600401610ff1906120ff565b60405180910390fd5b8181036000808673ffffffffffffffffffffffffffffffffffffffff1673ffffffffffffffffffffffffffffffffffffffff16815260200190815260200160002081905550816000808573ffffffffffffffffffffffffffffffffffffffff1673ffffffffffffffffffffffffffffffffffffffff168152602001908152602001600020600082825461108d9190611cab565b925050819055508273ffffffffffffffffffffffffffffffffffffffff168473ffffffffffffffffffffffffffffffffffffffff167fddf252ad1be2c89b69c2b068fc378daa952ba7f163c4a11628f55a4df523b3ef846040516110f19190611a1d565b60405180910390a361110484848461183f565b50505050565b600073ffffffffffffffffffffffffffffffffffffffff168373ffffffffffffffffffffffffffffffffffffffff16141561117a576040517f08c379a000000000000000000000000000000000000000000000000000000000815260040161117190612191565b60405180910390fd5b600073ffffffffffffffffffffffffffffffffffffffff168273ffffffffffffffffffffffffffffffffffffffff1614156111ea576040517f08c379a00000000000000000000000000000000000000000000000000000000081526004016111e190612223565b60405180910390fd5b80600160008573ffffffffffffffffffffffffffffffffffffffff1673ffffffffffffffffffffffffffffffffffffffff16815260200190815260200160002060008473ffffffffffffffffffffffffffffffffffffffff1673ffffffffffffffffffffffffffffffffffffffff168152602001908152602001600020819055508173ffffffffffffffffffffffffffffffffffffffff168373ffffffffffffffffffffffffffffffffffffffff167f8c5be1e5ebec7d5bd14f71427d1e84f3dd0314c0f7b2291e5b200ac8c7c3b925836040516112c89190611a1d565b60405180910390a3505050565b6112dd610709565b61131c576040517f08c379a000000000000000000000000000000000000000000000000000000000815260040161131390611d4d565b60405180910390fd5b6000600560146101000a81548160ff0219169083151502179055507f5db9ee0a495bf2e6ff9c91a7834c1ba4fdd244a5e8aa4e537bd38aeae4b073aa611360610df5565b60405161136d9190611afe565b60405180910390a1565b6000600560009054906101000a900473ffffffffffffffffffffffffffffffffffffffff16905081600560006101000a81548173ffffffffffffffffffffffffffffffffffffffff021916908373ffffffffffffffffffffffffffffffffffffffff1602179055508173ffffffffffffffffffffffffffffffffffffffff168173ffffffffffffffffffffffffffffffffffffffff167f8be0079c531659141344cd1fd0a4f28419497f9722a3daafe3b4186f6b6457e060405160405180910390a35050565b611445610709565b15611485576040517f08c379a000000000000000000000000000000000000000000000000000000000815260040161147c90611c33565b60405180910390fd5b6001600560146101000a81548160ff0219169083151502179055507f62e78cea01bee320cd4e420270b5ea74000d11b0c9f74754ebdbfc544b05a2586114c9610df5565b6040516114d69190611afe565b60405180910390a1565b600073ffffffffffffffffffffffffffffffffffffffff168273ffffffffffffffffffffffffffffffffffffffff161415611550576040517f08c379a0000000000000000000000000000000000000000000000000000000008152600401611547906122b5565b60405180910390fd5b61155c8260008361183a565b60008060008473ffffffffffffffffffffffffffffffffffffffff1673ffffffffffffffffffffffffffffffffffffffff168152602001908152602001600020549050818110156115e2576040517f08c379a00000000000000000000000000000000000000000000000000000000081526004016115d990612347565b60405180910390fd5b8181036000808573ffffffffffffffffffffffffffffffffffffffff1673ffffffffffffffffffffffffffffffffffffffff1681526020019081526020016000208190555081600260008282546116399190612367565b92505081905550600073ffffffffffffffffffffffffffffffffffffffff168373ffffffffffffffffffffffffffffffffffffffff167fddf252ad1be2c89b69c2b068fc378daa952ba7f163c4a11628f55a4df523b3ef8460405161169e9190611a1d565b60405180910390a36116b28360008461183f565b505050565b6000806116c2610df5565b90506116cf818585610e89565b600191505092915050565b600073ffffffffffffffffffffffffffffffffffffffff168273ffffffffffffffffffffffffffffffffffffffff16141561174a576040517f08c379a0000000000000000000000000000000000000000000000000000000008152600401611741906123e7565b60405180910390fd5b6117566000838361183a565b80600260008282546117689190611cab565b92505081905550806000808473ffffffffffffffffffffffffffffffffffffffff1673ffffffffffffffffffffffffffffffffffffffff16815260200190815260200160002060008282546117bd9190611cab565b925050819055508173ffffffffffffffffffffffffffffffffffffffff16600073ffffffffffffffffffffffffffffffffffffffff167fddf252ad1be2c89b69c2b068fc378daa952ba7f163c4a11628f55a4df523b3ef836040516118229190611a1d565b60405180910390a36118366000838361183f565b5050565b505050565b505050565b600081519050919050565b600082825260208201905092915050565b60005b8381101561187e578082015181840152602081019050611863565b8381111561188d576000848401525b50505050565b6000601f19601f8301169050919050565b60006118af82611844565b6118b9818561184f565b93506118c9818560208601611860565b6118d281611893565b840191505092915050565b600060208201905081810360008301526118f781846118a4565b905092915050565b600080fd5b600073ffffffffffffffffffffffffffffffffffffffff82169050919050565b600061192f82611904565b9050919050565b61193f81611924565b811461194a57600080fd5b50565b60008135905061195c81611936565b92915050565b6000819050919050565b61197581611962565b811461198057600080fd5b50565b6000813590506119928161196c565b92915050565b600080604083850312156119af576119ae6118ff565b5b60006119bd8582860161194d565b92505060206119ce85828601611983565b9150509250929050565b60008115159050919050565b6119ed816119d8565b82525050565b6000602082019050611a0860008301846119e4565b92915050565b611a1781611962565b82525050565b6000602082019050611a326000830184611a0e565b92915050565b600080600060608486031215611a5157611a506118ff565b5b6000611a5f8682870161194d565b9350506020611a708682870161194d565b9250506040611a8186828701611983565b9150509250925092565b600060ff82169050919050565b611aa181611a8b565b82525050565b6000602082019050611abc6000830184611a98565b92915050565b600060208284031215611ad857611ad76118ff565b5b6000611ae68482850161194d565b91505092915050565b611af881611924565b82525050565b6000602082019050611b136000830184611aef565b92915050565b600060208284031215611b2f57611b2e6118ff565b5b6000611b3d84828501611983565b91505092915050565b60008060408385031215611b5d57611b5c6118ff565b5b6000611b6b8582860161194d565b9250506020611b7c8582860161194d565b9150509250929050565b7f4e487b7100000000000000000000000000000000000000000000000000000000600052602260045260246000fd5b60006002820490506001821680611bcd57607f821691505b60208210811415611be157611be0611b86565b5b50919050565b7f5061757361626c653a2070617573656400000000000000000000000000000000600082015250565b6000611c1d60108361184f565b9150611c2882611be7565b602082019050919050565b60006020820190508181036000830152611c4c81611c10565b9050919050565b6000604082019050611c686000830185611aef565b611c756020830184611a0e565b9392505050565b7f4e487b7100000000000000000000000000000000000000000000000000000000600052601160045260246000fd5b6000611cb682611962565b9150611cc183611962565b9250827fffffffffffffffffffffffffffffffffffffffffffffffffffffffffffffffff03821115611cf657611cf5611c7c565b5b828201905092915050565b7f5061757361626c653a206e6f7420706175736564000000000000000000000000600082015250565b6000611d3760148361184f565b9150611d4282611d01565b602082019050919050565b60006020820190508181036000830152611d6681611d2a565b9050919050565b7f4f776e61626c653a2063616c6c6572206973206e6f7420746865206f776e6572600082015250565b6000611da360208361184f565b9150611dae82611d6d565b602082019050919050565b60006020820190508181036000830152611dd281611d96565b9050919050565b7f45524332303a2064656372656173656420616c6c6f77616e63652062656c6f7760008201527f207a65726f000000000000000000000000000000000000000000000000000000602082015250565b6000611e3560258361184f565b9150611e4082611dd9565b604082019050919050565b60006020820190508181036000830152611e6481611e28565b9050919050565b7f4f776e61626c653a206e6577206f776e657220697320746865207a65726f206160008201527f6464726573730000000000000000000000000000000000000000000000000000602082015250565b6000611ec760268361184f565b9150611ed282611e6b565b604082019050919050565b60006020820190508181036000830152611ef681611eba565b9050919050565b7f45524332303a20696e73756666696369656e7420616c6c6f77616e6365000000600082015250565b6000611f33601d8361184f565b9150611f3e82611efd565b602082019050919050565b60006020820190508181036000830152611f6281611f26565b9050919050565b7f45524332303a207472616e736665722066726f6d20746865207a65726f20616460008201527f6472657373000000000000000000000000000000000000000000000000000000602082015250565b6000611fc560258361184f565b9150611fd082611f69565b604082019050919050565b60006020820190508181036000830152611ff481611fb8565b9050919050565b7f45524332303a207472616e7366657220746f20746865207a65726f206164647260008201527f6573730000000000000000000000000000000000000000000000000000000000602082015250565b600061205760238361184f565b915061206282611ffb565b604082019050919050565b600060208201905081810360008301526120868161204a565b9050919050565b7f45524332303a207472616e7366657220616d6f756e742065786365656473206260008201527f616c616e63650000000000000000000000000000000000000000000000000000602082015250565b60006120e960268361184f565b91506120f48261208d565b604082019050919050565b60006020820190508181036000830152612118816120dc565b9050919050565b7f45524332303a20617070726f76652066726f6d20746865207a65726f2061646460008201527f7265737300000000000000000000000000000000000000000000000000000000602082015250565b600061217b60248361184f565b91506121868261211f565b604082019050919050565b600060208201905081810360008301526121aa8161216e565b9050919050565b7f45524332303a20617070726f766520746f20746865207a65726f20616464726560008201527f7373000000000000000000000000000000000000000000000000000000000000602082015250565b600061220d60228361184f565b9150612218826121b1565b604082019050919050565b6000602082019050818103600083015261223c81612200565b9050919050565b7f45524332303a206275726e2066726f6d20746865207a65726f2061646472657360008201527f7300000000000000000000000000000000000000000000000000000000000000602082015250565b600061229f60218361184f565b91506122aa82612243565b604082019050919050565b600060208201905081810360008301526122ce81612292565b9050919050565b7f45524332303a206275726e20616d6f756e7420657863656564732062616c616e60008201527f6365000000000000000000000000000000000000000000000000000000000000602082015250565b600061233160228361184f565b915061233c826122d5565b604082019050919050565b6000602082019050818103600083015261236081612324565b9050919050565b600061237282611962565b915061237d83611962565b9250828210156123905761238f611c7c565b5b828203905092915050565b7f45524332303a206d696e7420746f20746865207a65726f206164647265737300600082015250565b60006123d1601f8361184f565b91506123dc8261239b565b602082019050919050565b60006020820190508181036000830152612400816123c4565b905091905056fea26469706673582212205283eea1d96c1e1af0ed12d8c87b54206d223063d89d052a8d8e2e61caf8362064736f6c634300080b0033",
  "immutableReferences": {},
  "source": "// SPDX-License-Identifier: MIT\npragma solidity >=0.4.22 <0.9.0;\n\nimport \"@openzeppelin/contracts/token/ERC20/ERC20.sol\";\nimport \"@openzeppelin/contracts/access/Ownable.sol\";\nimport \"@openzeppelin/contracts/utils/Context.sol\";\nimport \"@openzeppelin/contracts/security/Pausable.sol\";\n\ninterface tokenRecipient {\n    function receiveApproval(address sender, uint256 value) external;\n}\n\ncontract MovieFoley is Context, ERC20, Ownable, Pausable {\n    string private _name = \"Movie Foley Token\";\n    string private _symbol = \"MOVY\";\n    uint8 private _decimal = 4;\n    uint256 private _treasure = 300000000000;\n\n    event Burned(address addr, uint256 amount);\n    event Minted(address addr, uint256 amount);\n\n    constructor() ERC20(_name, _symbol) {\n        mintForTreasure(_treasure);\n    }\n\n    function decimals() public view override returns (uint8) {\n        return _decimal;\n    }\n\n    function pause() public whenNotPaused onlyOwner {\n        _pause();\n    }\n\n    function unpause() public whenPaused onlyOwner {\n        _unpause();\n    }\n\n    function burn(address from, uint256 amount) public onlyOwner {\n        _burn(from, amount);\n        emit Burned(from, amount);\n    }\n\n    function mintForTreasure(uint256 amount) public onlyOwner {\n        _mint(owner(), amount);\n        emit Minted(owner(), amount);\n    }\n\n    function transfer(address to, uint256 amount)\n        public\n        override\n        whenNotPaused\n        returns (bool)\n    {\n        return super.transfer(to, amount);\n    }\n\n    function approve(address spender, uint256 amount)\n        public\n        override\n        whenNotPaused\n        returns (bool)\n    {\n        return super.approve(spender, amount);\n    }\n\n    function approveAndCall(address _spender, uint256 _value) public {\n        require(approve(_spender, _value));\n        tokenRecipient spender = tokenRecipient(_spender);\n        spender.receiveApproval(_msgSender(), _value);\n    }\n}\n",
  "sourcePath": "/home/ismail/blockchain/mf_contracts/contracts/MovieFoley.sol",
  "compiler": {
    "name": "solc",
    "version": "0.8.11+commit.d7f03943.Emscripten.clang"
  },
  "schemaVersion": "3.4.4",
  "updatedAt": "2022-03-13T20:57:59.633Z",
  "networkType": "ethereum",
  "devdoc": {
    "kind": "dev",
    "methods": {
      "allowance(address,address)": {
        "details": "See {IERC20-allowance}."
      },
      "approve(address,uint256)": {
        "details": "See {IERC20-approve}. NOTE: If `amount` is the maximum `uint256`, the allowance is not updated on `transferFrom`. This is semantically equivalent to an infinite approval. Requirements: - `spender` cannot be the zero address."
      },
      "balanceOf(address)": {
        "details": "See {IERC20-balanceOf}."
      },
      "decimals()": {
        "details": "Returns the number of decimals used to get its user representation. For example, if `decimals` equals `2`, a balance of `505` tokens should be displayed to a user as `5.05` (`505 / 10 ** 2`). Tokens usually opt for a value of 18, imitating the relationship between Ether and Wei. This is the value {ERC20} uses, unless this function is overridden; NOTE: This information is only used for _display_ purposes: it in no way affects any of the arithmetic of the contract, including {IERC20-balanceOf} and {IERC20-transfer}."
      },
      "decreaseAllowance(address,uint256)": {
        "details": "Atomically decreases the allowance granted to `spender` by the caller. This is an alternative to {approve} that can be used as a mitigation for problems described in {IERC20-approve}. Emits an {Approval} event indicating the updated allowance. Requirements: - `spender` cannot be the zero address. - `spender` must have allowance for the caller of at least `subtractedValue`."
      },
      "increaseAllowance(address,uint256)": {
        "details": "Atomically increases the allowance granted to `spender` by the caller. This is an alternative to {approve} that can be used as a mitigation for problems described in {IERC20-approve}. Emits an {Approval} event indicating the updated allowance. Requirements: - `spender` cannot be the zero address."
      },
      "name()": {
        "details": "Returns the name of the token."
      },
      "owner()": {
        "details": "Returns the address of the current owner."
      },
      "paused()": {
        "details": "Returns true if the contract is paused, and false otherwise."
      },
      "renounceOwnership()": {
        "details": "Leaves the contract without owner. It will not be possible to call `onlyOwner` functions anymore. Can only be called by the current owner. NOTE: Renouncing ownership will leave the contract without an owner, thereby removing any functionality that is only available to the owner."
      },
      "symbol()": {
        "details": "Returns the symbol of the token, usually a shorter version of the name."
      },
      "totalSupply()": {
        "details": "See {IERC20-totalSupply}."
      },
      "transfer(address,uint256)": {
        "details": "See {IERC20-transfer}. Requirements: - `to` cannot be the zero address. - the caller must have a balance of at least `amount`."
      },
      "transferFrom(address,address,uint256)": {
        "details": "See {IERC20-transferFrom}. Emits an {Approval} event indicating the updated allowance. This is not required by the EIP. See the note at the beginning of {ERC20}. NOTE: Does not update the allowance if the current allowance is the maximum `uint256`. Requirements: - `from` and `to` cannot be the zero address. - `from` must have a balance of at least `amount`. - the caller must have allowance for ``from``'s tokens of at least `amount`."
      },
      "transferOwnership(address)": {
        "details": "Transfers ownership of the contract to a new account (`newOwner`). Can only be called by the current owner."
      }
    },
    "version": 1
  },
  "userdoc": {
    "kind": "user",
    "methods": {},
    "version": 1
  }
}